{"abi":[{"type":"constructor","inputs":[],"stateMutability":"nonpayable"},{"type":"function","name":"addOperator","inputs":[{"name":"operator","type":"address","internalType":"address"}],"outputs":[],"stateMutability":"nonpayable"},{"type":"function","name":"addSubscriber","inputs":[{"name":"subscriber","type":"address","internalType":"address"}],"outputs":[],"stateMutability":"nonpayable"},{"type":"function","name":"artistCount","inputs":[],"outputs":[{"name":"","type":"uint256","internalType":"uint256"}],"stateMutability":"view"},{"type":"function","name":"artists","inputs":[{"name":"","type":"address","internalType":"address"}],"outputs":[{"name":"registered","type":"bool","internalType":"bool"},{"name":"totalEarned","type":"uint256","internalType":"uint256"},{"name":"lastRewardTimestamp","type":"uint256","internalType":"uint256"}],"stateMutability":"view"},{"type":"function","name":"calculateReward","inputs":[{"name":"contributionScore","type":"uint256","internalType":"uint256"}],"outputs":[{"name":"","type":"uint256","internalType":"uint256"}],"stateMutability":"view"},{"type":"function","name":"initialize","inputs":[{"name":"initialOwner","type":"address","internalType":"address"},{"name":"_phloteToken","type":"address","internalType":"address"},{"name":"_phloteTreasury","type":"address","internalType":"address payable"}],"outputs":[],"stateMutability":"nonpayable"},{"type":"function","name":"operators","inputs":[{"name":"","type":"address","internalType":"address"}],"outputs":[{"name":"","type":"bool","internalType":"bool"}],"stateMutability":"view"},{"type":"function","name":"owner","inputs":[],"outputs":[{"name":"","type":"address","internalType":"address"}],"stateMutability":"view"},{"type":"function","name":"phloteToken","inputs":[],"outputs":[{"name":"","type":"address","internalType":"contract PhloteToken"}],"stateMutability":"view"},{"type":"function","name":"phloteTreasury","inputs":[],"outputs":[{"name":"","type":"address","internalType":"contract PhloteTreasury"}],"stateMutability":"view"},{"type":"function","name":"proxiableUUID","inputs":[],"outputs":[{"name":"","type":"bytes32","internalType":"bytes32"}],"stateMutability":"view"},{"type":"function","name":"registerArtist","inputs":[{"name":"artist","type":"address","internalType":"address"}],"outputs":[],"stateMutability":"nonpayable"},{"type":"function","name":"removeOperator","inputs":[{"name":"operator","type":"address","internalType":"address"}],"outputs":[],"stateMutability":"nonpayable"},{"type":"function","name":"removeSubscriber","inputs":[{"name":"subscriber","type":"address","internalType":"address"}],"outputs":[],"stateMutability":"nonpayable"},{"type":"function","name":"renounceOwnership","inputs":[],"outputs":[],"stateMutability":"nonpayable"},{"type":"function","name":"rewardArtist","inputs":[{"name":"artist","type":"address","internalType":"address"},{"name":"pointsAmount","type":"uint256","internalType":"uint256"},{"name":"ethAmount","type":"uint256","internalType":"uint256"}],"outputs":[],"stateMutability":"nonpayable"},{"type":"function","name":"subscriberCount","inputs":[],"outputs":[{"name":"","type":"uint256","internalType":"uint256"}],"stateMutability":"view"},{"type":"function","name":"subscribers","inputs":[{"name":"","type":"address","internalType":"address"}],"outputs":[{"name":"","type":"bool","internalType":"bool"}],"stateMutability":"view"},{"type":"function","name":"transferOwnership","inputs":[{"name":"newOwner","type":"address","internalType":"address"}],"outputs":[],"stateMutability":"nonpayable"},{"type":"function","name":"upgradeTo","inputs":[{"name":"newImplementation","type":"address","internalType":"address"}],"outputs":[],"stateMutability":"nonpayable"},{"type":"function","name":"upgradeToAndCall","inputs":[{"name":"newImplementation","type":"address","internalType":"address"},{"name":"data","type":"bytes","internalType":"bytes"}],"outputs":[],"stateMutability":"payable"},{"type":"event","name":"AdminChanged","inputs":[{"name":"previousAdmin","type":"address","indexed":false,"internalType":"address"},{"name":"newAdmin","type":"address","indexed":false,"internalType":"address"}],"anonymous":false},{"type":"event","name":"ArtistRegistered","inputs":[{"name":"artist","type":"address","indexed":true,"internalType":"address"}],"anonymous":false},{"type":"event","name":"ArtistRewarded","inputs":[{"name":"artist","type":"address","indexed":true,"internalType":"address"},{"name":"pointsAmount","type":"uint256","indexed":false,"internalType":"uint256"},{"name":"ethAmount","type":"uint256","indexed":false,"internalType":"uint256"}],"anonymous":false},{"type":"event","name":"BeaconUpgraded","inputs":[{"name":"beacon","type":"address","indexed":true,"internalType":"address"}],"anonymous":false},{"type":"event","name":"Initialized","inputs":[{"name":"version","type":"uint8","indexed":false,"internalType":"uint8"}],"anonymous":false},{"type":"event","name":"OperatorAdded","inputs":[{"name":"operator","type":"address","indexed":true,"internalType":"address"}],"anonymous":false},{"type":"event","name":"OperatorRemoved","inputs":[{"name":"operator","type":"address","indexed":true,"internalType":"address"}],"anonymous":false},{"type":"event","name":"OwnershipTransferred","inputs":[{"name":"previousOwner","type":"address","indexed":true,"internalType":"address"},{"name":"newOwner","type":"address","indexed":true,"internalType":"address"}],"anonymous":false},{"type":"event","name":"SubscriberAdded","inputs":[{"name":"subscriber","type":"address","indexed":true,"internalType":"address"}],"anonymous":false},{"type":"event","name":"SubscriberRemoved","inputs":[{"name":"subscriber","type":"address","indexed":true,"internalType":"address"}],"anonymous":false},{"type":"event","name":"Upgraded","inputs":[{"name":"implementation","type":"address","indexed":true,"internalType":"address"}],"anonymous":false}],"bytecode":{"object":"0x60a06040523073ffffffffffffffffffffffffffffffffffffffff1660809073ffffffffffffffffffffffffffffffffffffffff16815250348015610042575f5ffd5b5061005161005660201b60201c565b6101e6565b5f60019054906101000a900460ff16156100a5576040517f08c379a000000000000000000000000000000000000000000000000000000000815260040161009c90610194565b60405180910390fd5b60ff80165f5f9054906101000a900460ff1660ff16146101125760ff5f5f6101000a81548160ff021916908360ff1602179055507f7f26b83ff96e1f2b6a682f133852f6798a09c465da95921460cefb384740249860ff60405161010991906101cd565b60405180910390a15b565b5f82825260208201905092915050565b7f496e697469616c697a61626c653a20636f6e747261637420697320696e6974695f8201527f616c697a696e6700000000000000000000000000000000000000000000000000602082015250565b5f61017e602783610114565b915061018982610124565b604082019050919050565b5f6020820190508181035f8301526101ab81610172565b9050919050565b5f60ff82169050919050565b6101c7816101b2565b82525050565b5f6020820190506101e05f8301846101be565b92915050565b608051612f4761021a5f395f81816105060152818161059401528181610cb601528181610d440152610df30152612f475ff3fe608060405260043610610129575f3560e01c80638da5cb5b116100aa578063c0c53b8b1161006e578063c0c53b8b146103ab578063d2d7231f146103d3578063ef352bbe1461040f578063f2fde38b14610439578063fd0a755c14610461578063fe297d551461048b57610129565b80638da5cb5b146102df57806394555d1a146103095780639870d7fe14610331578063ac8a584a14610359578063be5304821461038157610129565b80634f1ef286116100f15780634f1ef2861461021f57806352d1902d1461023b5780635745ae2814610265578063627c34ad146102a1578063715018a6146102c957610129565b8063069dab8f1461012d57806313e7c9d81461016b5780633659cfe6146101a757806346971918146101cf5780634cb33d5b146101f7575b5f5ffd5b348015610138575f5ffd5b50610153600480360381019061014e9190611f05565b6104b5565b60405161016293929190611f62565b60405180910390f35b348015610176575f5ffd5b50610191600480360381019061018c9190611f05565b6104e7565b60405161019e9190611f97565b60405180910390f35b3480156101b2575f5ffd5b506101cd60048036038101906101c89190611f05565b610504565b005b3480156101da575f5ffd5b506101f560048036038101906101f09190611fda565b61068a565b005b348015610202575f5ffd5b5061021d60048036038101906102189190611f05565b610a76565b005b61023960048036038101906102349190612166565b610cb4565b005b348015610246575f5ffd5b5061024f610df0565b60405161025c91906121d8565b60405180910390f35b348015610270575f5ffd5b5061028b60048036038101906102869190611f05565b610ea7565b6040516102989190611f97565b60405180910390f35b3480156102ac575f5ffd5b506102c760048036038101906102c29190611f05565b610ec4565b005b3480156102d4575f5ffd5b506102dd61108b565b005b3480156102ea575f5ffd5b506102f361109e565b6040516103009190612200565b60405180910390f35b348015610314575f5ffd5b5061032f600480360381019061032a9190611f05565b6110c6565b005b34801561033c575f5ffd5b5061035760048036038101906103529190611f05565b61128d565b005b348015610364575f5ffd5b5061037f600480360381019061037a9190611f05565b611330565b005b34801561038c575f5ffd5b506103956113d2565b6040516103a29190612219565b60405180910390f35b3480156103b6575f5ffd5b506103d160048036038101906103cc919061226d565b6113d8565b005b3480156103de575f5ffd5b506103f960048036038101906103f491906122bd565b61163e565b6040516104069190612219565b60405180910390f35b34801561041a575f5ffd5b506104236116da565b6040516104309190612219565b60405180910390f35b348015610444575f5ffd5b5061045f600480360381019061045a9190611f05565b6116e0565b005b34801561046c575f5ffd5b50610475611762565b6040516104829190612343565b60405180910390f35b348015610496575f5ffd5b5061049f611787565b6040516104ac919061238d565b60405180910390f35b60ce602052805f5260405f205f91509050805f015f9054906101000a900460ff16908060010154908060020154905083565b60cd602052805f5260405f205f915054906101000a900460ff1681565b7f000000000000000000000000000000000000000000000000000000000000000073ffffffffffffffffffffffffffffffffffffffff163073ffffffffffffffffffffffffffffffffffffffff1603610592576040517f08c379a000000000000000000000000000000000000000000000000000000000815260040161058990612426565b60405180910390fd5b7f000000000000000000000000000000000000000000000000000000000000000073ffffffffffffffffffffffffffffffffffffffff166105d16117ac565b73ffffffffffffffffffffffffffffffffffffffff1614610627576040517f08c379a000000000000000000000000000000000000000000000000000000000815260040161061e906124b4565b60405180910390fd5b610630816117ff565b610687815f67ffffffffffffffff81111561064e5761064d612042565b5b6040519080825280601f01601f1916602001820160405280156106805781602001600182028036833780820191505090505b505f61180a565b50565b60cd5f3373ffffffffffffffffffffffffffffffffffffffff1673ffffffffffffffffffffffffffffffffffffffff1681526020019081526020015f205f9054906101000a900460ff168061071157506106e261109e565b73ffffffffffffffffffffffffffffffffffffffff163373ffffffffffffffffffffffffffffffffffffffff16145b610750576040517f08c379a00000000000000000000000000000000000000000000000000000000081526004016107479061251c565b60405180910390fd5b60ce5f8473ffffffffffffffffffffffffffffffffffffffff1673ffffffffffffffffffffffffffffffffffffffff1681526020019081526020015f205f015f9054906101000a900460ff166107db576040517f08c379a00000000000000000000000000000000000000000000000000000000081526004016107d290612584565b60405180910390fd5b6201518060ce5f8573ffffffffffffffffffffffffffffffffffffffff1673ffffffffffffffffffffffffffffffffffffffff1681526020019081526020015f206002015461082a91906125cf565b421161086b576040517f08c379a00000000000000000000000000000000000000000000000000000000081526004016108629061264c565b60405180910390fd5b60c95f9054906101000a900473ffffffffffffffffffffffffffffffffffffffff1673ffffffffffffffffffffffffffffffffffffffff166340c10f1984846040518363ffffffff1660e01b81526004016108c792919061266a565b5f604051808303815f87803b1580156108de575f5ffd5b505af11580156108f0573d5f5f3e3d5ffd5b505050505f8111156109865760ca5f9054906101000a900473ffffffffffffffffffffffffffffffffffffffff1673ffffffffffffffffffffffffffffffffffffffff1663dac4e00882856040518363ffffffff1660e01b8152600401610958929190612691565b5f604051808303815f87803b15801561096f575f5ffd5b505af1158015610981573d5f5f3e3d5ffd5b505050505b8160ce5f8573ffffffffffffffffffffffffffffffffffffffff1673ffffffffffffffffffffffffffffffffffffffff1681526020019081526020015f206001015f8282546109d591906125cf565b925050819055504260ce5f8573ffffffffffffffffffffffffffffffffffffffff1673ffffffffffffffffffffffffffffffffffffffff1681526020019081526020015f20600201819055508273ffffffffffffffffffffffffffffffffffffffff167f3626666c231adad7b37ba00edbc842b5c6ec283c7700ee28a4540048d4ad23088383604051610a699291906126b8565b60405180910390a2505050565b60cd5f3373ffffffffffffffffffffffffffffffffffffffff1673ffffffffffffffffffffffffffffffffffffffff1681526020019081526020015f205f9054906101000a900460ff1680610afd5750610ace61109e565b73ffffffffffffffffffffffffffffffffffffffff163373ffffffffffffffffffffffffffffffffffffffff16145b610b3c576040517f08c379a0000000000000000000000000000000000000000000000000000000008152600401610b339061251c565b60405180910390fd5b60ce5f8273ffffffffffffffffffffffffffffffffffffffff1673ffffffffffffffffffffffffffffffffffffffff1681526020019081526020015f205f015f9054906101000a900460ff1615610bc8576040517f08c379a0000000000000000000000000000000000000000000000000000000008152600401610bbf90612729565b60405180910390fd5b60405180606001604052806001151581526020015f81526020015f81525060ce5f8373ffffffffffffffffffffffffffffffffffffffff1673ffffffffffffffffffffffffffffffffffffffff1681526020019081526020015f205f820151815f015f6101000a81548160ff021916908315150217905550602082015181600101556040820151816002015590505060cc5f815480929190610c6990612747565b91905055508073ffffffffffffffffffffffffffffffffffffffff167fa8476a100dfe10a5a1eaf141fb52ce03e930b3592d93f086ea603b0f9152649a60405160405180910390a250565b7f000000000000000000000000000000000000000000000000000000000000000073ffffffffffffffffffffffffffffffffffffffff163073ffffffffffffffffffffffffffffffffffffffff1603610d42576040517f08c379a0000000000000000000000000000000000000000000000000000000008152600401610d3990612426565b60405180910390fd5b7f000000000000000000000000000000000000000000000000000000000000000073ffffffffffffffffffffffffffffffffffffffff16610d816117ac565b73ffffffffffffffffffffffffffffffffffffffff1614610dd7576040517f08c379a0000000000000000000000000000000000000000000000000000000008152600401610dce906124b4565b60405180910390fd5b610de0826117ff565b610dec8282600161180a565b5050565b5f7f000000000000000000000000000000000000000000000000000000000000000073ffffffffffffffffffffffffffffffffffffffff163073ffffffffffffffffffffffffffffffffffffffff1614610e7f576040517f08c379a0000000000000000000000000000000000000000000000000000000008152600401610e76906127fe565b60405180910390fd5b7f360894a13ba1a3210667c828492db98dca3e2076cc3735a920a3ca505d382bbc5f1b905090565b60cf602052805f5260405f205f915054906101000a900460ff1681565b60cd5f3373ffffffffffffffffffffffffffffffffffffffff1673ffffffffffffffffffffffffffffffffffffffff1681526020019081526020015f205f9054906101000a900460ff1680610f4b5750610f1c61109e565b73ffffffffffffffffffffffffffffffffffffffff163373ffffffffffffffffffffffffffffffffffffffff16145b610f8a576040517f08c379a0000000000000000000000000000000000000000000000000000000008152600401610f819061251c565b60405180910390fd5b60cf5f8273ffffffffffffffffffffffffffffffffffffffff1673ffffffffffffffffffffffffffffffffffffffff1681526020019081526020015f205f9054906101000a900460ff1615611088575f60cf5f8373ffffffffffffffffffffffffffffffffffffffff1673ffffffffffffffffffffffffffffffffffffffff1681526020019081526020015f205f6101000a81548160ff02191690831515021790555060cb5f81548092919061103f9061281c565b91905055508073ffffffffffffffffffffffffffffffffffffffff167f363a8f89c594989191b48e234d2d120becdcdcfb1a55430ebe087df465ecee7960405160405180910390a25b50565b611093611974565b61109c5f6119f2565b565b5f60335f9054906101000a900473ffffffffffffffffffffffffffffffffffffffff16905090565b60cd5f3373ffffffffffffffffffffffffffffffffffffffff1673ffffffffffffffffffffffffffffffffffffffff1681526020019081526020015f205f9054906101000a900460ff168061114d575061111e61109e565b73ffffffffffffffffffffffffffffffffffffffff163373ffffffffffffffffffffffffffffffffffffffff16145b61118c576040517f08c379a00000000000000000000000000000000000000000000000000000000081526004016111839061251c565b60405180910390fd5b60cf5f8273ffffffffffffffffffffffffffffffffffffffff1673ffffffffffffffffffffffffffffffffffffffff1681526020019081526020015f205f9054906101000a900460ff1661128a57600160cf5f8373ffffffffffffffffffffffffffffffffffffffff1673ffffffffffffffffffffffffffffffffffffffff1681526020019081526020015f205f6101000a81548160ff02191690831515021790555060cb5f81548092919061124190612747565b91905055508073ffffffffffffffffffffffffffffffffffffffff167fc97dd170c66ffbaf6bbd161106e7414cd1b75c1f50f9cd74947e4cf45678b82f60405160405180910390a25b50565b611295611974565b600160cd5f8373ffffffffffffffffffffffffffffffffffffffff1673ffffffffffffffffffffffffffffffffffffffff1681526020019081526020015f205f6101000a81548160ff0219169083151502179055508073ffffffffffffffffffffffffffffffffffffffff167fac6fa858e9350a46cec16539926e0fde25b7629f84b5a72bffaae4df888ae86d60405160405180910390a250565b611338611974565b5f60cd5f8373ffffffffffffffffffffffffffffffffffffffff1673ffffffffffffffffffffffffffffffffffffffff1681526020019081526020015f205f6101000a81548160ff0219169083151502179055508073ffffffffffffffffffffffffffffffffffffffff167f80c0b871b97b595b16a7741c1b06fed0c6f6f558639f18ccbce50724325dc40d60405160405180910390a250565b60cc5481565b5f5f60019054906101000a900460ff16159050808015611408575060015f5f9054906101000a900460ff1660ff16105b80611435575061141730611ab5565b158015611434575060015f5f9054906101000a900460ff1660ff16145b5b611474576040517f08c379a000000000000000000000000000000000000000000000000000000000815260040161146b906128b3565b60405180910390fd5b60015f5f6101000a81548160ff021916908360ff16021790555080156114af5760015f60016101000a81548160ff0219169083151502179055505b6114b7611ad7565b6114c0846119f2565b6114c8611b2f565b8260c95f6101000a81548173ffffffffffffffffffffffffffffffffffffffff021916908373ffffffffffffffffffffffffffffffffffffffff1602179055508160ca5f6101000a81548173ffffffffffffffffffffffffffffffffffffffff021916908373ffffffffffffffffffffffffffffffffffffffff160217905550600160cd5f8673ffffffffffffffffffffffffffffffffffffffff1673ffffffffffffffffffffffffffffffffffffffff1681526020019081526020015f205f6101000a81548160ff0219169083151502179055508373ffffffffffffffffffffffffffffffffffffffff167fac6fa858e9350a46cec16539926e0fde25b7629f84b5a72bffaae4df888ae86d60405160405180910390a28015611638575f5f60016101000a81548160ff0219169083151502179055507f7f26b83ff96e1f2b6a682f133852f6798a09c465da95921460cefb3847402498600160405161162f9190612916565b60405180910390a15b50505050565b5f6064821115611683576040517f08c379a000000000000000000000000000000000000000000000000000000000815260040161167a90612979565b60405180910390fd5b5f68056bc75e2d6310000090505f6001606460cb546116a291906129c4565b6116ac91906125cf565b905060648482846116bd91906129f4565b6116c791906129f4565b6116d191906129c4565b92505050919050565b60cb5481565b6116e8611974565b5f73ffffffffffffffffffffffffffffffffffffffff168173ffffffffffffffffffffffffffffffffffffffff1603611756576040517f08c379a000000000000000000000000000000000000000000000000000000000815260040161174d90612aa5565b60405180910390fd5b61175f816119f2565b50565b60ca5f9054906101000a900473ffffffffffffffffffffffffffffffffffffffff1681565b60c95f9054906101000a900473ffffffffffffffffffffffffffffffffffffffff1681565b5f6117d87f360894a13ba1a3210667c828492db98dca3e2076cc3735a920a3ca505d382bbc5f1b611b7f565b5f015f9054906101000a900473ffffffffffffffffffffffffffffffffffffffff16905090565b611807611974565b50565b6118357f4910fdfa16fed3260ed0e7147f7cc6da11a60208b5b9406d12a635614ffd91435f1b611b88565b5f015f9054906101000a900460ff16156118575761185283611b91565b61196f565b8273ffffffffffffffffffffffffffffffffffffffff166352d1902d6040518163ffffffff1660e01b8152600401602060405180830381865afa9250505080156118bf57506040513d601f19601f820116820180604052508101906118bc9190612aed565b60015b6118fe576040517f08c379a00000000000000000000000000000000000000000000000000000000081526004016118f590612b88565b60405180910390fd5b7f360894a13ba1a3210667c828492db98dca3e2076cc3735a920a3ca505d382bbc5f1b8114611962576040517f08c379a000000000000000000000000000000000000000000000000000000000815260040161195990612c16565b60405180910390fd5b5061196e838383611c47565b5b505050565b61197c611c72565b73ffffffffffffffffffffffffffffffffffffffff1661199a61109e565b73ffffffffffffffffffffffffffffffffffffffff16146119f0576040517f08c379a00000000000000000000000000000000000000000000000000000000081526004016119e790612c7e565b60405180910390fd5b565b5f60335f9054906101000a900473ffffffffffffffffffffffffffffffffffffffff1690508160335f6101000a81548173ffffffffffffffffffffffffffffffffffffffff021916908373ffffffffffffffffffffffffffffffffffffffff1602179055508173ffffffffffffffffffffffffffffffffffffffff168173ffffffffffffffffffffffffffffffffffffffff167f8be0079c531659141344cd1fd0a4f28419497f9722a3daafe3b4186f6b6457e060405160405180910390a35050565b5f5f8273ffffffffffffffffffffffffffffffffffffffff163b119050919050565b5f60019054906101000a900460ff16611b25576040517f08c379a0000000000000000000000000000000000000000000000000000000008152600401611b1c90612d0c565b60405180910390fd5b611b2d611c79565b565b5f60019054906101000a900460ff16611b7d576040517f08c379a0000000000000000000000000000000000000000000000000000000008152600401611b7490612d0c565b60405180910390fd5b565b5f819050919050565b5f819050919050565b611b9a81611ab5565b611bd9576040517f08c379a0000000000000000000000000000000000000000000000000000000008152600401611bd090612d9a565b60405180910390fd5b80611c057f360894a13ba1a3210667c828492db98dca3e2076cc3735a920a3ca505d382bbc5f1b611b7f565b5f015f6101000a81548173ffffffffffffffffffffffffffffffffffffffff021916908373ffffffffffffffffffffffffffffffffffffffff16021790555050565b611c5083611cd9565b5f82511180611c5c5750805b15611c6d57611c6b8383611d28565b505b505050565b5f33905090565b5f60019054906101000a900460ff16611cc7576040517f08c379a0000000000000000000000000000000000000000000000000000000008152600401611cbe90612d0c565b60405180910390fd5b611cd7611cd2611c72565b6119f2565b565b611ce281611b91565b8073ffffffffffffffffffffffffffffffffffffffff167fbc7cd75a20ee27fd9adebab32041f755214dbc6bffa90cc0225b39da2e5c2d3b60405160405180910390a250565b6060611d4d8383604051806060016040528060278152602001612eeb60279139611d55565b905092915050565b60605f5f8573ffffffffffffffffffffffffffffffffffffffff1685604051611d7e9190612e0a565b5f60405180830381855af49150503d805f8114611db6576040519150601f19603f3d011682016040523d82523d5f602084013e611dbb565b606091505b5091509150611dcc86838387611dd7565b925050509392505050565b60608315611e38575f835103611e3057611df085611ab5565b611e2f576040517f08c379a0000000000000000000000000000000000000000000000000000000008152600401611e2690612e6a565b60405180910390fd5b5b829050611e43565b611e428383611e4b565b5b949350505050565b5f82511115611e5d5781518083602001fd5b806040517f08c379a0000000000000000000000000000000000000000000000000000000008152600401611e919190612eca565b60405180910390fd5b5f604051905090565b5f5ffd5b5f5ffd5b5f73ffffffffffffffffffffffffffffffffffffffff82169050919050565b5f611ed482611eab565b9050919050565b611ee481611eca565b8114611eee575f5ffd5b50565b5f81359050611eff81611edb565b92915050565b5f60208284031215611f1a57611f19611ea3565b5b5f611f2784828501611ef1565b91505092915050565b5f8115159050919050565b611f4481611f30565b82525050565b5f819050919050565b611f5c81611f4a565b82525050565b5f606082019050611f755f830186611f3b565b611f826020830185611f53565b611f8f6040830184611f53565b949350505050565b5f602082019050611faa5f830184611f3b565b92915050565b611fb981611f4a565b8114611fc3575f5ffd5b50565b5f81359050611fd481611fb0565b92915050565b5f5f5f60608486031215611ff157611ff0611ea3565b5b5f611ffe86828701611ef1565b935050602061200f86828701611fc6565b925050604061202086828701611fc6565b9150509250925092565b5f5ffd5b5f5ffd5b5f601f19601f8301169050919050565b7f4e487b71000000000000000000000000000000000000000000000000000000005f52604160045260245ffd5b61207882612032565b810181811067ffffffffffffffff8211171561209757612096612042565b5b80604052505050565b5f6120a9611e9a565b90506120b5828261206f565b919050565b5f67ffffffffffffffff8211156120d4576120d3612042565b5b6120dd82612032565b9050602081019050919050565b828183375f83830152505050565b5f61210a612105846120ba565b6120a0565b9050828152602081018484840111156121265761212561202e565b5b6121318482856120ea565b509392505050565b5f82601f83011261214d5761214c61202a565b5b813561215d8482602086016120f8565b91505092915050565b5f5f6040838503121561217c5761217b611ea3565b5b5f61218985828601611ef1565b925050602083013567ffffffffffffffff8111156121aa576121a9611ea7565b5b6121b685828601612139565b9150509250929050565b5f819050919050565b6121d2816121c0565b82525050565b5f6020820190506121eb5f8301846121c9565b92915050565b6121fa81611eca565b82525050565b5f6020820190506122135f8301846121f1565b92915050565b5f60208201905061222c5f830184611f53565b92915050565b5f61223c82611eab565b9050919050565b61224c81612232565b8114612256575f5ffd5b50565b5f8135905061226781612243565b92915050565b5f5f5f6060848603121561228457612283611ea3565b5b5f61229186828701611ef1565b93505060206122a286828701611ef1565b92505060406122b386828701612259565b9150509250925092565b5f602082840312156122d2576122d1611ea3565b5b5f6122df84828501611fc6565b91505092915050565b5f819050919050565b5f61230b61230661230184611eab565b6122e8565b611eab565b9050919050565b5f61231c826122f1565b9050919050565b5f61232d82612312565b9050919050565b61233d81612323565b82525050565b5f6020820190506123565f830184612334565b92915050565b5f612366826122f1565b9050919050565b5f6123778261235c565b9050919050565b6123878161236d565b82525050565b5f6020820190506123a05f83018461237e565b92915050565b5f82825260208201905092915050565b7f46756e6374696f6e206d7573742062652063616c6c6564207468726f756768205f8201527f64656c656761746563616c6c0000000000000000000000000000000000000000602082015250565b5f612410602c836123a6565b915061241b826123b6565b604082019050919050565b5f6020820190508181035f83015261243d81612404565b9050919050565b7f46756e6374696f6e206d7573742062652063616c6c6564207468726f756768205f8201527f6163746976652070726f78790000000000000000000000000000000000000000602082015250565b5f61249e602c836123a6565b91506124a982612444565b604082019050919050565b5f6020820190508181035f8301526124cb81612492565b9050919050565b7f4e6f7420617574686f72697a65640000000000000000000000000000000000005f82015250565b5f612506600e836123a6565b9150612511826124d2565b602082019050919050565b5f6020820190508181035f830152612533816124fa565b9050919050565b7f417274697374206e6f74207265676973746572656400000000000000000000005f82015250565b5f61256e6015836123a6565b91506125798261253a565b602082019050919050565b5f6020820190508181035f83015261259b81612562565b9050919050565b7f4e487b71000000000000000000000000000000000000000000000000000000005f52601160045260245ffd5b5f6125d982611f4a565b91506125e483611f4a565b92508282019050808211156125fc576125fb6125a2565b5b92915050565b7f546f6f206672657175656e7400000000000000000000000000000000000000005f82015250565b5f612636600c836123a6565b915061264182612602565b602082019050919050565b5f6020820190508181035f8301526126638161262a565b9050919050565b5f60408201905061267d5f8301856121f1565b61268a6020830184611f53565b9392505050565b5f6040820190506126a45f830185611f53565b6126b160208301846121f1565b9392505050565b5f6040820190506126cb5f830185611f53565b6126d86020830184611f53565b9392505050565b7f416c7265616479207265676973746572656400000000000000000000000000005f82015250565b5f6127136012836123a6565b915061271e826126df565b602082019050919050565b5f6020820190508181035f83015261274081612707565b9050919050565b5f61275182611f4a565b91507fffffffffffffffffffffffffffffffffffffffffffffffffffffffffffffffff8203612783576127826125a2565b5b600182019050919050565b7f555550535570677261646561626c653a206d757374206e6f742062652063616c5f8201527f6c6564207468726f7567682064656c656761746563616c6c0000000000000000602082015250565b5f6127e86038836123a6565b91506127f38261278e565b604082019050919050565b5f6020820190508181035f830152612815816127dc565b9050919050565b5f61282682611f4a565b91505f8203612838576128376125a2565b5b600182039050919050565b7f496e697469616c697a61626c653a20636f6e747261637420697320616c7265615f8201527f647920696e697469616c697a6564000000000000000000000000000000000000602082015250565b5f61289d602e836123a6565b91506128a882612843565b604082019050919050565b5f6020820190508181035f8301526128ca81612891565b9050919050565b5f819050919050565b5f60ff82169050919050565b5f6129006128fb6128f6846128d1565b6122e8565b6128da565b9050919050565b612910816128e6565b82525050565b5f6020820190506129295f830184612907565b92915050565b7f53636f7265206d757374206265203c3d203130300000000000000000000000005f82015250565b5f6129636014836123a6565b915061296e8261292f565b602082019050919050565b5f6020820190508181035f83015261299081612957565b9050919050565b7f4e487b71000000000000000000000000000000000000000000000000000000005f52601260045260245ffd5b5f6129ce82611f4a565b91506129d983611f4a565b9250826129e9576129e8612997565b5b828204905092915050565b5f6129fe82611f4a565b9150612a0983611f4a565b9250828202612a1781611f4a565b91508282048414831517612a2e57612a2d6125a2565b5b5092915050565b7f4f776e61626c653a206e6577206f776e657220697320746865207a65726f20615f8201527f6464726573730000000000000000000000000000000000000000000000000000602082015250565b5f612a8f6026836123a6565b9150612a9a82612a35565b604082019050919050565b5f6020820190508181035f830152612abc81612a83565b9050919050565b612acc816121c0565b8114612ad6575f5ffd5b50565b5f81519050612ae781612ac3565b92915050565b5f60208284031215612b0257612b01611ea3565b5b5f612b0f84828501612ad9565b91505092915050565b7f45524331393637557067726164653a206e657720696d706c656d656e746174695f8201527f6f6e206973206e6f742055555053000000000000000000000000000000000000602082015250565b5f612b72602e836123a6565b9150612b7d82612b18565b604082019050919050565b5f6020820190508181035f830152612b9f81612b66565b9050919050565b7f45524331393637557067726164653a20756e737570706f727465642070726f785f8201527f6961626c65555549440000000000000000000000000000000000000000000000602082015250565b5f612c006029836123a6565b9150612c0b82612ba6565b604082019050919050565b5f6020820190508181035f830152612c2d81612bf4565b9050919050565b7f4f776e61626c653a2063616c6c6572206973206e6f7420746865206f776e65725f82015250565b5f612c686020836123a6565b9150612c7382612c34565b602082019050919050565b5f6020820190508181035f830152612c9581612c5c565b9050919050565b7f496e697469616c697a61626c653a20636f6e7472616374206973206e6f7420695f8201527f6e697469616c697a696e67000000000000000000000000000000000000000000602082015250565b5f612cf6602b836123a6565b9150612d0182612c9c565b604082019050919050565b5f6020820190508181035f830152612d2381612cea565b9050919050565b7f455243313936373a206e657720696d706c656d656e746174696f6e206973206e5f8201527f6f74206120636f6e747261637400000000000000000000000000000000000000602082015250565b5f612d84602d836123a6565b9150612d8f82612d2a565b604082019050919050565b5f6020820190508181035f830152612db181612d78565b9050919050565b5f81519050919050565b5f81905092915050565b8281835e5f83830152505050565b5f612de482612db8565b612dee8185612dc2565b9350612dfe818560208601612dcc565b80840191505092915050565b5f612e158284612dda565b915081905092915050565b7f416464726573733a2063616c6c20746f206e6f6e2d636f6e74726163740000005f82015250565b5f612e54601d836123a6565b9150612e5f82612e20565b602082019050919050565b5f6020820190508181035f830152612e8181612e48565b9050919050565b5f81519050919050565b5f612e9c82612e88565b612ea681856123a6565b9350612eb6818560208601612dcc565b612ebf81612032565b840191505092915050565b5f6020820190508181035f830152612ee28184612e92565b90509291505056fe416464726573733a206c6f772d6c6576656c2064656c65676174652063616c6c206661696c6564a264697066735822122089c0d4747b7f32cea102e01602c3e1339791795cd89bba9069d45f2dc5810ccf64736f6c634300081c0033","linkReferences":{}},"methodIdentifiers":{"addOperator(address)":"9870d7fe","addSubscriber(address)":"94555d1a","artistCount()":"be530482","artists(address)":"069dab8f","calculateReward(uint256)":"d2d7231f","initialize(address,address,address)":"c0c53b8b","operators(address)":"13e7c9d8","owner()":"8da5cb5b","phloteToken()":"fe297d55","phloteTreasury()":"fd0a755c","proxiableUUID()":"52d1902d","registerArtist(address)":"4cb33d5b","removeOperator(address)":"ac8a584a","removeSubscriber(address)":"627c34ad","renounceOwnership()":"715018a6","rewardArtist(address,uint256,uint256)":"46971918","subscriberCount()":"ef352bbe","subscribers(address)":"5745ae28","transferOwnership(address)":"f2fde38b","upgradeTo(address)":"3659cfe6","upgradeToAndCall(address,bytes)":"4f1ef286"},"id":53}