{"abi":[{"type":"constructor","inputs":[],"stateMutability":"nonpayable"},{"type":"receive","stateMutability":"payable"},{"type":"function","name":"claimReserveShare","inputs":[],"outputs":[],"stateMutability":"nonpayable"},{"type":"function","name":"distributionRatio","inputs":[],"outputs":[{"name":"","type":"uint256","internalType":"uint256"}],"stateMutability":"view"},{"type":"function","name":"governanceContract","inputs":[],"outputs":[{"name":"","type":"address","internalType":"address"}],"stateMutability":"view"},{"type":"function","name":"initialize","inputs":[{"name":"initialOwner","type":"address","internalType":"address"},{"name":"_phloteToken","type":"address","internalType":"address"}],"outputs":[],"stateMutability":"nonpayable"},{"type":"function","name":"lastClaimTimestamp","inputs":[{"name":"","type":"address","internalType":"address"}],"outputs":[{"name":"","type":"uint256","internalType":"uint256"}],"stateMutability":"view"},{"type":"function","name":"owner","inputs":[],"outputs":[{"name":"","type":"address","internalType":"address"}],"stateMutability":"view"},{"type":"function","name":"phloteToken","inputs":[],"outputs":[{"name":"","type":"address","internalType":"contract IERC20Upgradeable"}],"stateMutability":"view"},{"type":"function","name":"proxiableUUID","inputs":[],"outputs":[{"name":"","type":"bytes32","internalType":"bytes32"}],"stateMutability":"view"},{"type":"function","name":"receiveRevenue","inputs":[],"outputs":[],"stateMutability":"payable"},{"type":"function","name":"renounceOwnership","inputs":[],"outputs":[],"stateMutability":"nonpayable"},{"type":"function","name":"setDistributionRatio","inputs":[{"name":"_ratio","type":"uint256","internalType":"uint256"}],"outputs":[],"stateMutability":"nonpayable"},{"type":"function","name":"setGovernanceContract","inputs":[{"name":"_governanceContract","type":"address","internalType":"address"}],"outputs":[],"stateMutability":"nonpayable"},{"type":"function","name":"totalDistributed","inputs":[],"outputs":[{"name":"","type":"uint256","internalType":"uint256"}],"stateMutability":"view"},{"type":"function","name":"totalReserve","inputs":[],"outputs":[{"name":"","type":"uint256","internalType":"uint256"}],"stateMutability":"view"},{"type":"function","name":"transferOwnership","inputs":[{"name":"newOwner","type":"address","internalType":"address"}],"outputs":[],"stateMutability":"nonpayable"},{"type":"function","name":"upgradeTo","inputs":[{"name":"newImplementation","type":"address","internalType":"address"}],"outputs":[],"stateMutability":"nonpayable"},{"type":"function","name":"upgradeToAndCall","inputs":[{"name":"newImplementation","type":"address","internalType":"address"},{"name":"data","type":"bytes","internalType":"bytes"}],"outputs":[],"stateMutability":"payable"},{"type":"function","name":"withdrawForArtistReward","inputs":[{"name":"amount","type":"uint256","internalType":"uint256"},{"name":"recipient","type":"address","internalType":"address"}],"outputs":[],"stateMutability":"nonpayable"},{"type":"event","name":"AdminChanged","inputs":[{"name":"previousAdmin","type":"address","indexed":false,"internalType":"address"},{"name":"newAdmin","type":"address","indexed":false,"internalType":"address"}],"anonymous":false},{"type":"event","name":"BeaconUpgraded","inputs":[{"name":"beacon","type":"address","indexed":true,"internalType":"address"}],"anonymous":false},{"type":"event","name":"DistributionRatioUpdated","inputs":[{"name":"newRatio","type":"uint256","indexed":false,"internalType":"uint256"}],"anonymous":false},{"type":"event","name":"GovernanceContractUpdated","inputs":[{"name":"newContract","type":"address","indexed":true,"internalType":"address"}],"anonymous":false},{"type":"event","name":"Initialized","inputs":[{"name":"version","type":"uint8","indexed":false,"internalType":"uint8"}],"anonymous":false},{"type":"event","name":"OwnershipTransferred","inputs":[{"name":"previousOwner","type":"address","indexed":true,"internalType":"address"},{"name":"newOwner","type":"address","indexed":true,"internalType":"address"}],"anonymous":false},{"type":"event","name":"ReserveClaimed","inputs":[{"name":"to","type":"address","indexed":true,"internalType":"address"},{"name":"amount","type":"uint256","indexed":false,"internalType":"uint256"}],"anonymous":false},{"type":"event","name":"RevenueReceived","inputs":[{"name":"from","type":"address","indexed":true,"internalType":"address"},{"name":"amount","type":"uint256","indexed":false,"internalType":"uint256"}],"anonymous":false},{"type":"event","name":"Upgraded","inputs":[{"name":"implementation","type":"address","indexed":true,"internalType":"address"}],"anonymous":false}],"bytecode":{"object":"0x60a06040523073ffffffffffffffffffffffffffffffffffffffff1660809073ffffffffffffffffffffffffffffffffffffffff1681525061138860cd55348015610048575f5ffd5b5061005761005c60201b60201c565b6101ec565b5f60019054906101000a900460ff16156100ab576040517f08c379a00000000000000000000000000000000000000000000000000000000081526004016100a29061019a565b60405180910390fd5b60ff80165f5f9054906101000a900460ff1660ff16146101185760ff5f5f6101000a81548160ff021916908360ff1602179055507f7f26b83ff96e1f2b6a682f133852f6798a09c465da95921460cefb384740249860ff60405161010f91906101d3565b60405180910390a15b565b5f82825260208201905092915050565b7f496e697469616c697a61626c653a20636f6e747261637420697320696e6974695f8201527f616c697a696e6700000000000000000000000000000000000000000000000000602082015250565b5f61018460278361011a565b915061018f8261012a565b604082019050919050565b5f6020820190508181035f8301526101b181610178565b9050919050565b5f60ff82169050919050565b6101cd816101b8565b82525050565b5f6020820190506101e65f8301846101c4565b92915050565b6080516128cd6102205f395f8181610545015281816105d301528181610d0301528181610d910152610e4001526128cd5ff3fe60806040526004361061010c575f3560e01c806352d1902d11610094578063bd9d518b11610063578063bd9d518b14610341578063dac4e0081461037d578063efca2eed146103a5578063f2fde38b146103cf578063fe297d55146103f757610179565b806352d1902d146102ad578063715018a6146102d75780638da5cb5b146102ed578063b172b2221461031757610179565b80633cf17910116100db5780633cf179101461021f57806344e8225014610235578063485cc9551461023f5780634c68df67146102675780634f1ef2861461029157610179565b80630e53c3341461017d5780631129753f146101a5578063193a14d6146101cd5780633659cfe6146101f757610179565b36610179573460cb5f8282546101229190611939565b925050819055503373ffffffffffffffffffffffffffffffffffffffff167f10221063d064b7f08df50a7b688426682343e6067582ebc0802467b91b9ac7413460405161016f919061197b565b60405180910390a2005b5f5ffd5b348015610188575f5ffd5b506101a3600480360381019061019e91906119cf565b610421565b005b3480156101b0575f5ffd5b506101cb60048036038101906101c69190611a54565b6104af565b005b3480156101d8575f5ffd5b506101e161053d565b6040516101ee919061197b565b60405180910390f35b348015610202575f5ffd5b5061021d60048036038101906102189190611a54565b610543565b005b34801561022a575f5ffd5b506102336106c9565b005b61023d610b06565b005b34801561024a575f5ffd5b5061026560048036038101906102609190611a7f565b610b6e565b005b348015610272575f5ffd5b5061027b610cfb565b604051610288919061197b565b60405180910390f35b6102ab60048036038101906102a69190611bf9565b610d01565b005b3480156102b8575f5ffd5b506102c1610e3d565b6040516102ce9190611c6b565b60405180910390f35b3480156102e2575f5ffd5b506102eb610ef4565b005b3480156102f8575f5ffd5b50610301610f07565b60405161030e9190611c93565b60405180910390f35b348015610322575f5ffd5b5061032b610f2f565b6040516103389190611c93565b60405180910390f35b34801561034c575f5ffd5b5061036760048036038101906103629190611a54565b610f54565b604051610374919061197b565b60405180910390f35b348015610388575f5ffd5b506103a3600480360381019061039e9190611cac565b610f69565b005b3480156103b0575f5ffd5b506103b9611168565b6040516103c6919061197b565b60405180910390f35b3480156103da575f5ffd5b506103f560048036038101906103f09190611a54565b61116e565b005b348015610402575f5ffd5b5061040b6111f0565b6040516104189190611d45565b60405180910390f35b610429611215565b61271081111561046e576040517f08c379a000000000000000000000000000000000000000000000000000000000815260040161046590611db8565b60405180910390fd5b8060cd819055507f2654d799b66b699ec134ffbc0347b4da831defa83bd660ee4a743aa7c24fa1bf816040516104a4919061197b565b60405180910390a150565b6104b7611215565b8060ca5f6101000a81548173ffffffffffffffffffffffffffffffffffffffff021916908373ffffffffffffffffffffffffffffffffffffffff1602179055508073ffffffffffffffffffffffffffffffffffffffff167fe3cf2b71b55b62fc1a6c7b2f6ff944c1b70048908cff22f2e08d1144e7ca7edb60405160405180910390a250565b60cd5481565b7f000000000000000000000000000000000000000000000000000000000000000073ffffffffffffffffffffffffffffffffffffffff163073ffffffffffffffffffffffffffffffffffffffff16036105d1576040517f08c379a00000000000000000000000000000000000000000000000000000000081526004016105c890611e46565b60405180910390fd5b7f000000000000000000000000000000000000000000000000000000000000000073ffffffffffffffffffffffffffffffffffffffff16610610611293565b73ffffffffffffffffffffffffffffffffffffffff1614610666576040517f08c379a000000000000000000000000000000000000000000000000000000000815260040161065d90611ed4565b60405180910390fd5b61066f816112e6565b6106c6815f67ffffffffffffffff81111561068d5761068c611ad5565b5b6040519080825280601f01601f1916602001820160405280156106bf5781602001600182028036833780820191505090505b505f6112f1565b50565b5f60c95f9054906101000a900473ffffffffffffffffffffffffffffffffffffffff1673ffffffffffffffffffffffffffffffffffffffff166370a08231336040518263ffffffff1660e01b81526004016107249190611c93565b602060405180830381865afa15801561073f573d5f5f3e3d5ffd5b505050506040513d601f19601f820116820180604052508101906107639190611f06565b116107a3576040517f08c379a000000000000000000000000000000000000000000000000000000000815260040161079a90611f7b565b60405180910390fd5b5f60c95f9054906101000a900473ffffffffffffffffffffffffffffffffffffffff1673ffffffffffffffffffffffffffffffffffffffff166318160ddd6040518163ffffffff1660e01b8152600401602060405180830381865afa15801561080e573d5f5f3e3d5ffd5b505050506040513d601f19601f820116820180604052508101906108329190611f06565b90505f60c95f9054906101000a900473ffffffffffffffffffffffffffffffffffffffff1673ffffffffffffffffffffffffffffffffffffffff166370a08231336040518263ffffffff1660e01b815260040161088f9190611c93565b602060405180830381865afa1580156108aa573d5f5f3e3d5ffd5b505050506040513d601f19601f820116820180604052508101906108ce9190611f06565b90505f61271060cd5460cb546108e49190611f99565b6108ee9190612007565b90505f8383836108fe9190611f99565b6109089190612007565b905062278d0060ce5f3373ffffffffffffffffffffffffffffffffffffffff1673ffffffffffffffffffffffffffffffffffffffff1681526020019081526020015f20546109569190611939565b4211610997576040517f08c379a000000000000000000000000000000000000000000000000000000000815260040161098e90612081565b60405180910390fd5b4260ce5f3373ffffffffffffffffffffffffffffffffffffffff1673ffffffffffffffffffffffffffffffffffffffff1681526020019081526020015f20819055508060cc5f8282546109ea9190611939565b925050819055508060cb5f828254610a02919061209f565b925050819055505f3373ffffffffffffffffffffffffffffffffffffffff1682604051610a2e906120ff565b5f6040518083038185875af1925050503d805f8114610a68576040519150601f19603f3d011682016040523d82523d5f602084013e610a6d565b606091505b5050905080610ab1576040517f08c379a0000000000000000000000000000000000000000000000000000000008152600401610aa89061215d565b60405180910390fd5b3373ffffffffffffffffffffffffffffffffffffffff167fb17956903b0eeaf0b3d7594ff05a22faab59523d7c39363c95ca9dab6b249da483604051610af7919061197b565b60405180910390a25050505050565b3460cb5f828254610b179190611939565b925050819055503373ffffffffffffffffffffffffffffffffffffffff167f10221063d064b7f08df50a7b688426682343e6067582ebc0802467b91b9ac74134604051610b64919061197b565b60405180910390a2565b5f5f60019054906101000a900460ff16159050808015610b9e575060015f5f9054906101000a900460ff1660ff16105b80610bcb5750610bad3061145b565b158015610bca575060015f5f9054906101000a900460ff1660ff16145b5b610c0a576040517f08c379a0000000000000000000000000000000000000000000000000000000008152600401610c01906121eb565b60405180910390fd5b60015f5f6101000a81548160ff021916908360ff1602179055508015610c455760015f60016101000a81548160ff0219169083151502179055505b610c4d61147d565b610c56836114d5565b610c5e611598565b8160c95f6101000a81548173ffffffffffffffffffffffffffffffffffffffff021916908373ffffffffffffffffffffffffffffffffffffffff1602179055508015610cf6575f5f60016101000a81548160ff0219169083151502179055507f7f26b83ff96e1f2b6a682f133852f6798a09c465da95921460cefb38474024986001604051610ced919061224e565b60405180910390a15b505050565b60cb5481565b7f000000000000000000000000000000000000000000000000000000000000000073ffffffffffffffffffffffffffffffffffffffff163073ffffffffffffffffffffffffffffffffffffffff1603610d8f576040517f08c379a0000000000000000000000000000000000000000000000000000000008152600401610d8690611e46565b60405180910390fd5b7f000000000000000000000000000000000000000000000000000000000000000073ffffffffffffffffffffffffffffffffffffffff16610dce611293565b73ffffffffffffffffffffffffffffffffffffffff1614610e24576040517f08c379a0000000000000000000000000000000000000000000000000000000008152600401610e1b90611ed4565b60405180910390fd5b610e2d826112e6565b610e39828260016112f1565b5050565b5f7f000000000000000000000000000000000000000000000000000000000000000073ffffffffffffffffffffffffffffffffffffffff163073ffffffffffffffffffffffffffffffffffffffff1614610ecc576040517f08c379a0000000000000000000000000000000000000000000000000000000008152600401610ec3906122d7565b60405180910390fd5b7f360894a13ba1a3210667c828492db98dca3e2076cc3735a920a3ca505d382bbc5f1b905090565b610efc611215565b610f055f6114d5565b565b5f60335f9054906101000a900473ffffffffffffffffffffffffffffffffffffffff16905090565b60ca5f9054906101000a900473ffffffffffffffffffffffffffffffffffffffff1681565b60ce602052805f5260405f205f915090505481565b60ca5f9054906101000a900473ffffffffffffffffffffffffffffffffffffffff1673ffffffffffffffffffffffffffffffffffffffff163373ffffffffffffffffffffffffffffffffffffffff1614610ff8576040517f08c379a0000000000000000000000000000000000000000000000000000000008152600401610fef9061233f565b60405180910390fd5b60cb5482111561103d576040517f08c379a0000000000000000000000000000000000000000000000000000000008152600401611034906123a7565b60405180910390fd5b8160cb5f82825461104e919061209f565b925050819055508160cc5f8282546110669190611939565b925050819055505f8173ffffffffffffffffffffffffffffffffffffffff1683604051611092906120ff565b5f6040518083038185875af1925050503d805f81146110cc576040519150601f19603f3d011682016040523d82523d5f602084013e6110d1565b606091505b5050905080611115576040517f08c379a000000000000000000000000000000000000000000000000000000000815260040161110c9061215d565b60405180910390fd5b8173ffffffffffffffffffffffffffffffffffffffff167fb17956903b0eeaf0b3d7594ff05a22faab59523d7c39363c95ca9dab6b249da48460405161115b919061197b565b60405180910390a2505050565b60cc5481565b611176611215565b5f73ffffffffffffffffffffffffffffffffffffffff168173ffffffffffffffffffffffffffffffffffffffff16036111e4576040517f08c379a00000000000000000000000000000000000000000000000000000000081526004016111db90612435565b60405180910390fd5b6111ed816114d5565b50565b60c95f9054906101000a900473ffffffffffffffffffffffffffffffffffffffff1681565b61121d6115e8565b73ffffffffffffffffffffffffffffffffffffffff1661123b610f07565b73ffffffffffffffffffffffffffffffffffffffff1614611291576040517f08c379a00000000000000000000000000000000000000000000000000000000081526004016112889061249d565b60405180910390fd5b565b5f6112bf7f360894a13ba1a3210667c828492db98dca3e2076cc3735a920a3ca505d382bbc5f1b6115ef565b5f015f9054906101000a900473ffffffffffffffffffffffffffffffffffffffff16905090565b6112ee611215565b50565b61131c7f4910fdfa16fed3260ed0e7147f7cc6da11a60208b5b9406d12a635614ffd91435f1b6115f8565b5f015f9054906101000a900460ff161561133e5761133983611601565b611456565b8273ffffffffffffffffffffffffffffffffffffffff166352d1902d6040518163ffffffff1660e01b8152600401602060405180830381865afa9250505080156113a657506040513d601f19601f820116820180604052508101906113a391906124e5565b60015b6113e5576040517f08c379a00000000000000000000000000000000000000000000000000000000081526004016113dc90612580565b60405180910390fd5b7f360894a13ba1a3210667c828492db98dca3e2076cc3735a920a3ca505d382bbc5f1b8114611449576040517f08c379a00000000000000000000000000000000000000000000000000000000081526004016114409061260e565b60405180910390fd5b506114558383836116b7565b5b505050565b5f5f8273ffffffffffffffffffffffffffffffffffffffff163b119050919050565b5f60019054906101000a900460ff166114cb576040517f08c379a00000000000000000000000000000000000000000000000000000000081526004016114c29061269c565b60405180910390fd5b6114d36116e2565b565b5f60335f9054906101000a900473ffffffffffffffffffffffffffffffffffffffff1690508160335f6101000a81548173ffffffffffffffffffffffffffffffffffffffff021916908373ffffffffffffffffffffffffffffffffffffffff1602179055508173ffffffffffffffffffffffffffffffffffffffff168173ffffffffffffffffffffffffffffffffffffffff167f8be0079c531659141344cd1fd0a4f28419497f9722a3daafe3b4186f6b6457e060405160405180910390a35050565b5f60019054906101000a900460ff166115e6576040517f08c379a00000000000000000000000000000000000000000000000000000000081526004016115dd9061269c565b60405180910390fd5b565b5f33905090565b5f819050919050565b5f819050919050565b61160a8161145b565b611649576040517f08c379a00000000000000000000000000000000000000000000000000000000081526004016116409061272a565b60405180910390fd5b806116757f360894a13ba1a3210667c828492db98dca3e2076cc3735a920a3ca505d382bbc5f1b6115ef565b5f015f6101000a81548173ffffffffffffffffffffffffffffffffffffffff021916908373ffffffffffffffffffffffffffffffffffffffff16021790555050565b6116c083611742565b5f825111806116cc5750805b156116dd576116db8383611791565b505b505050565b5f60019054906101000a900460ff16611730576040517f08c379a00000000000000000000000000000000000000000000000000000000081526004016117279061269c565b60405180910390fd5b61174061173b6115e8565b6114d5565b565b61174b81611601565b8073ffffffffffffffffffffffffffffffffffffffff167fbc7cd75a20ee27fd9adebab32041f755214dbc6bffa90cc0225b39da2e5c2d3b60405160405180910390a250565b60606117b68383604051806060016040528060278152602001612871602791396117be565b905092915050565b60605f5f8573ffffffffffffffffffffffffffffffffffffffff16856040516117e79190612790565b5f60405180830381855af49150503d805f811461181f576040519150601f19603f3d011682016040523d82523d5f602084013e611824565b606091505b509150915061183586838387611840565b925050509392505050565b606083156118a1575f835103611899576118598561145b565b611898576040517f08c379a000000000000000000000000000000000000000000000000000000000815260040161188f906127f0565b60405180910390fd5b5b8290506118ac565b6118ab83836118b4565b5b949350505050565b5f825111156118c65781518083602001fd5b806040517f08c379a00000000000000000000000000000000000000000000000000000000081526004016118fa9190612850565b60405180910390fd5b5f819050919050565b7f4e487b71000000000000000000000000000000000000000000000000000000005f52601160045260245ffd5b5f61194382611903565b915061194e83611903565b92508282019050808211156119665761196561190c565b5b92915050565b61197581611903565b82525050565b5f60208201905061198e5f83018461196c565b92915050565b5f604051905090565b5f5ffd5b5f5ffd5b6119ae81611903565b81146119b8575f5ffd5b50565b5f813590506119c9816119a5565b92915050565b5f602082840312156119e4576119e361199d565b5b5f6119f1848285016119bb565b91505092915050565b5f73ffffffffffffffffffffffffffffffffffffffff82169050919050565b5f611a23826119fa565b9050919050565b611a3381611a19565b8114611a3d575f5ffd5b50565b5f81359050611a4e81611a2a565b92915050565b5f60208284031215611a6957611a6861199d565b5b5f611a7684828501611a40565b91505092915050565b5f5f60408385031215611a9557611a9461199d565b5b5f611aa285828601611a40565b9250506020611ab385828601611a40565b9150509250929050565b5f5ffd5b5f5ffd5b5f601f19601f8301169050919050565b7f4e487b71000000000000000000000000000000000000000000000000000000005f52604160045260245ffd5b611b0b82611ac5565b810181811067ffffffffffffffff82111715611b2a57611b29611ad5565b5b80604052505050565b5f611b3c611994565b9050611b488282611b02565b919050565b5f67ffffffffffffffff821115611b6757611b66611ad5565b5b611b7082611ac5565b9050602081019050919050565b828183375f83830152505050565b5f611b9d611b9884611b4d565b611b33565b905082815260208101848484011115611bb957611bb8611ac1565b5b611bc4848285611b7d565b509392505050565b5f82601f830112611be057611bdf611abd565b5b8135611bf0848260208601611b8b565b91505092915050565b5f5f60408385031215611c0f57611c0e61199d565b5b5f611c1c85828601611a40565b925050602083013567ffffffffffffffff811115611c3d57611c3c6119a1565b5b611c4985828601611bcc565b9150509250929050565b5f819050919050565b611c6581611c53565b82525050565b5f602082019050611c7e5f830184611c5c565b92915050565b611c8d81611a19565b82525050565b5f602082019050611ca65f830184611c84565b92915050565b5f5f60408385031215611cc257611cc161199d565b5b5f611ccf858286016119bb565b9250506020611ce085828601611a40565b9150509250929050565b5f819050919050565b5f611d0d611d08611d03846119fa565b611cea565b6119fa565b9050919050565b5f611d1e82611cf3565b9050919050565b5f611d2f82611d14565b9050919050565b611d3f81611d25565b82525050565b5f602082019050611d585f830184611d36565b92915050565b5f82825260208201905092915050565b7f526174696f206d757374206265203c3d203130303030000000000000000000005f82015250565b5f611da2601683611d5e565b9150611dad82611d6e565b602082019050919050565b5f6020820190508181035f830152611dcf81611d96565b9050919050565b7f46756e6374696f6e206d7573742062652063616c6c6564207468726f756768205f8201527f64656c656761746563616c6c0000000000000000000000000000000000000000602082015250565b5f611e30602c83611d5e565b9150611e3b82611dd6565b604082019050919050565b5f6020820190508181035f830152611e5d81611e24565b9050919050565b7f46756e6374696f6e206d7573742062652063616c6c6564207468726f756768205f8201527f6163746976652070726f78790000000000000000000000000000000000000000602082015250565b5f611ebe602c83611d5e565b9150611ec982611e64565b604082019050919050565b5f6020820190508181035f830152611eeb81611eb2565b9050919050565b5f81519050611f00816119a5565b92915050565b5f60208284031215611f1b57611f1a61199d565b5b5f611f2884828501611ef2565b91505092915050565b7f4e6f20506f696e74732062616c616e63650000000000000000000000000000005f82015250565b5f611f65601183611d5e565b9150611f7082611f31565b602082019050919050565b5f6020820190508181035f830152611f9281611f59565b9050919050565b5f611fa382611903565b9150611fae83611903565b9250828202611fbc81611903565b91508282048414831517611fd357611fd261190c565b5b5092915050565b7f4e487b71000000000000000000000000000000000000000000000000000000005f52601260045260245ffd5b5f61201182611903565b915061201c83611903565b92508261202c5761202b611fda565b5b828204905092915050565b7f43616e20636c61696d206f6e636520706572206d6f6e746800000000000000005f82015250565b5f61206b601883611d5e565b915061207682612037565b602082019050919050565b5f6020820190508181035f8301526120988161205f565b9050919050565b5f6120a982611903565b91506120b483611903565b92508282039050818111156120cc576120cb61190c565b5b92915050565b5f81905092915050565b50565b5f6120ea5f836120d2565b91506120f5826120dc565b5f82019050919050565b5f612109826120df565b9150819050919050565b7f5472616e73666572206661696c656400000000000000000000000000000000005f82015250565b5f612147600f83611d5e565b915061215282612113565b602082019050919050565b5f6020820190508181035f8301526121748161213b565b9050919050565b7f496e697469616c697a61626c653a20636f6e747261637420697320616c7265615f8201527f647920696e697469616c697a6564000000000000000000000000000000000000602082015250565b5f6121d5602e83611d5e565b91506121e08261217b565b604082019050919050565b5f6020820190508181035f830152612202816121c9565b9050919050565b5f819050919050565b5f60ff82169050919050565b5f61223861223361222e84612209565b611cea565b612212565b9050919050565b6122488161221e565b82525050565b5f6020820190506122615f83018461223f565b92915050565b7f555550535570677261646561626c653a206d757374206e6f742062652063616c5f8201527f6c6564207468726f7567682064656c656761746563616c6c0000000000000000602082015250565b5f6122c1603883611d5e565b91506122cc82612267565b604082019050919050565b5f6020820190508181035f8301526122ee816122b5565b9050919050565b7f4f6e6c7920676f7665726e616e636500000000000000000000000000000000005f82015250565b5f612329600f83611d5e565b9150612334826122f5565b602082019050919050565b5f6020820190508181035f8301526123568161231d565b9050919050565b7f496e73756666696369656e7420726573657276650000000000000000000000005f82015250565b5f612391601483611d5e565b915061239c8261235d565b602082019050919050565b5f6020820190508181035f8301526123be81612385565b9050919050565b7f4f776e61626c653a206e6577206f776e657220697320746865207a65726f20615f8201527f6464726573730000000000000000000000000000000000000000000000000000602082015250565b5f61241f602683611d5e565b915061242a826123c5565b604082019050919050565b5f6020820190508181035f83015261244c81612413565b9050919050565b7f4f776e61626c653a2063616c6c6572206973206e6f7420746865206f776e65725f82015250565b5f612487602083611d5e565b915061249282612453565b602082019050919050565b5f6020820190508181035f8301526124b48161247b565b9050919050565b6124c481611c53565b81146124ce575f5ffd5b50565b5f815190506124df816124bb565b92915050565b5f602082840312156124fa576124f961199d565b5b5f612507848285016124d1565b91505092915050565b7f45524331393637557067726164653a206e657720696d706c656d656e746174695f8201527f6f6e206973206e6f742055555053000000000000000000000000000000000000602082015250565b5f61256a602e83611d5e565b915061257582612510565b604082019050919050565b5f6020820190508181035f8301526125978161255e565b9050919050565b7f45524331393637557067726164653a20756e737570706f727465642070726f785f8201527f6961626c65555549440000000000000000000000000000000000000000000000602082015250565b5f6125f8602983611d5e565b91506126038261259e565b604082019050919050565b5f6020820190508181035f830152612625816125ec565b9050919050565b7f496e697469616c697a61626c653a20636f6e7472616374206973206e6f7420695f8201527f6e697469616c697a696e67000000000000000000000000000000000000000000602082015250565b5f612686602b83611d5e565b91506126918261262c565b604082019050919050565b5f6020820190508181035f8301526126b38161267a565b9050919050565b7f455243313936373a206e657720696d706c656d656e746174696f6e206973206e5f8201527f6f74206120636f6e747261637400000000000000000000000000000000000000602082015250565b5f612714602d83611d5e565b915061271f826126ba565b604082019050919050565b5f6020820190508181035f83015261274181612708565b9050919050565b5f81519050919050565b8281835e5f83830152505050565b5f61276a82612748565b61277481856120d2565b9350612784818560208601612752565b80840191505092915050565b5f61279b8284612760565b915081905092915050565b7f416464726573733a2063616c6c20746f206e6f6e2d636f6e74726163740000005f82015250565b5f6127da601d83611d5e565b91506127e5826127a6565b602082019050919050565b5f6020820190508181035f830152612807816127ce565b9050919050565b5f81519050919050565b5f6128228261280e565b61282c8185611d5e565b935061283c818560208601612752565b61284581611ac5565b840191505092915050565b5f6020820190508181035f8301526128688184612818565b90509291505056fe416464726573733a206c6f772d6c6576656c2064656c65676174652063616c6c206661696c6564a26469706673582212208e2079eb9d0617c6cb74aea1cf2d6d8b131a0e5e47b899df0db6bea93ea2419864736f6c634300081c0033","linkReferences":{}},"methodIdentifiers":{"claimReserveShare()":"3cf17910","distributionRatio()":"193a14d6","governanceContract()":"b172b222","initialize(address,address)":"485cc955","lastClaimTimestamp(address)":"bd9d518b","owner()":"8da5cb5b","phloteToken()":"fe297d55","proxiableUUID()":"52d1902d","receiveRevenue()":"44e82250","renounceOwnership()":"715018a6","setDistributionRatio(uint256)":"0e53c334","setGovernanceContract(address)":"1129753f","totalDistributed()":"efca2eed","totalReserve()":"4c68df67","transferOwnership(address)":"f2fde38b","upgradeTo(address)":"3659cfe6","upgradeToAndCall(address,bytes)":"4f1ef286","withdrawForArtistReward(uint256,address)":"dac4e008"},"id":55}