{"abi":[{"type":"constructor","inputs":[],"stateMutability":"nonpayable"},{"type":"function","name":"DOMAIN_SEPARATOR","inputs":[],"outputs":[{"name":"","type":"bytes32","internalType":"bytes32"}],"stateMutability":"view"},{"type":"function","name":"addMinter","inputs":[{"name":"minter","type":"address","internalType":"address"}],"outputs":[],"stateMutability":"nonpayable"},{"type":"function","name":"allowance","inputs":[{"name":"owner","type":"address","internalType":"address"},{"name":"spender","type":"address","internalType":"address"}],"outputs":[{"name":"","type":"uint256","internalType":"uint256"}],"stateMutability":"view"},{"type":"function","name":"approve","inputs":[{"name":"spender","type":"address","internalType":"address"},{"name":"amount","type":"uint256","internalType":"uint256"}],"outputs":[{"name":"","type":"bool","internalType":"bool"}],"stateMutability":"nonpayable"},{"type":"function","name":"balanceOf","inputs":[{"name":"account","type":"address","internalType":"address"}],"outputs":[{"name":"","type":"uint256","internalType":"uint256"}],"stateMutability":"view"},{"type":"function","name":"burn","inputs":[{"name":"amount","type":"uint256","internalType":"uint256"}],"outputs":[],"stateMutability":"nonpayable"},{"type":"function","name":"burnFrom","inputs":[{"name":"account","type":"address","internalType":"address"},{"name":"amount","type":"uint256","internalType":"uint256"}],"outputs":[],"stateMutability":"nonpayable"},{"type":"function","name":"decimals","inputs":[],"outputs":[{"name":"","type":"uint8","internalType":"uint8"}],"stateMutability":"view"},{"type":"function","name":"decreaseAllowance","inputs":[{"name":"spender","type":"address","internalType":"address"},{"name":"subtractedValue","type":"uint256","internalType":"uint256"}],"outputs":[{"name":"","type":"bool","internalType":"bool"}],"stateMutability":"nonpayable"},{"type":"function","name":"eip712Domain","inputs":[],"outputs":[{"name":"fields","type":"bytes1","internalType":"bytes1"},{"name":"name","type":"string","internalType":"string"},{"name":"version","type":"string","internalType":"string"},{"name":"chainId","type":"uint256","internalType":"uint256"},{"name":"verifyingContract","type":"address","internalType":"address"},{"name":"salt","type":"bytes32","internalType":"bytes32"},{"name":"extensions","type":"uint256[]","internalType":"uint256[]"}],"stateMutability":"view"},{"type":"function","name":"increaseAllowance","inputs":[{"name":"spender","type":"address","internalType":"address"},{"name":"addedValue","type":"uint256","internalType":"uint256"}],"outputs":[{"name":"","type":"bool","internalType":"bool"}],"stateMutability":"nonpayable"},{"type":"function","name":"initialize","inputs":[{"name":"initialOwner","type":"address","internalType":"address"}],"outputs":[],"stateMutability":"nonpayable"},{"type":"function","name":"mint","inputs":[{"name":"to","type":"address","internalType":"address"},{"name":"amount","type":"uint256","internalType":"uint256"}],"outputs":[],"stateMutability":"nonpayable"},{"type":"function","name":"minters","inputs":[{"name":"","type":"address","internalType":"address"}],"outputs":[{"name":"","type":"bool","internalType":"bool"}],"stateMutability":"view"},{"type":"function","name":"name","inputs":[],"outputs":[{"name":"","type":"string","internalType":"string"}],"stateMutability":"view"},{"type":"function","name":"nonces","inputs":[{"name":"owner","type":"address","internalType":"address"}],"outputs":[{"name":"","type":"uint256","internalType":"uint256"}],"stateMutability":"view"},{"type":"function","name":"owner","inputs":[],"outputs":[{"name":"","type":"address","internalType":"address"}],"stateMutability":"view"},{"type":"function","name":"permit","inputs":[{"name":"owner","type":"address","internalType":"address"},{"name":"spender","type":"address","internalType":"address"},{"name":"value","type":"uint256","internalType":"uint256"},{"name":"deadline","type":"uint256","internalType":"uint256"},{"name":"v","type":"uint8","internalType":"uint8"},{"name":"r","type":"bytes32","internalType":"bytes32"},{"name":"s","type":"bytes32","internalType":"bytes32"}],"outputs":[],"stateMutability":"nonpayable"},{"type":"function","name":"proxiableUUID","inputs":[],"outputs":[{"name":"","type":"bytes32","internalType":"bytes32"}],"stateMutability":"view"},{"type":"function","name":"removeMinter","inputs":[{"name":"minter","type":"address","internalType":"address"}],"outputs":[],"stateMutability":"nonpayable"},{"type":"function","name":"renounceOwnership","inputs":[],"outputs":[],"stateMutability":"nonpayable"},{"type":"function","name":"symbol","inputs":[],"outputs":[{"name":"","type":"string","internalType":"string"}],"stateMutability":"view"},{"type":"function","name":"totalSupply","inputs":[],"outputs":[{"name":"","type":"uint256","internalType":"uint256"}],"stateMutability":"view"},{"type":"function","name":"transfer","inputs":[{"name":"to","type":"address","internalType":"address"},{"name":"amount","type":"uint256","internalType":"uint256"}],"outputs":[{"name":"","type":"bool","internalType":"bool"}],"stateMutability":"nonpayable"},{"type":"function","name":"transferFrom","inputs":[{"name":"from","type":"address","internalType":"address"},{"name":"to","type":"address","internalType":"address"},{"name":"amount","type":"uint256","internalType":"uint256"}],"outputs":[{"name":"","type":"bool","internalType":"bool"}],"stateMutability":"nonpayable"},{"type":"function","name":"transferOwnership","inputs":[{"name":"newOwner","type":"address","internalType":"address"}],"outputs":[],"stateMutability":"nonpayable"},{"type":"function","name":"upgradeTo","inputs":[{"name":"newImplementation","type":"address","internalType":"address"}],"outputs":[],"stateMutability":"nonpayable"},{"type":"function","name":"upgradeToAndCall","inputs":[{"name":"newImplementation","type":"address","internalType":"address"},{"name":"data","type":"bytes","internalType":"bytes"}],"outputs":[],"stateMutability":"payable"},{"type":"event","name":"AdminChanged","inputs":[{"name":"previousAdmin","type":"address","indexed":false,"internalType":"address"},{"name":"newAdmin","type":"address","indexed":false,"internalType":"address"}],"anonymous":false},{"type":"event","name":"Approval","inputs":[{"name":"owner","type":"address","indexed":true,"internalType":"address"},{"name":"spender","type":"address","indexed":true,"internalType":"address"},{"name":"value","type":"uint256","indexed":false,"internalType":"uint256"}],"anonymous":false},{"type":"event","name":"BeaconUpgraded","inputs":[{"name":"beacon","type":"address","indexed":true,"internalType":"address"}],"anonymous":false},{"type":"event","name":"EIP712DomainChanged","inputs":[],"anonymous":false},{"type":"event","name":"Initialized","inputs":[{"name":"version","type":"uint8","indexed":false,"internalType":"uint8"}],"anonymous":false},{"type":"event","name":"MinterAdded","inputs":[{"name":"minter","type":"address","indexed":true,"internalType":"address"}],"anonymous":false},{"type":"event","name":"MinterRemoved","inputs":[{"name":"minter","type":"address","indexed":true,"internalType":"address"}],"anonymous":false},{"type":"event","name":"OwnershipTransferred","inputs":[{"name":"previousOwner","type":"address","indexed":true,"internalType":"address"},{"name":"newOwner","type":"address","indexed":true,"internalType":"address"}],"anonymous":false},{"type":"event","name":"Transfer","inputs":[{"name":"from","type":"address","indexed":true,"internalType":"address"},{"name":"to","type":"address","indexed":true,"internalType":"address"},{"name":"value","type":"uint256","indexed":false,"internalType":"uint256"}],"anonymous":false},{"type":"event","name":"Upgraded","inputs":[{"name":"implementation","type":"address","indexed":true,"internalType":"address"}],"anonymous":false}],"bytecode":{"object":"0x60a06040523073ffffffffffffffffffffffffffffffffffffffff1660809073ffffffffffffffffffffffffffffffffffffffff16815250348015610042575f5ffd5b5061005161005660201b60201c565b6101e6565b5f60019054906101000a900460ff16156100a5576040517f08c379a000000000000000000000000000000000000000000000000000000000815260040161009c90610194565b60405180910390fd5b60ff80165f5f9054906101000a900460ff1660ff16146101125760ff5f5f6101000a81548160ff021916908360ff1602179055507f7f26b83ff96e1f2b6a682f133852f6798a09c465da95921460cefb384740249860ff60405161010991906101cd565b60405180910390a15b565b5f82825260208201905092915050565b7f496e697469616c697a61626c653a20636f6e747261637420697320696e6974695f8201527f616c697a696e6700000000000000000000000000000000000000000000000000602082015250565b5f61017e602783610114565b915061018982610124565b604082019050919050565b5f6020820190508181035f8301526101ab81610172565b9050919050565b5f60ff82169050919050565b6101c7816101b2565b82525050565b5f6020820190506101e05f8301846101be565b92915050565b60805161463f61021a5f395f818161086a015281816108f801528181610ad201528181610b600152610c0f015261463f5ff3fe6080604052600436106101b6575f3560e01c8063715018a6116100eb578063a457c2d711610089578063d505accf11610063578063d505accf146105fe578063dd62ed3e14610626578063f2fde38b14610662578063f46eccc41461068a576101b6565b8063a457c2d71461055e578063a9059cbb1461059a578063c4d66de8146105d6576101b6565b806384b0196e116100c557806384b0196e146104b25780638da5cb5b146104e257806395d89b411461050c578063983b2d5614610536576101b6565b8063715018a61461043857806379cc67901461044e5780637ecebe0014610476576101b6565b80633659cfe61161015857806342966c681161013257806342966c681461038e5780634f1ef286146103b657806352d1902d146103d257806370a08231146103fc576101b6565b80633659cfe614610302578063395093511461032a57806340c10f1914610366576101b6565b806323b872dd1161019457806323b872dd1461024a5780633092afd514610286578063313ce567146102ae5780633644e515146102d8576101b6565b806306fdde03146101ba578063095ea7b3146101e457806318160ddd14610220575b5f5ffd5b3480156101c5575f5ffd5b506101ce6106c6565b6040516101db9190612bed565b60405180910390f35b3480156101ef575f5ffd5b5061020a60048036038101906102059190612cab565b610756565b6040516102179190612d03565b60405180910390f35b34801561022b575f5ffd5b50610234610778565b6040516102419190612d2b565b60405180910390f35b348015610255575f5ffd5b50610270600480360381019061026b9190612d44565b610781565b60405161027d9190612d03565b60405180910390f35b348015610291575f5ffd5b506102ac60048036038101906102a79190612d94565b6107af565b005b3480156102b9575f5ffd5b506102c2610852565b6040516102cf9190612dda565b60405180910390f35b3480156102e3575f5ffd5b506102ec61085a565b6040516102f99190612e0b565b60405180910390f35b34801561030d575f5ffd5b5061032860048036038101906103239190612d94565b610868565b005b348015610335575f5ffd5b50610350600480360381019061034b9190612cab565b6109ee565b60405161035d9190612d03565b60405180910390f35b348015610371575f5ffd5b5061038c60048036038101906103879190612cab565b610a24565b005b348015610399575f5ffd5b506103b460048036038101906103af9190612e24565b610abc565b005b6103d060048036038101906103cb9190612f7b565b610ad0565b005b3480156103dd575f5ffd5b506103e6610c0c565b6040516103f39190612e0b565b60405180910390f35b348015610407575f5ffd5b50610422600480360381019061041d9190612d94565b610cc3565b60405161042f9190612d2b565b60405180910390f35b348015610443575f5ffd5b5061044c610d09565b005b348015610459575f5ffd5b50610474600480360381019061046f9190612cab565b610d1c565b005b348015610481575f5ffd5b5061049c60048036038101906104979190612d94565b610d3c565b6040516104a99190612d2b565b60405180910390f35b3480156104bd575f5ffd5b506104c6610d8a565b6040516104d997969594939291906130d5565b60405180910390f35b3480156104ed575f5ffd5b506104f6610e86565b6040516105039190613157565b60405180910390f35b348015610517575f5ffd5b50610520610eae565b60405161052d9190612bed565b60405180910390f35b348015610541575f5ffd5b5061055c60048036038101906105579190612d94565b610f3e565b005b348015610569575f5ffd5b50610584600480360381019061057f9190612cab565b610fe2565b6040516105919190612d03565b60405180910390f35b3480156105a5575f5ffd5b506105c060048036038101906105bb9190612cab565b611057565b6040516105cd9190612d03565b60405180910390f35b3480156105e1575f5ffd5b506105fc60048036038101906105f79190612d94565b611079565b005b348015610609575f5ffd5b50610624600480360381019061061f91906131c4565b61127f565b005b348015610631575f5ffd5b5061064c60048036038101906106479190613261565b6113be565b6040516106599190612d2b565b60405180910390f35b34801561066d575f5ffd5b5061068860048036038101906106839190612d94565b611440565b005b348015610695575f5ffd5b506106b060048036038101906106ab9190612d94565b6114c2565b6040516106bd9190612d03565b60405180910390f35b6060603680546106d5906132cc565b80601f0160208091040260200160405190810160405280929190818152602001828054610701906132cc565b801561074c5780601f106107235761010080835404028352916020019161074c565b820191905f5260205f20905b81548152906001019060200180831161072f57829003601f168201915b5050505050905090565b5f5f6107606114e0565b905061076d8185856114e7565b600191505092915050565b5f603554905090565b5f5f61078b6114e0565b90506107988582856116aa565b6107a3858585611735565b60019150509392505050565b6107b76119a4565b5f6101945f8373ffffffffffffffffffffffffffffffffffffffff1673ffffffffffffffffffffffffffffffffffffffff1681526020019081526020015f205f6101000a81548160ff0219169083151502179055508073ffffffffffffffffffffffffffffffffffffffff167fe94479a9f7e1952cc78f2d6baab678adc1b772d936c6583def489e524cb6669260405160405180910390a250565b5f6012905090565b5f610863611a22565b905090565b7f000000000000000000000000000000000000000000000000000000000000000073ffffffffffffffffffffffffffffffffffffffff163073ffffffffffffffffffffffffffffffffffffffff16036108f6576040517f08c379a00000000000000000000000000000000000000000000000000000000081526004016108ed9061336c565b60405180910390fd5b7f000000000000000000000000000000000000000000000000000000000000000073ffffffffffffffffffffffffffffffffffffffff16610935611a30565b73ffffffffffffffffffffffffffffffffffffffff161461098b576040517f08c379a0000000000000000000000000000000000000000000000000000000008152600401610982906133fa565b60405180910390fd5b61099481611a83565b6109eb815f67ffffffffffffffff8111156109b2576109b1612e57565b5b6040519080825280601f01601f1916602001820160405280156109e45781602001600182028036833780820191505090505b505f611a8e565b50565b5f5f6109f86114e0565b9050610a19818585610a0a85896113be565b610a149190613445565b6114e7565b600191505092915050565b6101945f3373ffffffffffffffffffffffffffffffffffffffff1673ffffffffffffffffffffffffffffffffffffffff1681526020019081526020015f205f9054906101000a900460ff16610aae576040517f08c379a0000000000000000000000000000000000000000000000000000000008152600401610aa5906134c2565b60405180910390fd5b610ab88282611bf8565b5050565b610acd610ac76114e0565b82611d47565b50565b7f000000000000000000000000000000000000000000000000000000000000000073ffffffffffffffffffffffffffffffffffffffff163073ffffffffffffffffffffffffffffffffffffffff1603610b5e576040517f08c379a0000000000000000000000000000000000000000000000000000000008152600401610b559061336c565b60405180910390fd5b7f000000000000000000000000000000000000000000000000000000000000000073ffffffffffffffffffffffffffffffffffffffff16610b9d611a30565b73ffffffffffffffffffffffffffffffffffffffff1614610bf3576040517f08c379a0000000000000000000000000000000000000000000000000000000008152600401610bea906133fa565b60405180910390fd5b610bfc82611a83565b610c0882826001611a8e565b5050565b5f7f000000000000000000000000000000000000000000000000000000000000000073ffffffffffffffffffffffffffffffffffffffff163073ffffffffffffffffffffffffffffffffffffffff1614610c9b576040517f08c379a0000000000000000000000000000000000000000000000000000000008152600401610c9290613550565b60405180910390fd5b7f360894a13ba1a3210667c828492db98dca3e2076cc3735a920a3ca505d382bbc5f1b905090565b5f60335f8373ffffffffffffffffffffffffffffffffffffffff1673ffffffffffffffffffffffffffffffffffffffff1681526020019081526020015f20549050919050565b610d116119a4565b610d1a5f611f0c565b565b610d2e82610d286114e0565b836116aa565b610d388282611d47565b5050565b5f610d836101615f8473ffffffffffffffffffffffffffffffffffffffff1673ffffffffffffffffffffffffffffffffffffffff1681526020019081526020015f20611fcf565b9050919050565b5f6060805f5f5f60605f5f1b61012d54148015610dab57505f5f1b61012e54145b610dea576040517f08c379a0000000000000000000000000000000000000000000000000000000008152600401610de1906135b8565b60405180910390fd5b610df2611fdb565b610dfa61206c565b46305f5f1b5f67ffffffffffffffff811115610e1957610e18612e57565b5b604051908082528060200260200182016040528015610e475781602001602082028036833780820191505090505b507f0f00000000000000000000000000000000000000000000000000000000000000959493929190965096509650965096509650965090919293949596565b5f60975f9054906101000a900473ffffffffffffffffffffffffffffffffffffffff16905090565b606060378054610ebd906132cc565b80601f0160208091040260200160405190810160405280929190818152602001828054610ee9906132cc565b8015610f345780601f10610f0b57610100808354040283529160200191610f34565b820191905f5260205f20905b815481529060010190602001808311610f1757829003601f168201915b5050505050905090565b610f466119a4565b60016101945f8373ffffffffffffffffffffffffffffffffffffffff1673ffffffffffffffffffffffffffffffffffffffff1681526020019081526020015f205f6101000a81548160ff0219169083151502179055508073ffffffffffffffffffffffffffffffffffffffff167f6ae172837ea30b801fbfcdd4108aa1d5bf8ff775444fd70256b44e6bf3dfc3f660405160405180910390a250565b5f5f610fec6114e0565b90505f610ff982866113be565b90508381101561103e576040517f08c379a000000000000000000000000000000000000000000000000000000000815260040161103590613646565b60405180910390fd5b61104b82868684036114e7565b60019250505092915050565b5f5f6110616114e0565b905061106e818585611735565b600191505092915050565b5f5f60019054906101000a900460ff161590508080156110a9575060015f5f9054906101000a900460ff1660ff16105b806110d657506110b8306120fd565b1580156110d5575060015f5f9054906101000a900460ff1660ff16145b5b611115576040517f08c379a000000000000000000000000000000000000000000000000000000000815260040161110c906136d4565b60405180910390fd5b60015f5f6101000a81548160ff021916908360ff16021790555080156111505760015f60016101000a81548160ff0219169083151502179055505b6111c46040518060400160405280600681526020017f50686c6f746500000000000000000000000000000000000000000000000000008152506040518060400160405280600681526020017f50484c4f5445000000000000000000000000000000000000000000000000000081525061211f565b6112026040518060400160405280600681526020017f50686c6f7465000000000000000000000000000000000000000000000000000081525061217b565b61120a61220b565b61121261225b565b61121a6122b3565b61122382611f0c565b801561127b575f5f60016101000a81548160ff0219169083151502179055507f7f26b83ff96e1f2b6a682f133852f6798a09c465da95921460cefb384740249860016040516112729190613734565b60405180910390a15b5050565b834211156112c2576040517f08c379a00000000000000000000000000000000000000000000000000000000081526004016112b990613797565b60405180910390fd5b5f7f6e71edae12b1b97f4d1f60370fef10105fa2faae0126114a169c64845d6126c98888886112f08c612303565b89604051602001611306969594939291906137b5565b6040516020818303038152906040528051906020012090505f6113288261235f565b90505f61133782878787612378565b90508973ffffffffffffffffffffffffffffffffffffffff168173ffffffffffffffffffffffffffffffffffffffff16146113a7576040517f08c379a000000000000000000000000000000000000000000000000000000000815260040161139e9061385e565b60405180910390fd5b6113b28a8a8a6114e7565b50505050505050505050565b5f60345f8473ffffffffffffffffffffffffffffffffffffffff1673ffffffffffffffffffffffffffffffffffffffff1681526020019081526020015f205f8373ffffffffffffffffffffffffffffffffffffffff1673ffffffffffffffffffffffffffffffffffffffff1681526020019081526020015f2054905092915050565b6114486119a4565b5f73ffffffffffffffffffffffffffffffffffffffff168173ffffffffffffffffffffffffffffffffffffffff16036114b6576040517f08c379a00000000000000000000000000000000000000000000000000000000081526004016114ad906138ec565b60405180910390fd5b6114bf81611f0c565b50565b610194602052805f5260405f205f915054906101000a900460ff1681565b5f33905090565b5f73ffffffffffffffffffffffffffffffffffffffff168373ffffffffffffffffffffffffffffffffffffffff1603611555576040517f08c379a000000000000000000000000000000000000000000000000000000000815260040161154c9061397a565b60405180910390fd5b5f73ffffffffffffffffffffffffffffffffffffffff168273ffffffffffffffffffffffffffffffffffffffff16036115c3576040517f08c379a00000000000000000000000000000000000000000000000000000000081526004016115ba90613a08565b60405180910390fd5b8060345f8573ffffffffffffffffffffffffffffffffffffffff1673ffffffffffffffffffffffffffffffffffffffff1681526020019081526020015f205f8473ffffffffffffffffffffffffffffffffffffffff1673ffffffffffffffffffffffffffffffffffffffff1681526020019081526020015f20819055508173ffffffffffffffffffffffffffffffffffffffff168373ffffffffffffffffffffffffffffffffffffffff167f8c5be1e5ebec7d5bd14f71427d1e84f3dd0314c0f7b2291e5b200ac8c7c3b9258360405161169d9190612d2b565b60405180910390a3505050565b5f6116b584846113be565b90507fffffffffffffffffffffffffffffffffffffffffffffffffffffffffffffffff811461172f5781811015611721576040517f08c379a000000000000000000000000000000000000000000000000000000000815260040161171890613a70565b60405180910390fd5b61172e84848484036114e7565b5b50505050565b5f73ffffffffffffffffffffffffffffffffffffffff168373ffffffffffffffffffffffffffffffffffffffff16036117a3576040517f08c379a000000000000000000000000000000000000000000000000000000000815260040161179a90613afe565b60405180910390fd5b5f73ffffffffffffffffffffffffffffffffffffffff168273ffffffffffffffffffffffffffffffffffffffff1603611811576040517f08c379a000000000000000000000000000000000000000000000000000000000815260040161180890613b8c565b60405180910390fd5b61181c8383836123a1565b5f60335f8573ffffffffffffffffffffffffffffffffffffffff1673ffffffffffffffffffffffffffffffffffffffff1681526020019081526020015f20549050818110156118a0576040517f08c379a000000000000000000000000000000000000000000000000000000000815260040161189790613c1a565b60405180910390fd5b81810360335f8673ffffffffffffffffffffffffffffffffffffffff1673ffffffffffffffffffffffffffffffffffffffff1681526020019081526020015f20819055508160335f8573ffffffffffffffffffffffffffffffffffffffff1673ffffffffffffffffffffffffffffffffffffffff1681526020019081526020015f205f82825401925050819055508273ffffffffffffffffffffffffffffffffffffffff168473ffffffffffffffffffffffffffffffffffffffff167fddf252ad1be2c89b69c2b068fc378daa952ba7f163c4a11628f55a4df523b3ef8460405161198b9190612d2b565b60405180910390a361199e8484846123a6565b50505050565b6119ac6114e0565b73ffffffffffffffffffffffffffffffffffffffff166119ca610e86565b73ffffffffffffffffffffffffffffffffffffffff1614611a20576040517f08c379a0000000000000000000000000000000000000000000000000000000008152600401611a1790613c82565b60405180910390fd5b565b5f611a2b6123ab565b905090565b5f611a5c7f360894a13ba1a3210667c828492db98dca3e2076cc3735a920a3ca505d382bbc5f1b61240e565b5f015f9054906101000a900473ffffffffffffffffffffffffffffffffffffffff16905090565b611a8b6119a4565b50565b611ab97f4910fdfa16fed3260ed0e7147f7cc6da11a60208b5b9406d12a635614ffd91435f1b612417565b5f015f9054906101000a900460ff1615611adb57611ad683612420565b611bf3565b8273ffffffffffffffffffffffffffffffffffffffff166352d1902d6040518163ffffffff1660e01b8152600401602060405180830381865afa925050508015611b4357506040513d601f19601f82011682018060405250810190611b409190613cb4565b60015b611b82576040517f08c379a0000000000000000000000000000000000000000000000000000000008152600401611b7990613d4f565b60405180910390fd5b7f360894a13ba1a3210667c828492db98dca3e2076cc3735a920a3ca505d382bbc5f1b8114611be6576040517f08c379a0000000000000000000000000000000000000000000000000000000008152600401611bdd90613ddd565b60405180910390fd5b50611bf28383836124d6565b5b505050565b5f73ffffffffffffffffffffffffffffffffffffffff168273ffffffffffffffffffffffffffffffffffffffff1603611c66576040517f08c379a0000000000000000000000000000000000000000000000000000000008152600401611c5d90613e45565b60405180910390fd5b611c715f83836123a1565b8060355f828254611c829190613445565b925050819055508060335f8473ffffffffffffffffffffffffffffffffffffffff1673ffffffffffffffffffffffffffffffffffffffff1681526020019081526020015f205f82825401925050819055508173ffffffffffffffffffffffffffffffffffffffff165f73ffffffffffffffffffffffffffffffffffffffff167fddf252ad1be2c89b69c2b068fc378daa952ba7f163c4a11628f55a4df523b3ef83604051611d309190612d2b565b60405180910390a3611d435f83836123a6565b5050565b5f73ffffffffffffffffffffffffffffffffffffffff168273ffffffffffffffffffffffffffffffffffffffff1603611db5576040517f08c379a0000000000000000000000000000000000000000000000000000000008152600401611dac90613ed3565b60405180910390fd5b611dc0825f836123a1565b5f60335f8473ffffffffffffffffffffffffffffffffffffffff1673ffffffffffffffffffffffffffffffffffffffff1681526020019081526020015f2054905081811015611e44576040517f08c379a0000000000000000000000000000000000000000000000000000000008152600401611e3b90613f61565b60405180910390fd5b81810360335f8573ffffffffffffffffffffffffffffffffffffffff1673ffffffffffffffffffffffffffffffffffffffff1681526020019081526020015f20819055508160355f82825403925050819055505f73ffffffffffffffffffffffffffffffffffffffff168373ffffffffffffffffffffffffffffffffffffffff167fddf252ad1be2c89b69c2b068fc378daa952ba7f163c4a11628f55a4df523b3ef84604051611ef49190612d2b565b60405180910390a3611f07835f846123a6565b505050565b5f60975f9054906101000a900473ffffffffffffffffffffffffffffffffffffffff1690508160975f6101000a81548173ffffffffffffffffffffffffffffffffffffffff021916908373ffffffffffffffffffffffffffffffffffffffff1602179055508173ffffffffffffffffffffffffffffffffffffffff168173ffffffffffffffffffffffffffffffffffffffff167f8be0079c531659141344cd1fd0a4f28419497f9722a3daafe3b4186f6b6457e060405160405180910390a35050565b5f815f01549050919050565b606061012f8054611feb906132cc565b80601f0160208091040260200160405190810160405280929190818152602001828054612017906132cc565b80156120625780601f1061203957610100808354040283529160200191612062565b820191905f5260205f20905b81548152906001019060200180831161204557829003601f168201915b5050505050905090565b6060610130805461207c906132cc565b80601f01602080910402602001604051908101604052809291908181526020018280546120a8906132cc565b80156120f35780601f106120ca576101008083540402835291602001916120f3565b820191905f5260205f20905b8154815290600101906020018083116120d657829003601f168201915b5050505050905090565b5f5f8273ffffffffffffffffffffffffffffffffffffffff163b119050919050565b5f60019054906101000a900460ff1661216d576040517f08c379a000000000000000000000000000000000000000000000000000000000815260040161216490613fef565b60405180910390fd5b6121778282612501565b5050565b5f60019054906101000a900460ff166121c9576040517f08c379a00000000000000000000000000000000000000000000000000000000081526004016121c090613fef565b60405180910390fd5b612208816040518060400160405280600181526020017f3100000000000000000000000000000000000000000000000000000000000000815250612573565b50565b5f60019054906101000a900460ff16612259576040517f08c379a000000000000000000000000000000000000000000000000000000000815260040161225090613fef565b60405180910390fd5b565b5f60019054906101000a900460ff166122a9576040517f08c379a00000000000000000000000000000000000000000000000000000000081526004016122a090613fef565b60405180910390fd5b6122b16125fb565b565b5f60019054906101000a900460ff16612301576040517f08c379a00000000000000000000000000000000000000000000000000000000081526004016122f890613fef565b60405180910390fd5b565b5f5f6101615f8473ffffffffffffffffffffffffffffffffffffffff1673ffffffffffffffffffffffffffffffffffffffff1681526020019081526020015f20905061234e81611fcf565b91506123598161265b565b50919050565b5f61237161236b611a22565b8361266f565b9050919050565b5f5f5f612387878787876126af565b9150915061239481612787565b8192505050949350505050565b505050565b505050565b5f7f8b73c3c69bb8fe3d512ecc4cf759cc79239f7b179b0ffacaa9a75d522b39400f6123d56128ec565b6123dd612954565b46306040516020016123f395949392919061400d565b60405160208183030381529060405280519060200120905090565b5f819050919050565b5f819050919050565b612429816120fd565b612468576040517f08c379a000000000000000000000000000000000000000000000000000000000815260040161245f906140ce565b60405180910390fd5b806124947f360894a13ba1a3210667c828492db98dca3e2076cc3735a920a3ca505d382bbc5f1b61240e565b5f015f6101000a81548173ffffffffffffffffffffffffffffffffffffffff021916908373ffffffffffffffffffffffffffffffffffffffff16021790555050565b6124df836129bc565b5f825111806124eb5750805b156124fc576124fa8383612a0b565b505b505050565b5f60019054906101000a900460ff1661254f576040517f08c379a000000000000000000000000000000000000000000000000000000000815260040161254690613fef565b60405180910390fd5b816036908161255e9190614283565b50806037908161256e9190614283565b505050565b5f60019054906101000a900460ff166125c1576040517f08c379a00000000000000000000000000000000000000000000000000000000081526004016125b890613fef565b60405180910390fd5b8161012f90816125d19190614283565b508061013090816125e29190614283565b505f5f1b61012d819055505f5f1b61012e819055505050565b5f60019054906101000a900460ff16612649576040517f08c379a000000000000000000000000000000000000000000000000000000000815260040161264090613fef565b60405180910390fd5b6126596126546114e0565b611f0c565b565b6001815f015f828254019250508190555050565b5f6040517f190100000000000000000000000000000000000000000000000000000000000081528360028201528260228201526042812091505092915050565b5f5f7f7fffffffffffffffffffffffffffffff5d576e7357a4501ddfe92f46681b20a0835f1c11156126e7575f60039150915061277e565b5f6001878787876040515f815260200160405260405161270a9493929190614352565b6020604051602081039080840390855afa15801561272a573d5f5f3e3d5ffd5b5050506020604051035190505f73ffffffffffffffffffffffffffffffffffffffff168173ffffffffffffffffffffffffffffffffffffffff1603612776575f6001925092505061277e565b805f92509250505b94509492505050565b5f600481111561279a57612799614395565b5b8160048111156127ad576127ac614395565b5b03156128e957600160048111156127c7576127c6614395565b5b8160048111156127da576127d9614395565b5b0361281a576040517f08c379a00000000000000000000000000000000000000000000000000000000081526004016128119061440c565b60405180910390fd5b6002600481111561282e5761282d614395565b5b81600481111561284157612840614395565b5b03612881576040517f08c379a000000000000000000000000000000000000000000000000000000000815260040161287890614474565b60405180910390fd5b6003600481111561289557612894614395565b5b8160048111156128a8576128a7614395565b5b036128e8576040517f08c379a00000000000000000000000000000000000000000000000000000000081526004016128df90614502565b60405180910390fd5b5b50565b5f5f6128f6611fdb565b90505f81511115612911578080519060200120915050612951565b5f61012d5490505f5f1b811461292b578092505050612951565b7fc5d2460186f7233c927e7db2dcc703c0e500b653ca82273b7bfad8045d85a470925050505b90565b5f5f61295e61206c565b90505f815111156129795780805190602001209150506129b9565b5f61012e5490505f5f1b81146129935780925050506129b9565b7fc5d2460186f7233c927e7db2dcc703c0e500b653ca82273b7bfad8045d85a470925050505b90565b6129c581612420565b8073ffffffffffffffffffffffffffffffffffffffff167fbc7cd75a20ee27fd9adebab32041f755214dbc6bffa90cc0225b39da2e5c2d3b60405160405180910390a250565b6060612a3083836040518060600160405280602781526020016145e360279139612a38565b905092915050565b60605f5f8573ffffffffffffffffffffffffffffffffffffffff1685604051612a619190614564565b5f60405180830381855af49150503d805f8114612a99576040519150601f19603f3d011682016040523d82523d5f602084013e612a9e565b606091505b5091509150612aaf86838387612aba565b925050509392505050565b60608315612b1b575f835103612b1357612ad3856120fd565b612b12576040517f08c379a0000000000000000000000000000000000000000000000000000000008152600401612b09906145c4565b60405180910390fd5b5b829050612b26565b612b258383612b2e565b5b949350505050565b5f82511115612b405781518083602001fd5b806040517f08c379a0000000000000000000000000000000000000000000000000000000008152600401612b749190612bed565b60405180910390fd5b5f81519050919050565b5f82825260208201905092915050565b8281835e5f83830152505050565b5f601f19601f8301169050919050565b5f612bbf82612b7d565b612bc98185612b87565b9350612bd9818560208601612b97565b612be281612ba5565b840191505092915050565b5f6020820190508181035f830152612c058184612bb5565b905092915050565b5f604051905090565b5f5ffd5b5f5ffd5b5f73ffffffffffffffffffffffffffffffffffffffff82169050919050565b5f612c4782612c1e565b9050919050565b612c5781612c3d565b8114612c61575f5ffd5b50565b5f81359050612c7281612c4e565b92915050565b5f819050919050565b612c8a81612c78565b8114612c94575f5ffd5b50565b5f81359050612ca581612c81565b92915050565b5f5f60408385031215612cc157612cc0612c16565b5b5f612cce85828601612c64565b9250506020612cdf85828601612c97565b9150509250929050565b5f8115159050919050565b612cfd81612ce9565b82525050565b5f602082019050612d165f830184612cf4565b92915050565b612d2581612c78565b82525050565b5f602082019050612d3e5f830184612d1c565b92915050565b5f5f5f60608486031215612d5b57612d5a612c16565b5b5f612d6886828701612c64565b9350506020612d7986828701612c64565b9250506040612d8a86828701612c97565b9150509250925092565b5f60208284031215612da957612da8612c16565b5b5f612db684828501612c64565b91505092915050565b5f60ff82169050919050565b612dd481612dbf565b82525050565b5f602082019050612ded5f830184612dcb565b92915050565b5f819050919050565b612e0581612df3565b82525050565b5f602082019050612e1e5f830184612dfc565b92915050565b5f60208284031215612e3957612e38612c16565b5b5f612e4684828501612c97565b91505092915050565b5f5ffd5b5f5ffd5b7f4e487b71000000000000000000000000000000000000000000000000000000005f52604160045260245ffd5b612e8d82612ba5565b810181811067ffffffffffffffff82111715612eac57612eab612e57565b5b80604052505050565b5f612ebe612c0d565b9050612eca8282612e84565b919050565b5f67ffffffffffffffff821115612ee957612ee8612e57565b5b612ef282612ba5565b9050602081019050919050565b828183375f83830152505050565b5f612f1f612f1a84612ecf565b612eb5565b905082815260208101848484011115612f3b57612f3a612e53565b5b612f46848285612eff565b509392505050565b5f82601f830112612f6257612f61612e4f565b5b8135612f72848260208601612f0d565b91505092915050565b5f5f60408385031215612f9157612f90612c16565b5b5f612f9e85828601612c64565b925050602083013567ffffffffffffffff811115612fbf57612fbe612c1a565b5b612fcb85828601612f4e565b9150509250929050565b5f7fff0000000000000000000000000000000000000000000000000000000000000082169050919050565b61300981612fd5565b82525050565b61301881612c3d565b82525050565b5f81519050919050565b5f82825260208201905092915050565b5f819050602082019050919050565b61305081612c78565b82525050565b5f6130618383613047565b60208301905092915050565b5f602082019050919050565b5f6130838261301e565b61308d8185613028565b935061309883613038565b805f5b838110156130c85781516130af8882613056565b97506130ba8361306d565b92505060018101905061309b565b5085935050505092915050565b5f60e0820190506130e85f83018a613000565b81810360208301526130fa8189612bb5565b9050818103604083015261310e8188612bb5565b905061311d6060830187612d1c565b61312a608083018661300f565b61313760a0830185612dfc565b81810360c08301526131498184613079565b905098975050505050505050565b5f60208201905061316a5f83018461300f565b92915050565b61317981612dbf565b8114613183575f5ffd5b50565b5f8135905061319481613170565b92915050565b6131a381612df3565b81146131ad575f5ffd5b50565b5f813590506131be8161319a565b92915050565b5f5f5f5f5f5f5f60e0888a0312156131df576131de612c16565b5b5f6131ec8a828b01612c64565b97505060206131fd8a828b01612c64565b965050604061320e8a828b01612c97565b955050606061321f8a828b01612c97565b94505060806132308a828b01613186565b93505060a06132418a828b016131b0565b92505060c06132528a828b016131b0565b91505092959891949750929550565b5f5f6040838503121561327757613276612c16565b5b5f61328485828601612c64565b925050602061329585828601612c64565b9150509250929050565b7f4e487b71000000000000000000000000000000000000000000000000000000005f52602260045260245ffd5b5f60028204905060018216806132e357607f821691505b6020821081036132f6576132f561329f565b5b50919050565b7f46756e6374696f6e206d7573742062652063616c6c6564207468726f756768205f8201527f64656c656761746563616c6c0000000000000000000000000000000000000000602082015250565b5f613356602c83612b87565b9150613361826132fc565b604082019050919050565b5f6020820190508181035f8301526133838161334a565b9050919050565b7f46756e6374696f6e206d7573742062652063616c6c6564207468726f756768205f8201527f6163746976652070726f78790000000000000000000000000000000000000000602082015250565b5f6133e4602c83612b87565b91506133ef8261338a565b604082019050919050565b5f6020820190508181035f830152613411816133d8565b9050919050565b7f4e487b71000000000000000000000000000000000000000000000000000000005f52601160045260245ffd5b5f61344f82612c78565b915061345a83612c78565b925082820190508082111561347257613471613418565b5b92915050565b7f4f6e6c79206d696e746572732063616e206d696e7400000000000000000000005f82015250565b5f6134ac601583612b87565b91506134b782613478565b602082019050919050565b5f6020820190508181035f8301526134d9816134a0565b9050919050565b7f555550535570677261646561626c653a206d757374206e6f742062652063616c5f8201527f6c6564207468726f7567682064656c656761746563616c6c0000000000000000602082015250565b5f61353a603883612b87565b9150613545826134e0565b604082019050919050565b5f6020820190508181035f8301526135678161352e565b9050919050565b7f4549503731323a20556e696e697469616c697a656400000000000000000000005f82015250565b5f6135a2601583612b87565b91506135ad8261356e565b602082019050919050565b5f6020820190508181035f8301526135cf81613596565b9050919050565b7f45524332303a2064656372656173656420616c6c6f77616e63652062656c6f775f8201527f207a65726f000000000000000000000000000000000000000000000000000000602082015250565b5f613630602583612b87565b915061363b826135d6565b604082019050919050565b5f6020820190508181035f83015261365d81613624565b9050919050565b7f496e697469616c697a61626c653a20636f6e747261637420697320616c7265615f8201527f647920696e697469616c697a6564000000000000000000000000000000000000602082015250565b5f6136be602e83612b87565b91506136c982613664565b604082019050919050565b5f6020820190508181035f8301526136eb816136b2565b9050919050565b5f819050919050565b5f819050919050565b5f61371e613719613714846136f2565b6136fb565b612dbf565b9050919050565b61372e81613704565b82525050565b5f6020820190506137475f830184613725565b92915050565b7f45524332305065726d69743a206578706972656420646561646c696e650000005f82015250565b5f613781601d83612b87565b915061378c8261374d565b602082019050919050565b5f6020820190508181035f8301526137ae81613775565b9050919050565b5f60c0820190506137c85f830189612dfc565b6137d5602083018861300f565b6137e2604083018761300f565b6137ef6060830186612d1c565b6137fc6080830185612d1c565b61380960a0830184612d1c565b979650505050505050565b7f45524332305065726d69743a20696e76616c6964207369676e617475726500005f82015250565b5f613848601e83612b87565b915061385382613814565b602082019050919050565b5f6020820190508181035f8301526138758161383c565b9050919050565b7f4f776e61626c653a206e6577206f776e657220697320746865207a65726f20615f8201527f6464726573730000000000000000000000000000000000000000000000000000602082015250565b5f6138d6602683612b87565b91506138e18261387c565b604082019050919050565b5f6020820190508181035f830152613903816138ca565b9050919050565b7f45524332303a20617070726f76652066726f6d20746865207a65726f206164645f8201527f7265737300000000000000000000000000000000000000000000000000000000602082015250565b5f613964602483612b87565b915061396f8261390a565b604082019050919050565b5f6020820190508181035f83015261399181613958565b9050919050565b7f45524332303a20617070726f766520746f20746865207a65726f2061646472655f8201527f7373000000000000000000000000000000000000000000000000000000000000602082015250565b5f6139f2602283612b87565b91506139fd82613998565b604082019050919050565b5f6020820190508181035f830152613a1f816139e6565b9050919050565b7f45524332303a20696e73756666696369656e7420616c6c6f77616e63650000005f82015250565b5f613a5a601d83612b87565b9150613a6582613a26565b602082019050919050565b5f6020820190508181035f830152613a8781613a4e565b9050919050565b7f45524332303a207472616e736665722066726f6d20746865207a65726f2061645f8201527f6472657373000000000000000000000000000000000000000000000000000000602082015250565b5f613ae8602583612b87565b9150613af382613a8e565b604082019050919050565b5f6020820190508181035f830152613b1581613adc565b9050919050565b7f45524332303a207472616e7366657220746f20746865207a65726f20616464725f8201527f6573730000000000000000000000000000000000000000000000000000000000602082015250565b5f613b76602383612b87565b9150613b8182613b1c565b604082019050919050565b5f6020820190508181035f830152613ba381613b6a565b9050919050565b7f45524332303a207472616e7366657220616d6f756e74206578636565647320625f8201527f616c616e63650000000000000000000000000000000000000000000000000000602082015250565b5f613c04602683612b87565b9150613c0f82613baa565b604082019050919050565b5f6020820190508181035f830152613c3181613bf8565b9050919050565b7f4f776e61626c653a2063616c6c6572206973206e6f7420746865206f776e65725f82015250565b5f613c6c602083612b87565b9150613c7782613c38565b602082019050919050565b5f6020820190508181035f830152613c9981613c60565b9050919050565b5f81519050613cae8161319a565b92915050565b5f60208284031215613cc957613cc8612c16565b5b5f613cd684828501613ca0565b91505092915050565b7f45524331393637557067726164653a206e657720696d706c656d656e746174695f8201527f6f6e206973206e6f742055555053000000000000000000000000000000000000602082015250565b5f613d39602e83612b87565b9150613d4482613cdf565b604082019050919050565b5f6020820190508181035f830152613d6681613d2d565b9050919050565b7f45524331393637557067726164653a20756e737570706f727465642070726f785f8201527f6961626c65555549440000000000000000000000000000000000000000000000602082015250565b5f613dc7602983612b87565b9150613dd282613d6d565b604082019050919050565b5f6020820190508181035f830152613df481613dbb565b9050919050565b7f45524332303a206d696e7420746f20746865207a65726f2061646472657373005f82015250565b5f613e2f601f83612b87565b9150613e3a82613dfb565b602082019050919050565b5f6020820190508181035f830152613e5c81613e23565b9050919050565b7f45524332303a206275726e2066726f6d20746865207a65726f206164647265735f8201527f7300000000000000000000000000000000000000000000000000000000000000602082015250565b5f613ebd602183612b87565b9150613ec882613e63565b604082019050919050565b5f6020820190508181035f830152613eea81613eb1565b9050919050565b7f45524332303a206275726e20616d6f756e7420657863656564732062616c616e5f8201527f6365000000000000000000000000000000000000000000000000000000000000602082015250565b5f613f4b602283612b87565b9150613f5682613ef1565b604082019050919050565b5f6020820190508181035f830152613f7881613f3f565b9050919050565b7f496e697469616c697a61626c653a20636f6e7472616374206973206e6f7420695f8201527f6e697469616c697a696e67000000000000000000000000000000000000000000602082015250565b5f613fd9602b83612b87565b9150613fe482613f7f565b604082019050919050565b5f6020820190508181035f83015261400681613fcd565b9050919050565b5f60a0820190506140205f830188612dfc565b61402d6020830187612dfc565b61403a6040830186612dfc565b6140476060830185612d1c565b614054608083018461300f565b9695505050505050565b7f455243313936373a206e657720696d706c656d656e746174696f6e206973206e5f8201527f6f74206120636f6e747261637400000000000000000000000000000000000000602082015250565b5f6140b8602d83612b87565b91506140c38261405e565b604082019050919050565b5f6020820190508181035f8301526140e5816140ac565b9050919050565b5f819050815f5260205f209050919050565b5f6020601f8301049050919050565b5f82821b905092915050565b5f600883026141487fffffffffffffffffffffffffffffffffffffffffffffffffffffffffffffffff8261410d565b614152868361410d565b95508019841693508086168417925050509392505050565b5f61418461417f61417a84612c78565b6136fb565b612c78565b9050919050565b5f819050919050565b61419d8361416a565b6141b16141a98261418b565b848454614119565b825550505050565b5f5f905090565b6141c86141b9565b6141d3818484614194565b505050565b5b818110156141f6576141eb5f826141c0565b6001810190506141d9565b5050565b601f82111561423b5761420c816140ec565b614215846140fe565b81016020851015614224578190505b614238614230856140fe565b8301826141d8565b50505b505050565b5f82821c905092915050565b5f61425b5f1984600802614240565b1980831691505092915050565b5f614273838361424c565b9150826002028217905092915050565b61428c82612b7d565b67ffffffffffffffff8111156142a5576142a4612e57565b5b6142af82546132cc565b6142ba8282856141fa565b5f60209050601f8311600181146142eb575f84156142d9578287015190505b6142e38582614268565b86555061434a565b601f1984166142f9866140ec565b5f5b82811015614320578489015182556001820191506020850194506020810190506142fb565b8683101561433d5784890151614339601f89168261424c565b8355505b6001600288020188555050505b505050505050565b5f6080820190506143655f830187612dfc565b6143726020830186612dcb565b61437f6040830185612dfc565b61438c6060830184612dfc565b95945050505050565b7f4e487b71000000000000000000000000000000000000000000000000000000005f52602160045260245ffd5b7f45434453413a20696e76616c6964207369676e617475726500000000000000005f82015250565b5f6143f6601883612b87565b9150614401826143c2565b602082019050919050565b5f6020820190508181035f830152614423816143ea565b9050919050565b7f45434453413a20696e76616c6964207369676e6174757265206c656e677468005f82015250565b5f61445e601f83612b87565b91506144698261442a565b602082019050919050565b5f6020820190508181035f83015261448b81614452565b9050919050565b7f45434453413a20696e76616c6964207369676e6174757265202773272076616c5f8201527f7565000000000000000000000000000000000000000000000000000000000000602082015250565b5f6144ec602283612b87565b91506144f782614492565b604082019050919050565b5f6020820190508181035f830152614519816144e0565b9050919050565b5f81519050919050565b5f81905092915050565b5f61453e82614520565b614548818561452a565b9350614558818560208601612b97565b80840191505092915050565b5f61456f8284614534565b915081905092915050565b7f416464726573733a2063616c6c20746f206e6f6e2d636f6e74726163740000005f82015250565b5f6145ae601d83612b87565b91506145b98261457a565b602082019050919050565b5f6020820190508181035f8301526145db816145a2565b905091905056fe416464726573733a206c6f772d6c6576656c2064656c65676174652063616c6c206661696c6564a2646970667358221220f568f5ad2c9369b55145310a12f8eca623f9464490af43efc86c967ea9836ba264736f6c634300081c0033","linkReferences":{}},"methodIdentifiers":{"DOMAIN_SEPARATOR()":"3644e515","addMinter(address)":"983b2d56","allowance(address,address)":"dd62ed3e","approve(address,uint256)":"095ea7b3","balanceOf(address)":"70a08231","burn(uint256)":"42966c68","burnFrom(address,uint256)":"79cc6790","decimals()":"313ce567","decreaseAllowance(address,uint256)":"a457c2d7","eip712Domain()":"84b0196e","increaseAllowance(address,uint256)":"39509351","initialize(address)":"c4d66de8","mint(address,uint256)":"40c10f19","minters(address)":"f46eccc4","name()":"06fdde03","nonces(address)":"7ecebe00","owner()":"8da5cb5b","permit(address,address,uint256,uint256,uint8,bytes32,bytes32)":"d505accf","proxiableUUID()":"52d1902d","removeMinter(address)":"3092afd5","renounceOwnership()":"715018a6","symbol()":"95d89b41","totalSupply()":"18160ddd","transfer(address,uint256)":"a9059cbb","transferFrom(address,address,uint256)":"23b872dd","transferOwnership(address)":"f2fde38b","upgradeTo(address)":"3659cfe6","upgradeToAndCall(address,bytes)":"4f1ef286"},"id":54}