{"abi":[{"type":"function","name":"excludeArtifacts","inputs":[],"outputs":[{"name":"excludedArtifacts_","type":"string[]","internalType":"string[]"}],"stateMutability":"view"},{"type":"function","name":"excludeContracts","inputs":[],"outputs":[{"name":"excludedContracts_","type":"address[]","internalType":"address[]"}],"stateMutability":"view"},{"type":"function","name":"excludeSenders","inputs":[],"outputs":[{"name":"excludedSenders_","type":"address[]","internalType":"address[]"}],"stateMutability":"view"},{"type":"function","name":"targetArtifactSelectors","inputs":[],"outputs":[{"name":"targetedArtifactSelectors_","type":"tuple[]","internalType":"struct StdInvariant.FuzzSelector[]","components":[{"name":"addr","type":"address","internalType":"address"},{"name":"selectors","type":"bytes4[]","internalType":"bytes4[]"}]}],"stateMutability":"view"},{"type":"function","name":"targetArtifacts","inputs":[],"outputs":[{"name":"targetedArtifacts_","type":"string[]","internalType":"string[]"}],"stateMutability":"view"},{"type":"function","name":"targetContracts","inputs":[],"outputs":[{"name":"targetedContracts_","type":"address[]","internalType":"address[]"}],"stateMutability":"view"},{"type":"function","name":"targetSelectors","inputs":[],"outputs":[{"name":"targetedSelectors_","type":"tuple[]","internalType":"struct StdInvariant.FuzzSelector[]","components":[{"name":"addr","type":"address","internalType":"address"},{"name":"selectors","type":"bytes4[]","internalType":"bytes4[]"}]}],"stateMutability":"view"},{"type":"function","name":"targetSenders","inputs":[],"outputs":[{"name":"targetedSenders_","type":"address[]","internalType":"address[]"}],"stateMutability":"view"}],"bytecode":{"object":"0x6080604052348015600e575f5ffd5b50610cb78061001c5f395ff3fe608060405234801561000f575f5ffd5b5060043610610086575f3560e01c806385226c811161005957806385226c8114610102578063916a17c614610120578063b5508aa91461013e578063e20c9f711461015c57610086565b80631ed7831c1461008a5780633e5e3c23146100a85780633f7286f4146100c657806366d9a9a0146100e4575b5f5ffd5b61009261017a565b60405161009f91906108c2565b60405180910390f35b6100b0610205565b6040516100bd91906108c2565b60405180910390f35b6100ce610290565b6040516100db91906108c2565b60405180910390f35b6100ec61031b565b6040516100f99190610ab9565b60405180910390f35b61010a610462565b6040516101179190610c04565b60405180910390f35b610128610536565b6040516101359190610ab9565b60405180910390f35b61014661067d565b6040516101539190610c04565b60405180910390f35b610164610751565b60405161017191906108c2565b60405180910390f35b606060018054806020026020016040519081016040528092919081815260200182805480156101fb57602002820191905f5260205f20905b815f9054906101000a900473ffffffffffffffffffffffffffffffffffffffff1673ffffffffffffffffffffffffffffffffffffffff16815260200190600101908083116101b2575b5050505050905090565b6060600380548060200260200160405190810160405280929190818152602001828054801561028657602002820191905f5260205f20905b815f9054906101000a900473ffffffffffffffffffffffffffffffffffffffff1673ffffffffffffffffffffffffffffffffffffffff168152602001906001019080831161023d575b5050505050905090565b6060600280548060200260200160405190810160405280929190818152602001828054801561031157602002820191905f5260205f20905b815f9054906101000a900473ffffffffffffffffffffffffffffffffffffffff1673ffffffffffffffffffffffffffffffffffffffff16815260200190600101908083116102c8575b5050505050905090565b60606006805480602002602001604051908101604052809291908181526020015f905b82821015610459578382905f5260205f2090600202016040518060400160405290815f82015f9054906101000a900473ffffffffffffffffffffffffffffffffffffffff1673ffffffffffffffffffffffffffffffffffffffff1673ffffffffffffffffffffffffffffffffffffffff1681526020016001820180548060200260200160405190810160405280929190818152602001828054801561044157602002820191905f5260205f20905f905b82829054906101000a900460e01b7bffffffffffffffffffffffffffffffffffffffffffffffffffffffff1916815260200190600401906020826003010492830192600103820291508084116103ee5790505b5050505050815250508152602001906001019061033e565b50505050905090565b60606005805480602002602001604051908101604052809291908181526020015f905b8282101561052d578382905f5260205f200180546104a290610c51565b80601f01602080910402602001604051908101604052809291908181526020018280546104ce90610c51565b80156105195780601f106104f057610100808354040283529160200191610519565b820191905f5260205f20905b8154815290600101906020018083116104fc57829003601f168201915b505050505081526020019060010190610485565b50505050905090565b60606007805480602002602001604051908101604052809291908181526020015f905b82821015610674578382905f5260205f2090600202016040518060400160405290815f82015f9054906101000a900473ffffffffffffffffffffffffffffffffffffffff1673ffffffffffffffffffffffffffffffffffffffff1673ffffffffffffffffffffffffffffffffffffffff1681526020016001820180548060200260200160405190810160405280929190818152602001828054801561065c57602002820191905f5260205f20905f905b82829054906101000a900460e01b7bffffffffffffffffffffffffffffffffffffffffffffffffffffffff1916815260200190600401906020826003010492830192600103820291508084116106095790505b50505050508152505081526020019060010190610559565b50505050905090565b60606004805480602002602001604051908101604052809291908181526020015f905b82821015610748578382905f5260205f200180546106bd90610c51565b80601f01602080910402602001604051908101604052809291908181526020018280546106e990610c51565b80156107345780601f1061070b57610100808354040283529160200191610734565b820191905f5260205f20905b81548152906001019060200180831161071757829003601f168201915b5050505050815260200190600101906106a0565b50505050905090565b60605f8054806020026020016040519081016040528092919081815260200182805480156107d157602002820191905f5260205f20905b815f9054906101000a900473ffffffffffffffffffffffffffffffffffffffff1673ffffffffffffffffffffffffffffffffffffffff1681526020019060010190808311610788575b5050505050905090565b5f81519050919050565b5f82825260208201905092915050565b5f819050602082019050919050565b5f73ffffffffffffffffffffffffffffffffffffffff82169050919050565b5f61082d82610804565b9050919050565b61083d81610823565b82525050565b5f61084e8383610834565b60208301905092915050565b5f602082019050919050565b5f610870826107db565b61087a81856107e5565b9350610885836107f5565b805f5b838110156108b557815161089c8882610843565b97506108a78361085a565b925050600181019050610888565b5085935050505092915050565b5f6020820190508181035f8301526108da8184610866565b905092915050565b5f81519050919050565b5f82825260208201905092915050565b5f819050602082019050919050565b5f81519050919050565b5f82825260208201905092915050565b5f819050602082019050919050565b5f7fffffffff0000000000000000000000000000000000000000000000000000000082169050919050565b61096881610934565b82525050565b5f610979838361095f565b60208301905092915050565b5f602082019050919050565b5f61099b8261090b565b6109a58185610915565b93506109b083610925565b805f5b838110156109e05781516109c7888261096e565b97506109d283610985565b9250506001810190506109b3565b5085935050505092915050565b5f604083015f830151610a025f860182610834565b5060208301518482036020860152610a1a8282610991565b9150508091505092915050565b5f610a3283836109ed565b905092915050565b5f602082019050919050565b5f610a50826108e2565b610a5a81856108ec565b935083602082028501610a6c856108fc565b805f5b85811015610aa75784840389528151610a888582610a27565b9450610a9383610a3a565b925060208a01995050600181019050610a6f565b50829750879550505050505092915050565b5f6020820190508181035f830152610ad18184610a46565b905092915050565b5f81519050919050565b5f82825260208201905092915050565b5f819050602082019050919050565b5f81519050919050565b5f82825260208201905092915050565b8281835e5f83830152505050565b5f601f19601f8301169050919050565b5f610b4482610b02565b610b4e8185610b0c565b9350610b5e818560208601610b1c565b610b6781610b2a565b840191505092915050565b5f610b7d8383610b3a565b905092915050565b5f602082019050919050565b5f610b9b82610ad9565b610ba58185610ae3565b935083602082028501610bb785610af3565b805f5b85811015610bf25784840389528151610bd38582610b72565b9450610bde83610b85565b925060208a01995050600181019050610bba565b50829750879550505050505092915050565b5f6020820190508181035f830152610c1c8184610b91565b905092915050565b7f4e487b71000000000000000000000000000000000000000000000000000000005f52602260045260245ffd5b5f6002820490506001821680610c6857607f821691505b602082108103610c7b57610c7a610c24565b5b5091905056fea2646970667358221220265f60373303c50932e29acde76ec3e26f760cd53a6a89daeb6722012dfaca7c64736f6c634300081c0033","linkReferences":{}},"methodIdentifiers":{"excludeArtifacts()":"b5508aa9","excludeContracts()":"e20c9f71","excludeSenders()":"1ed7831c","targetArtifactSelectors()":"66d9a9a0","targetArtifacts()":"85226c81","targetContracts()":"3f7286f4","targetSelectors()":"916a17c6","targetSenders()":"3e5e3c23"},"id":32}