{"abi":[{"type":"constructor","inputs":[],"stateMutability":"nonpayable"},{"type":"function","name":"deployEcosystem","inputs":[],"outputs":[{"name":"token","type":"address","internalType":"address"},{"name":"treasury","type":"address","internalType":"address payable"},{"name":"governance","type":"address","internalType":"address"}],"stateMutability":"nonpayable"},{"type":"function","name":"governanceImplementation","inputs":[],"outputs":[{"name":"","type":"address","internalType":"address"}],"stateMutability":"view"},{"type":"function","name":"owner","inputs":[],"outputs":[{"name":"","type":"address","internalType":"address"}],"stateMutability":"view"},{"type":"function","name":"renounceOwnership","inputs":[],"outputs":[],"stateMutability":"nonpayable"},{"type":"function","name":"tokenImplementation","inputs":[],"outputs":[{"name":"","type":"address","internalType":"address"}],"stateMutability":"view"},{"type":"function","name":"transferOwnership","inputs":[{"name":"newOwner","type":"address","internalType":"address"}],"outputs":[],"stateMutability":"nonpayable"},{"type":"function","name":"treasuryImplementation","inputs":[],"outputs":[{"name":"","type":"address","internalType":"address"}],"stateMutability":"view"},{"type":"event","name":"EcosystemDeployed","inputs":[{"name":"deployer","type":"address","indexed":true,"internalType":"address"},{"name":"token","type":"address","indexed":true,"internalType":"address"},{"name":"treasury","type":"address","indexed":true,"internalType":"address"},{"name":"governance","type":"address","indexed":false,"internalType":"address"}],"anonymous":false},{"type":"event","name":"OwnershipTransferred","inputs":[{"name":"previousOwner","type":"address","indexed":true,"internalType":"address"},{"name":"newOwner","type":"address","indexed":true,"internalType":"address"}],"anonymous":false}],"bytecode":{"object":"0x60e060405234801561000f575f5ffd5b5061002c61002161013c60201b60201c565b61014360201b60201c565b60405161003890610204565b604051809103905ff080158015610051573d5f5f3e3d5ffd5b5073ffffffffffffffffffffffffffffffffffffffff1660808173ffffffffffffffffffffffffffffffffffffffff168152505060405161009190610211565b604051809103905ff0801580156100aa573d5f5f3e3d5ffd5b5073ffffffffffffffffffffffffffffffffffffffff1660a08173ffffffffffffffffffffffffffffffffffffffff16815250506040516100ea9061021e565b604051809103905ff080158015610103573d5f5f3e3d5ffd5b5073ffffffffffffffffffffffffffffffffffffffff1660c08173ffffffffffffffffffffffffffffffffffffffff168152505061022b565b5f33905090565b5f5f5f9054906101000a900473ffffffffffffffffffffffffffffffffffffffff169050815f5f6101000a81548173ffffffffffffffffffffffffffffffffffffffff021916908373ffffffffffffffffffffffffffffffffffffffff1602179055508173ffffffffffffffffffffffffffffffffffffffff168173ffffffffffffffffffffffffffffffffffffffff167f8be0079c531659141344cd1fd0a4f28419497f9722a3daafe3b4186f6b6457e060405160405180910390a35050565b61485980610e0c83390190565b612aed8061566583390190565b6131618061815283390190565b60805160a05160c051610ba261026a5f395f818161013f015261020701525f818161016301526101dc01525f818161018701526101b10152610ba25ff3fe608060405234801561000f575f5ffd5b506004361061007b575f3560e01c8063711e6d0811610059578063711e6d08146100d9578063715018a6146100f95780638da5cb5b14610103578063f2fde38b146101215761007b565b8063149fbe5b1461007f5780631d32138f1461009d5780632f3a3d5d146100bb575b5f5ffd5b61008761013d565b60405161009491906108db565b60405180910390f35b6100a5610161565b6040516100b291906108db565b60405180910390f35b6100c3610185565b6040516100d091906108db565b60405180910390f35b6100e16101a9565b6040516100f093929190610914565b60405180910390f35b6101016105e4565b005b61010b6105f7565b60405161011891906108db565b60405180910390f35b61013b60048036038101906101369190610977565b61061e565b005b7f000000000000000000000000000000000000000000000000000000000000000081565b7f000000000000000000000000000000000000000000000000000000000000000081565b7f000000000000000000000000000000000000000000000000000000000000000081565b5f5f5f6101d57f00000000000000000000000000000000000000000000000000000000000000006106a0565b92506102007f00000000000000000000000000000000000000000000000000000000000000006106a0565b915061022b7f00000000000000000000000000000000000000000000000000000000000000006106a0565b90508273ffffffffffffffffffffffffffffffffffffffff1663c4d66de8306040518263ffffffff1660e01b815260040161026691906108db565b5f604051808303815f87803b15801561027d575f5ffd5b505af115801561028f573d5f5f3e3d5ffd5b505050508173ffffffffffffffffffffffffffffffffffffffff1663485cc95530856040518363ffffffff1660e01b81526004016102ce9291906109a2565b5f604051808303815f87803b1580156102e5575f5ffd5b505af11580156102f7573d5f5f3e3d5ffd5b505050508073ffffffffffffffffffffffffffffffffffffffff1663c0c53b8b3085856040518463ffffffff1660e01b8152600401610338939291906109c9565b5f604051808303815f87803b15801561034f575f5ffd5b505af1158015610361573d5f5f3e3d5ffd5b505050508273ffffffffffffffffffffffffffffffffffffffff1663983b2d56826040518263ffffffff1660e01b815260040161039e91906108db565b5f604051808303815f87803b1580156103b5575f5ffd5b505af11580156103c7573d5f5f3e3d5ffd5b505050508173ffffffffffffffffffffffffffffffffffffffff16631129753f826040518263ffffffff1660e01b815260040161040491906108db565b5f604051808303815f87803b15801561041b575f5ffd5b505af115801561042d573d5f5f3e3d5ffd5b505050508273ffffffffffffffffffffffffffffffffffffffff1663f2fde38b336040518263ffffffff1660e01b815260040161046a91906108db565b5f604051808303815f87803b158015610481575f5ffd5b505af1158015610493573d5f5f3e3d5ffd5b505050508173ffffffffffffffffffffffffffffffffffffffff1663f2fde38b336040518263ffffffff1660e01b81526004016104d091906108db565b5f604051808303815f87803b1580156104e7575f5ffd5b505af11580156104f9573d5f5f3e3d5ffd5b505050508073ffffffffffffffffffffffffffffffffffffffff1663f2fde38b336040518263ffffffff1660e01b815260040161053691906108db565b5f604051808303815f87803b15801561054d575f5ffd5b505af115801561055f573d5f5f3e3d5ffd5b505050508173ffffffffffffffffffffffffffffffffffffffff168373ffffffffffffffffffffffffffffffffffffffff163373ffffffffffffffffffffffffffffffffffffffff167f6021fa16854aa87708aebde3d66e672bf9f0ace0bc3c4d99fcd6dbd8d7bee245846040516105d791906108db565b60405180910390a4909192565b6105ec610756565b6105f55f6107d4565b565b5f5f5f9054906101000a900473ffffffffffffffffffffffffffffffffffffffff16905090565b610626610756565b5f73ffffffffffffffffffffffffffffffffffffffff168173ffffffffffffffffffffffffffffffffffffffff1603610694576040517f08c379a000000000000000000000000000000000000000000000000000000000815260040161068b90610a7e565b60405180910390fd5b61069d816107d4565b50565b5f763d602d80600a3d3981f3363d3d373d3d3d363d730000008260601b60e81c175f526e5af43d82803e903d91602b57fd5bf38260781b17602052603760095ff090505f73ffffffffffffffffffffffffffffffffffffffff168173ffffffffffffffffffffffffffffffffffffffff1603610751576040517f08c379a000000000000000000000000000000000000000000000000000000000815260040161074890610ae6565b60405180910390fd5b919050565b61075e610895565b73ffffffffffffffffffffffffffffffffffffffff1661077c6105f7565b73ffffffffffffffffffffffffffffffffffffffff16146107d2576040517f08c379a00000000000000000000000000000000000000000000000000000000081526004016107c990610b4e565b60405180910390fd5b565b5f5f5f9054906101000a900473ffffffffffffffffffffffffffffffffffffffff169050815f5f6101000a81548173ffffffffffffffffffffffffffffffffffffffff021916908373ffffffffffffffffffffffffffffffffffffffff1602179055508173ffffffffffffffffffffffffffffffffffffffff168173ffffffffffffffffffffffffffffffffffffffff167f8be0079c531659141344cd1fd0a4f28419497f9722a3daafe3b4186f6b6457e060405160405180910390a35050565b5f33905090565b5f73ffffffffffffffffffffffffffffffffffffffff82169050919050565b5f6108c58261089c565b9050919050565b6108d5816108bb565b82525050565b5f6020820190506108ee5f8301846108cc565b92915050565b5f6108fe8261089c565b9050919050565b61090e816108f4565b82525050565b5f6060820190506109275f8301866108cc565b6109346020830185610905565b61094160408301846108cc565b949350505050565b5f5ffd5b610956816108bb565b8114610960575f5ffd5b50565b5f813590506109718161094d565b92915050565b5f6020828403121561098c5761098b610949565b5b5f61099984828501610963565b91505092915050565b5f6040820190506109b55f8301856108cc565b6109c260208301846108cc565b9392505050565b5f6060820190506109dc5f8301866108cc565b6109e960208301856108cc565b6109f66040830184610905565b949350505050565b5f82825260208201905092915050565b7f4f776e61626c653a206e6577206f776e657220697320746865207a65726f20615f8201527f6464726573730000000000000000000000000000000000000000000000000000602082015250565b5f610a686026836109fe565b9150610a7382610a0e565b604082019050919050565b5f6020820190508181035f830152610a9581610a5c565b9050919050565b7f455243313136373a20637265617465206661696c6564000000000000000000005f82015250565b5f610ad06016836109fe565b9150610adb82610a9c565b602082019050919050565b5f6020820190508181035f830152610afd81610ac4565b9050919050565b7f4f776e61626c653a2063616c6c6572206973206e6f7420746865206f776e65725f82015250565b5f610b386020836109fe565b9150610b4382610b04565b602082019050919050565b5f6020820190508181035f830152610b6581610b2c565b905091905056fea26469706673582212202a93dc3b73e8574414f99e5b0bab8e8fc87f07c680dcb70d3c617d8082644d1664736f6c634300081c003360a06040523073ffffffffffffffffffffffffffffffffffffffff1660809073ffffffffffffffffffffffffffffffffffffffff16815250348015610042575f5ffd5b5061005161005660201b60201c565b6101e6565b5f60019054906101000a900460ff16156100a5576040517f08c379a000000000000000000000000000000000000000000000000000000000815260040161009c90610194565b60405180910390fd5b60ff80165f5f9054906101000a900460ff1660ff16146101125760ff5f5f6101000a81548160ff021916908360ff1602179055507f7f26b83ff96e1f2b6a682f133852f6798a09c465da95921460cefb384740249860ff60405161010991906101cd565b60405180910390a15b565b5f82825260208201905092915050565b7f496e697469616c697a61626c653a20636f6e747261637420697320696e6974695f8201527f616c697a696e6700000000000000000000000000000000000000000000000000602082015250565b5f61017e602783610114565b915061018982610124565b604082019050919050565b5f6020820190508181035f8301526101ab81610172565b9050919050565b5f60ff82169050919050565b6101c7816101b2565b82525050565b5f6020820190506101e05f8301846101be565b92915050565b60805161463f61021a5f395f818161086a015281816108f801528181610ad201528181610b600152610c0f015261463f5ff3fe6080604052600436106101b6575f3560e01c8063715018a6116100eb578063a457c2d711610089578063d505accf11610063578063d505accf146105fe578063dd62ed3e14610626578063f2fde38b14610662578063f46eccc41461068a576101b6565b8063a457c2d71461055e578063a9059cbb1461059a578063c4d66de8146105d6576101b6565b806384b0196e116100c557806384b0196e146104b25780638da5cb5b146104e257806395d89b411461050c578063983b2d5614610536576101b6565b8063715018a61461043857806379cc67901461044e5780637ecebe0014610476576101b6565b80633659cfe61161015857806342966c681161013257806342966c681461038e5780634f1ef286146103b657806352d1902d146103d257806370a08231146103fc576101b6565b80633659cfe614610302578063395093511461032a57806340c10f1914610366576101b6565b806323b872dd1161019457806323b872dd1461024a5780633092afd514610286578063313ce567146102ae5780633644e515146102d8576101b6565b806306fdde03146101ba578063095ea7b3146101e457806318160ddd14610220575b5f5ffd5b3480156101c5575f5ffd5b506101ce6106c6565b6040516101db9190612bed565b60405180910390f35b3480156101ef575f5ffd5b5061020a60048036038101906102059190612cab565b610756565b6040516102179190612d03565b60405180910390f35b34801561022b575f5ffd5b50610234610778565b6040516102419190612d2b565b60405180910390f35b348015610255575f5ffd5b50610270600480360381019061026b9190612d44565b610781565b60405161027d9190612d03565b60405180910390f35b348015610291575f5ffd5b506102ac60048036038101906102a79190612d94565b6107af565b005b3480156102b9575f5ffd5b506102c2610852565b6040516102cf9190612dda565b60405180910390f35b3480156102e3575f5ffd5b506102ec61085a565b6040516102f99190612e0b565b60405180910390f35b34801561030d575f5ffd5b5061032860048036038101906103239190612d94565b610868565b005b348015610335575f5ffd5b50610350600480360381019061034b9190612cab565b6109ee565b60405161035d9190612d03565b60405180910390f35b348015610371575f5ffd5b5061038c60048036038101906103879190612cab565b610a24565b005b348015610399575f5ffd5b506103b460048036038101906103af9190612e24565b610abc565b005b6103d060048036038101906103cb9190612f7b565b610ad0565b005b3480156103dd575f5ffd5b506103e6610c0c565b6040516103f39190612e0b565b60405180910390f35b348015610407575f5ffd5b50610422600480360381019061041d9190612d94565b610cc3565b60405161042f9190612d2b565b60405180910390f35b348015610443575f5ffd5b5061044c610d09565b005b348015610459575f5ffd5b50610474600480360381019061046f9190612cab565b610d1c565b005b348015610481575f5ffd5b5061049c60048036038101906104979190612d94565b610d3c565b6040516104a99190612d2b565b60405180910390f35b3480156104bd575f5ffd5b506104c6610d8a565b6040516104d997969594939291906130d5565b60405180910390f35b3480156104ed575f5ffd5b506104f6610e86565b6040516105039190613157565b60405180910390f35b348015610517575f5ffd5b50610520610eae565b60405161052d9190612bed565b60405180910390f35b348015610541575f5ffd5b5061055c60048036038101906105579190612d94565b610f3e565b005b348015610569575f5ffd5b50610584600480360381019061057f9190612cab565b610fe2565b6040516105919190612d03565b60405180910390f35b3480156105a5575f5ffd5b506105c060048036038101906105bb9190612cab565b611057565b6040516105cd9190612d03565b60405180910390f35b3480156105e1575f5ffd5b506105fc60048036038101906105f79190612d94565b611079565b005b348015610609575f5ffd5b50610624600480360381019061061f91906131c4565b61127f565b005b348015610631575f5ffd5b5061064c60048036038101906106479190613261565b6113be565b6040516106599190612d2b565b60405180910390f35b34801561066d575f5ffd5b5061068860048036038101906106839190612d94565b611440565b005b348015610695575f5ffd5b506106b060048036038101906106ab9190612d94565b6114c2565b6040516106bd9190612d03565b60405180910390f35b6060603680546106d5906132cc565b80601f0160208091040260200160405190810160405280929190818152602001828054610701906132cc565b801561074c5780601f106107235761010080835404028352916020019161074c565b820191905f5260205f20905b81548152906001019060200180831161072f57829003601f168201915b5050505050905090565b5f5f6107606114e0565b905061076d8185856114e7565b600191505092915050565b5f603554905090565b5f5f61078b6114e0565b90506107988582856116aa565b6107a3858585611735565b60019150509392505050565b6107b76119a4565b5f6101945f8373ffffffffffffffffffffffffffffffffffffffff1673ffffffffffffffffffffffffffffffffffffffff1681526020019081526020015f205f6101000a81548160ff0219169083151502179055508073ffffffffffffffffffffffffffffffffffffffff167fe94479a9f7e1952cc78f2d6baab678adc1b772d936c6583def489e524cb6669260405160405180910390a250565b5f6012905090565b5f610863611a22565b905090565b7f000000000000000000000000000000000000000000000000000000000000000073ffffffffffffffffffffffffffffffffffffffff163073ffffffffffffffffffffffffffffffffffffffff16036108f6576040517f08c379a00000000000000000000000000000000000000000000000000000000081526004016108ed9061336c565b60405180910390fd5b7f000000000000000000000000000000000000000000000000000000000000000073ffffffffffffffffffffffffffffffffffffffff16610935611a30565b73ffffffffffffffffffffffffffffffffffffffff161461098b576040517f08c379a0000000000000000000000000000000000000000000000000000000008152600401610982906133fa565b60405180910390fd5b61099481611a83565b6109eb815f67ffffffffffffffff8111156109b2576109b1612e57565b5b6040519080825280601f01601f1916602001820160405280156109e45781602001600182028036833780820191505090505b505f611a8e565b50565b5f5f6109f86114e0565b9050610a19818585610a0a85896113be565b610a149190613445565b6114e7565b600191505092915050565b6101945f3373ffffffffffffffffffffffffffffffffffffffff1673ffffffffffffffffffffffffffffffffffffffff1681526020019081526020015f205f9054906101000a900460ff16610aae576040517f08c379a0000000000000000000000000000000000000000000000000000000008152600401610aa5906134c2565b60405180910390fd5b610ab88282611bf8565b5050565b610acd610ac76114e0565b82611d47565b50565b7f000000000000000000000000000000000000000000000000000000000000000073ffffffffffffffffffffffffffffffffffffffff163073ffffffffffffffffffffffffffffffffffffffff1603610b5e576040517f08c379a0000000000000000000000000000000000000000000000000000000008152600401610b559061336c565b60405180910390fd5b7f000000000000000000000000000000000000000000000000000000000000000073ffffffffffffffffffffffffffffffffffffffff16610b9d611a30565b73ffffffffffffffffffffffffffffffffffffffff1614610bf3576040517f08c379a0000000000000000000000000000000000000000000000000000000008152600401610bea906133fa565b60405180910390fd5b610bfc82611a83565b610c0882826001611a8e565b5050565b5f7f000000000000000000000000000000000000000000000000000000000000000073ffffffffffffffffffffffffffffffffffffffff163073ffffffffffffffffffffffffffffffffffffffff1614610c9b576040517f08c379a0000000000000000000000000000000000000000000000000000000008152600401610c9290613550565b60405180910390fd5b7f360894a13ba1a3210667c828492db98dca3e2076cc3735a920a3ca505d382bbc5f1b905090565b5f60335f8373ffffffffffffffffffffffffffffffffffffffff1673ffffffffffffffffffffffffffffffffffffffff1681526020019081526020015f20549050919050565b610d116119a4565b610d1a5f611f0c565b565b610d2e82610d286114e0565b836116aa565b610d388282611d47565b5050565b5f610d836101615f8473ffffffffffffffffffffffffffffffffffffffff1673ffffffffffffffffffffffffffffffffffffffff1681526020019081526020015f20611fcf565b9050919050565b5f6060805f5f5f60605f5f1b61012d54148015610dab57505f5f1b61012e54145b610dea576040517f08c379a0000000000000000000000000000000000000000000000000000000008152600401610de1906135b8565b60405180910390fd5b610df2611fdb565b610dfa61206c565b46305f5f1b5f67ffffffffffffffff811115610e1957610e18612e57565b5b604051908082528060200260200182016040528015610e475781602001602082028036833780820191505090505b507f0f00000000000000000000000000000000000000000000000000000000000000959493929190965096509650965096509650965090919293949596565b5f60975f9054906101000a900473ffffffffffffffffffffffffffffffffffffffff16905090565b606060378054610ebd906132cc565b80601f0160208091040260200160405190810160405280929190818152602001828054610ee9906132cc565b8015610f345780601f10610f0b57610100808354040283529160200191610f34565b820191905f5260205f20905b815481529060010190602001808311610f1757829003601f168201915b5050505050905090565b610f466119a4565b60016101945f8373ffffffffffffffffffffffffffffffffffffffff1673ffffffffffffffffffffffffffffffffffffffff1681526020019081526020015f205f6101000a81548160ff0219169083151502179055508073ffffffffffffffffffffffffffffffffffffffff167f6ae172837ea30b801fbfcdd4108aa1d5bf8ff775444fd70256b44e6bf3dfc3f660405160405180910390a250565b5f5f610fec6114e0565b90505f610ff982866113be565b90508381101561103e576040517f08c379a000000000000000000000000000000000000000000000000000000000815260040161103590613646565b60405180910390fd5b61104b82868684036114e7565b60019250505092915050565b5f5f6110616114e0565b905061106e818585611735565b600191505092915050565b5f5f60019054906101000a900460ff161590508080156110a9575060015f5f9054906101000a900460ff1660ff16105b806110d657506110b8306120fd565b1580156110d5575060015f5f9054906101000a900460ff1660ff16145b5b611115576040517f08c379a000000000000000000000000000000000000000000000000000000000815260040161110c906136d4565b60405180910390fd5b60015f5f6101000a81548160ff021916908360ff16021790555080156111505760015f60016101000a81548160ff0219169083151502179055505b6111c46040518060400160405280600681526020017f50686c6f746500000000000000000000000000000000000000000000000000008152506040518060400160405280600681526020017f50484c4f5445000000000000000000000000000000000000000000000000000081525061211f565b6112026040518060400160405280600681526020017f50686c6f7465000000000000000000000000000000000000000000000000000081525061217b565b61120a61220b565b61121261225b565b61121a6122b3565b61122382611f0c565b801561127b575f5f60016101000a81548160ff0219169083151502179055507f7f26b83ff96e1f2b6a682f133852f6798a09c465da95921460cefb384740249860016040516112729190613734565b60405180910390a15b5050565b834211156112c2576040517f08c379a00000000000000000000000000000000000000000000000000000000081526004016112b990613797565b60405180910390fd5b5f7f6e71edae12b1b97f4d1f60370fef10105fa2faae0126114a169c64845d6126c98888886112f08c612303565b89604051602001611306969594939291906137b5565b6040516020818303038152906040528051906020012090505f6113288261235f565b90505f61133782878787612378565b90508973ffffffffffffffffffffffffffffffffffffffff168173ffffffffffffffffffffffffffffffffffffffff16146113a7576040517f08c379a000000000000000000000000000000000000000000000000000000000815260040161139e9061385e565b60405180910390fd5b6113b28a8a8a6114e7565b50505050505050505050565b5f60345f8473ffffffffffffffffffffffffffffffffffffffff1673ffffffffffffffffffffffffffffffffffffffff1681526020019081526020015f205f8373ffffffffffffffffffffffffffffffffffffffff1673ffffffffffffffffffffffffffffffffffffffff1681526020019081526020015f2054905092915050565b6114486119a4565b5f73ffffffffffffffffffffffffffffffffffffffff168173ffffffffffffffffffffffffffffffffffffffff16036114b6576040517f08c379a00000000000000000000000000000000000000000000000000000000081526004016114ad906138ec565b60405180910390fd5b6114bf81611f0c565b50565b610194602052805f5260405f205f915054906101000a900460ff1681565b5f33905090565b5f73ffffffffffffffffffffffffffffffffffffffff168373ffffffffffffffffffffffffffffffffffffffff1603611555576040517f08c379a000000000000000000000000000000000000000000000000000000000815260040161154c9061397a565b60405180910390fd5b5f73ffffffffffffffffffffffffffffffffffffffff168273ffffffffffffffffffffffffffffffffffffffff16036115c3576040517f08c379a00000000000000000000000000000000000000000000000000000000081526004016115ba90613a08565b60405180910390fd5b8060345f8573ffffffffffffffffffffffffffffffffffffffff1673ffffffffffffffffffffffffffffffffffffffff1681526020019081526020015f205f8473ffffffffffffffffffffffffffffffffffffffff1673ffffffffffffffffffffffffffffffffffffffff1681526020019081526020015f20819055508173ffffffffffffffffffffffffffffffffffffffff168373ffffffffffffffffffffffffffffffffffffffff167f8c5be1e5ebec7d5bd14f71427d1e84f3dd0314c0f7b2291e5b200ac8c7c3b9258360405161169d9190612d2b565b60405180910390a3505050565b5f6116b584846113be565b90507fffffffffffffffffffffffffffffffffffffffffffffffffffffffffffffffff811461172f5781811015611721576040517f08c379a000000000000000000000000000000000000000000000000000000000815260040161171890613a70565b60405180910390fd5b61172e84848484036114e7565b5b50505050565b5f73ffffffffffffffffffffffffffffffffffffffff168373ffffffffffffffffffffffffffffffffffffffff16036117a3576040517f08c379a000000000000000000000000000000000000000000000000000000000815260040161179a90613afe565b60405180910390fd5b5f73ffffffffffffffffffffffffffffffffffffffff168273ffffffffffffffffffffffffffffffffffffffff1603611811576040517f08c379a000000000000000000000000000000000000000000000000000000000815260040161180890613b8c565b60405180910390fd5b61181c8383836123a1565b5f60335f8573ffffffffffffffffffffffffffffffffffffffff1673ffffffffffffffffffffffffffffffffffffffff1681526020019081526020015f20549050818110156118a0576040517f08c379a000000000000000000000000000000000000000000000000000000000815260040161189790613c1a565b60405180910390fd5b81810360335f8673ffffffffffffffffffffffffffffffffffffffff1673ffffffffffffffffffffffffffffffffffffffff1681526020019081526020015f20819055508160335f8573ffffffffffffffffffffffffffffffffffffffff1673ffffffffffffffffffffffffffffffffffffffff1681526020019081526020015f205f82825401925050819055508273ffffffffffffffffffffffffffffffffffffffff168473ffffffffffffffffffffffffffffffffffffffff167fddf252ad1be2c89b69c2b068fc378daa952ba7f163c4a11628f55a4df523b3ef8460405161198b9190612d2b565b60405180910390a361199e8484846123a6565b50505050565b6119ac6114e0565b73ffffffffffffffffffffffffffffffffffffffff166119ca610e86565b73ffffffffffffffffffffffffffffffffffffffff1614611a20576040517f08c379a0000000000000000000000000000000000000000000000000000000008152600401611a1790613c82565b60405180910390fd5b565b5f611a2b6123ab565b905090565b5f611a5c7f360894a13ba1a3210667c828492db98dca3e2076cc3735a920a3ca505d382bbc5f1b61240e565b5f015f9054906101000a900473ffffffffffffffffffffffffffffffffffffffff16905090565b611a8b6119a4565b50565b611ab97f4910fdfa16fed3260ed0e7147f7cc6da11a60208b5b9406d12a635614ffd91435f1b612417565b5f015f9054906101000a900460ff1615611adb57611ad683612420565b611bf3565b8273ffffffffffffffffffffffffffffffffffffffff166352d1902d6040518163ffffffff1660e01b8152600401602060405180830381865afa925050508015611b4357506040513d601f19601f82011682018060405250810190611b409190613cb4565b60015b611b82576040517f08c379a0000000000000000000000000000000000000000000000000000000008152600401611b7990613d4f565b60405180910390fd5b7f360894a13ba1a3210667c828492db98dca3e2076cc3735a920a3ca505d382bbc5f1b8114611be6576040517f08c379a0000000000000000000000000000000000000000000000000000000008152600401611bdd90613ddd565b60405180910390fd5b50611bf28383836124d6565b5b505050565b5f73ffffffffffffffffffffffffffffffffffffffff168273ffffffffffffffffffffffffffffffffffffffff1603611c66576040517f08c379a0000000000000000000000000000000000000000000000000000000008152600401611c5d90613e45565b60405180910390fd5b611c715f83836123a1565b8060355f828254611c829190613445565b925050819055508060335f8473ffffffffffffffffffffffffffffffffffffffff1673ffffffffffffffffffffffffffffffffffffffff1681526020019081526020015f205f82825401925050819055508173ffffffffffffffffffffffffffffffffffffffff165f73ffffffffffffffffffffffffffffffffffffffff167fddf252ad1be2c89b69c2b068fc378daa952ba7f163c4a11628f55a4df523b3ef83604051611d309190612d2b565b60405180910390a3611d435f83836123a6565b5050565b5f73ffffffffffffffffffffffffffffffffffffffff168273ffffffffffffffffffffffffffffffffffffffff1603611db5576040517f08c379a0000000000000000000000000000000000000000000000000000000008152600401611dac90613ed3565b60405180910390fd5b611dc0825f836123a1565b5f60335f8473ffffffffffffffffffffffffffffffffffffffff1673ffffffffffffffffffffffffffffffffffffffff1681526020019081526020015f2054905081811015611e44576040517f08c379a0000000000000000000000000000000000000000000000000000000008152600401611e3b90613f61565b60405180910390fd5b81810360335f8573ffffffffffffffffffffffffffffffffffffffff1673ffffffffffffffffffffffffffffffffffffffff1681526020019081526020015f20819055508160355f82825403925050819055505f73ffffffffffffffffffffffffffffffffffffffff168373ffffffffffffffffffffffffffffffffffffffff167fddf252ad1be2c89b69c2b068fc378daa952ba7f163c4a11628f55a4df523b3ef84604051611ef49190612d2b565b60405180910390a3611f07835f846123a6565b505050565b5f60975f9054906101000a900473ffffffffffffffffffffffffffffffffffffffff1690508160975f6101000a81548173ffffffffffffffffffffffffffffffffffffffff021916908373ffffffffffffffffffffffffffffffffffffffff1602179055508173ffffffffffffffffffffffffffffffffffffffff168173ffffffffffffffffffffffffffffffffffffffff167f8be0079c531659141344cd1fd0a4f28419497f9722a3daafe3b4186f6b6457e060405160405180910390a35050565b5f815f01549050919050565b606061012f8054611feb906132cc565b80601f0160208091040260200160405190810160405280929190818152602001828054612017906132cc565b80156120625780601f1061203957610100808354040283529160200191612062565b820191905f5260205f20905b81548152906001019060200180831161204557829003601f168201915b5050505050905090565b6060610130805461207c906132cc565b80601f01602080910402602001604051908101604052809291908181526020018280546120a8906132cc565b80156120f35780601f106120ca576101008083540402835291602001916120f3565b820191905f5260205f20905b8154815290600101906020018083116120d657829003601f168201915b5050505050905090565b5f5f8273ffffffffffffffffffffffffffffffffffffffff163b119050919050565b5f60019054906101000a900460ff1661216d576040517f08c379a000000000000000000000000000000000000000000000000000000000815260040161216490613fef565b60405180910390fd5b6121778282612501565b5050565b5f60019054906101000a900460ff166121c9576040517f08c379a00000000000000000000000000000000000000000000000000000000081526004016121c090613fef565b60405180910390fd5b612208816040518060400160405280600181526020017f3100000000000000000000000000000000000000000000000000000000000000815250612573565b50565b5f60019054906101000a900460ff16612259576040517f08c379a000000000000000000000000000000000000000000000000000000000815260040161225090613fef565b60405180910390fd5b565b5f60019054906101000a900460ff166122a9576040517f08c379a00000000000000000000000000000000000000000000000000000000081526004016122a090613fef565b60405180910390fd5b6122b16125fb565b565b5f60019054906101000a900460ff16612301576040517f08c379a00000000000000000000000000000000000000000000000000000000081526004016122f890613fef565b60405180910390fd5b565b5f5f6101615f8473ffffffffffffffffffffffffffffffffffffffff1673ffffffffffffffffffffffffffffffffffffffff1681526020019081526020015f20905061234e81611fcf565b91506123598161265b565b50919050565b5f61237161236b611a22565b8361266f565b9050919050565b5f5f5f612387878787876126af565b9150915061239481612787565b8192505050949350505050565b505050565b505050565b5f7f8b73c3c69bb8fe3d512ecc4cf759cc79239f7b179b0ffacaa9a75d522b39400f6123d56128ec565b6123dd612954565b46306040516020016123f395949392919061400d565b60405160208183030381529060405280519060200120905090565b5f819050919050565b5f819050919050565b612429816120fd565b612468576040517f08c379a000000000000000000000000000000000000000000000000000000000815260040161245f906140ce565b60405180910390fd5b806124947f360894a13ba1a3210667c828492db98dca3e2076cc3735a920a3ca505d382bbc5f1b61240e565b5f015f6101000a81548173ffffffffffffffffffffffffffffffffffffffff021916908373ffffffffffffffffffffffffffffffffffffffff16021790555050565b6124df836129bc565b5f825111806124eb5750805b156124fc576124fa8383612a0b565b505b505050565b5f60019054906101000a900460ff1661254f576040517f08c379a000000000000000000000000000000000000000000000000000000000815260040161254690613fef565b60405180910390fd5b816036908161255e9190614283565b50806037908161256e9190614283565b505050565b5f60019054906101000a900460ff166125c1576040517f08c379a00000000000000000000000000000000000000000000000000000000081526004016125b890613fef565b60405180910390fd5b8161012f90816125d19190614283565b508061013090816125e29190614283565b505f5f1b61012d819055505f5f1b61012e819055505050565b5f60019054906101000a900460ff16612649576040517f08c379a000000000000000000000000000000000000000000000000000000000815260040161264090613fef565b60405180910390fd5b6126596126546114e0565b611f0c565b565b6001815f015f828254019250508190555050565b5f6040517f190100000000000000000000000000000000000000000000000000000000000081528360028201528260228201526042812091505092915050565b5f5f7f7fffffffffffffffffffffffffffffff5d576e7357a4501ddfe92f46681b20a0835f1c11156126e7575f60039150915061277e565b5f6001878787876040515f815260200160405260405161270a9493929190614352565b6020604051602081039080840390855afa15801561272a573d5f5f3e3d5ffd5b5050506020604051035190505f73ffffffffffffffffffffffffffffffffffffffff168173ffffffffffffffffffffffffffffffffffffffff1603612776575f6001925092505061277e565b805f92509250505b94509492505050565b5f600481111561279a57612799614395565b5b8160048111156127ad576127ac614395565b5b03156128e957600160048111156127c7576127c6614395565b5b8160048111156127da576127d9614395565b5b0361281a576040517f08c379a00000000000000000000000000000000000000000000000000000000081526004016128119061440c565b60405180910390fd5b6002600481111561282e5761282d614395565b5b81600481111561284157612840614395565b5b03612881576040517f08c379a000000000000000000000000000000000000000000000000000000000815260040161287890614474565b60405180910390fd5b6003600481111561289557612894614395565b5b8160048111156128a8576128a7614395565b5b036128e8576040517f08c379a00000000000000000000000000000000000000000000000000000000081526004016128df90614502565b60405180910390fd5b5b50565b5f5f6128f6611fdb565b90505f81511115612911578080519060200120915050612951565b5f61012d5490505f5f1b811461292b578092505050612951565b7fc5d2460186f7233c927e7db2dcc703c0e500b653ca82273b7bfad8045d85a470925050505b90565b5f5f61295e61206c565b90505f815111156129795780805190602001209150506129b9565b5f61012e5490505f5f1b81146129935780925050506129b9565b7fc5d2460186f7233c927e7db2dcc703c0e500b653ca82273b7bfad8045d85a470925050505b90565b6129c581612420565b8073ffffffffffffffffffffffffffffffffffffffff167fbc7cd75a20ee27fd9adebab32041f755214dbc6bffa90cc0225b39da2e5c2d3b60405160405180910390a250565b6060612a3083836040518060600160405280602781526020016145e360279139612a38565b905092915050565b60605f5f8573ffffffffffffffffffffffffffffffffffffffff1685604051612a619190614564565b5f60405180830381855af49150503d805f8114612a99576040519150601f19603f3d011682016040523d82523d5f602084013e612a9e565b606091505b5091509150612aaf86838387612aba565b925050509392505050565b60608315612b1b575f835103612b1357612ad3856120fd565b612b12576040517f08c379a0000000000000000000000000000000000000000000000000000000008152600401612b09906145c4565b60405180910390fd5b5b829050612b26565b612b258383612b2e565b5b949350505050565b5f82511115612b405781518083602001fd5b806040517f08c379a0000000000000000000000000000000000000000000000000000000008152600401612b749190612bed565b60405180910390fd5b5f81519050919050565b5f82825260208201905092915050565b8281835e5f83830152505050565b5f601f19601f8301169050919050565b5f612bbf82612b7d565b612bc98185612b87565b9350612bd9818560208601612b97565b612be281612ba5565b840191505092915050565b5f6020820190508181035f830152612c058184612bb5565b905092915050565b5f604051905090565b5f5ffd5b5f5ffd5b5f73ffffffffffffffffffffffffffffffffffffffff82169050919050565b5f612c4782612c1e565b9050919050565b612c5781612c3d565b8114612c61575f5ffd5b50565b5f81359050612c7281612c4e565b92915050565b5f819050919050565b612c8a81612c78565b8114612c94575f5ffd5b50565b5f81359050612ca581612c81565b92915050565b5f5f60408385031215612cc157612cc0612c16565b5b5f612cce85828601612c64565b9250506020612cdf85828601612c97565b9150509250929050565b5f8115159050919050565b612cfd81612ce9565b82525050565b5f602082019050612d165f830184612cf4565b92915050565b612d2581612c78565b82525050565b5f602082019050612d3e5f830184612d1c565b92915050565b5f5f5f60608486031215612d5b57612d5a612c16565b5b5f612d6886828701612c64565b9350506020612d7986828701612c64565b9250506040612d8a86828701612c97565b9150509250925092565b5f60208284031215612da957612da8612c16565b5b5f612db684828501612c64565b91505092915050565b5f60ff82169050919050565b612dd481612dbf565b82525050565b5f602082019050612ded5f830184612dcb565b92915050565b5f819050919050565b612e0581612df3565b82525050565b5f602082019050612e1e5f830184612dfc565b92915050565b5f60208284031215612e3957612e38612c16565b5b5f612e4684828501612c97565b91505092915050565b5f5ffd5b5f5ffd5b7f4e487b71000000000000000000000000000000000000000000000000000000005f52604160045260245ffd5b612e8d82612ba5565b810181811067ffffffffffffffff82111715612eac57612eab612e57565b5b80604052505050565b5f612ebe612c0d565b9050612eca8282612e84565b919050565b5f67ffffffffffffffff821115612ee957612ee8612e57565b5b612ef282612ba5565b9050602081019050919050565b828183375f83830152505050565b5f612f1f612f1a84612ecf565b612eb5565b905082815260208101848484011115612f3b57612f3a612e53565b5b612f46848285612eff565b509392505050565b5f82601f830112612f6257612f61612e4f565b5b8135612f72848260208601612f0d565b91505092915050565b5f5f60408385031215612f9157612f90612c16565b5b5f612f9e85828601612c64565b925050602083013567ffffffffffffffff811115612fbf57612fbe612c1a565b5b612fcb85828601612f4e565b9150509250929050565b5f7fff0000000000000000000000000000000000000000000000000000000000000082169050919050565b61300981612fd5565b82525050565b61301881612c3d565b82525050565b5f81519050919050565b5f82825260208201905092915050565b5f819050602082019050919050565b61305081612c78565b82525050565b5f6130618383613047565b60208301905092915050565b5f602082019050919050565b5f6130838261301e565b61308d8185613028565b935061309883613038565b805f5b838110156130c85781516130af8882613056565b97506130ba8361306d565b92505060018101905061309b565b5085935050505092915050565b5f60e0820190506130e85f83018a613000565b81810360208301526130fa8189612bb5565b9050818103604083015261310e8188612bb5565b905061311d6060830187612d1c565b61312a608083018661300f565b61313760a0830185612dfc565b81810360c08301526131498184613079565b905098975050505050505050565b5f60208201905061316a5f83018461300f565b92915050565b61317981612dbf565b8114613183575f5ffd5b50565b5f8135905061319481613170565b92915050565b6131a381612df3565b81146131ad575f5ffd5b50565b5f813590506131be8161319a565b92915050565b5f5f5f5f5f5f5f60e0888a0312156131df576131de612c16565b5b5f6131ec8a828b01612c64565b97505060206131fd8a828b01612c64565b965050604061320e8a828b01612c97565b955050606061321f8a828b01612c97565b94505060806132308a828b01613186565b93505060a06132418a828b016131b0565b92505060c06132528a828b016131b0565b91505092959891949750929550565b5f5f6040838503121561327757613276612c16565b5b5f61328485828601612c64565b925050602061329585828601612c64565b9150509250929050565b7f4e487b71000000000000000000000000000000000000000000000000000000005f52602260045260245ffd5b5f60028204905060018216806132e357607f821691505b6020821081036132f6576132f561329f565b5b50919050565b7f46756e6374696f6e206d7573742062652063616c6c6564207468726f756768205f8201527f64656c656761746563616c6c0000000000000000000000000000000000000000602082015250565b5f613356602c83612b87565b9150613361826132fc565b604082019050919050565b5f6020820190508181035f8301526133838161334a565b9050919050565b7f46756e6374696f6e206d7573742062652063616c6c6564207468726f756768205f8201527f6163746976652070726f78790000000000000000000000000000000000000000602082015250565b5f6133e4602c83612b87565b91506133ef8261338a565b604082019050919050565b5f6020820190508181035f830152613411816133d8565b9050919050565b7f4e487b71000000000000000000000000000000000000000000000000000000005f52601160045260245ffd5b5f61344f82612c78565b915061345a83612c78565b925082820190508082111561347257613471613418565b5b92915050565b7f4f6e6c79206d696e746572732063616e206d696e7400000000000000000000005f82015250565b5f6134ac601583612b87565b91506134b782613478565b602082019050919050565b5f6020820190508181035f8301526134d9816134a0565b9050919050565b7f555550535570677261646561626c653a206d757374206e6f742062652063616c5f8201527f6c6564207468726f7567682064656c656761746563616c6c0000000000000000602082015250565b5f61353a603883612b87565b9150613545826134e0565b604082019050919050565b5f6020820190508181035f8301526135678161352e565b9050919050565b7f4549503731323a20556e696e697469616c697a656400000000000000000000005f82015250565b5f6135a2601583612b87565b91506135ad8261356e565b602082019050919050565b5f6020820190508181035f8301526135cf81613596565b9050919050565b7f45524332303a2064656372656173656420616c6c6f77616e63652062656c6f775f8201527f207a65726f000000000000000000000000000000000000000000000000000000602082015250565b5f613630602583612b87565b915061363b826135d6565b604082019050919050565b5f6020820190508181035f83015261365d81613624565b9050919050565b7f496e697469616c697a61626c653a20636f6e747261637420697320616c7265615f8201527f647920696e697469616c697a6564000000000000000000000000000000000000602082015250565b5f6136be602e83612b87565b91506136c982613664565b604082019050919050565b5f6020820190508181035f8301526136eb816136b2565b9050919050565b5f819050919050565b5f819050919050565b5f61371e613719613714846136f2565b6136fb565b612dbf565b9050919050565b61372e81613704565b82525050565b5f6020820190506137475f830184613725565b92915050565b7f45524332305065726d69743a206578706972656420646561646c696e650000005f82015250565b5f613781601d83612b87565b915061378c8261374d565b602082019050919050565b5f6020820190508181035f8301526137ae81613775565b9050919050565b5f60c0820190506137c85f830189612dfc565b6137d5602083018861300f565b6137e2604083018761300f565b6137ef6060830186612d1c565b6137fc6080830185612d1c565b61380960a0830184612d1c565b979650505050505050565b7f45524332305065726d69743a20696e76616c6964207369676e617475726500005f82015250565b5f613848601e83612b87565b915061385382613814565b602082019050919050565b5f6020820190508181035f8301526138758161383c565b9050919050565b7f4f776e61626c653a206e6577206f776e657220697320746865207a65726f20615f8201527f6464726573730000000000000000000000000000000000000000000000000000602082015250565b5f6138d6602683612b87565b91506138e18261387c565b604082019050919050565b5f6020820190508181035f830152613903816138ca565b9050919050565b7f45524332303a20617070726f76652066726f6d20746865207a65726f206164645f8201527f7265737300000000000000000000000000000000000000000000000000000000602082015250565b5f613964602483612b87565b915061396f8261390a565b604082019050919050565b5f6020820190508181035f83015261399181613958565b9050919050565b7f45524332303a20617070726f766520746f20746865207a65726f2061646472655f8201527f7373000000000000000000000000000000000000000000000000000000000000602082015250565b5f6139f2602283612b87565b91506139fd82613998565b604082019050919050565b5f6020820190508181035f830152613a1f816139e6565b9050919050565b7f45524332303a20696e73756666696369656e7420616c6c6f77616e63650000005f82015250565b5f613a5a601d83612b87565b9150613a6582613a26565b602082019050919050565b5f6020820190508181035f830152613a8781613a4e565b9050919050565b7f45524332303a207472616e736665722066726f6d20746865207a65726f2061645f8201527f6472657373000000000000000000000000000000000000000000000000000000602082015250565b5f613ae8602583612b87565b9150613af382613a8e565b604082019050919050565b5f6020820190508181035f830152613b1581613adc565b9050919050565b7f45524332303a207472616e7366657220746f20746865207a65726f20616464725f8201527f6573730000000000000000000000000000000000000000000000000000000000602082015250565b5f613b76602383612b87565b9150613b8182613b1c565b604082019050919050565b5f6020820190508181035f830152613ba381613b6a565b9050919050565b7f45524332303a207472616e7366657220616d6f756e74206578636565647320625f8201527f616c616e63650000000000000000000000000000000000000000000000000000602082015250565b5f613c04602683612b87565b9150613c0f82613baa565b604082019050919050565b5f6020820190508181035f830152613c3181613bf8565b9050919050565b7f4f776e61626c653a2063616c6c6572206973206e6f7420746865206f776e65725f82015250565b5f613c6c602083612b87565b9150613c7782613c38565b602082019050919050565b5f6020820190508181035f830152613c9981613c60565b9050919050565b5f81519050613cae8161319a565b92915050565b5f60208284031215613cc957613cc8612c16565b5b5f613cd684828501613ca0565b91505092915050565b7f45524331393637557067726164653a206e657720696d706c656d656e746174695f8201527f6f6e206973206e6f742055555053000000000000000000000000000000000000602082015250565b5f613d39602e83612b87565b9150613d4482613cdf565b604082019050919050565b5f6020820190508181035f830152613d6681613d2d565b9050919050565b7f45524331393637557067726164653a20756e737570706f727465642070726f785f8201527f6961626c65555549440000000000000000000000000000000000000000000000602082015250565b5f613dc7602983612b87565b9150613dd282613d6d565b604082019050919050565b5f6020820190508181035f830152613df481613dbb565b9050919050565b7f45524332303a206d696e7420746f20746865207a65726f2061646472657373005f82015250565b5f613e2f601f83612b87565b9150613e3a82613dfb565b602082019050919050565b5f6020820190508181035f830152613e5c81613e23565b9050919050565b7f45524332303a206275726e2066726f6d20746865207a65726f206164647265735f8201527f7300000000000000000000000000000000000000000000000000000000000000602082015250565b5f613ebd602183612b87565b9150613ec882613e63565b604082019050919050565b5f6020820190508181035f830152613eea81613eb1565b9050919050565b7f45524332303a206275726e20616d6f756e7420657863656564732062616c616e5f8201527f6365000000000000000000000000000000000000000000000000000000000000602082015250565b5f613f4b602283612b87565b9150613f5682613ef1565b604082019050919050565b5f6020820190508181035f830152613f7881613f3f565b9050919050565b7f496e697469616c697a61626c653a20636f6e7472616374206973206e6f7420695f8201527f6e697469616c697a696e67000000000000000000000000000000000000000000602082015250565b5f613fd9602b83612b87565b9150613fe482613f7f565b604082019050919050565b5f6020820190508181035f83015261400681613fcd565b9050919050565b5f60a0820190506140205f830188612dfc565b61402d6020830187612dfc565b61403a6040830186612dfc565b6140476060830185612d1c565b614054608083018461300f565b9695505050505050565b7f455243313936373a206e657720696d706c656d656e746174696f6e206973206e5f8201527f6f74206120636f6e747261637400000000000000000000000000000000000000602082015250565b5f6140b8602d83612b87565b91506140c38261405e565b604082019050919050565b5f6020820190508181035f8301526140e5816140ac565b9050919050565b5f819050815f5260205f209050919050565b5f6020601f8301049050919050565b5f82821b905092915050565b5f600883026141487fffffffffffffffffffffffffffffffffffffffffffffffffffffffffffffffff8261410d565b614152868361410d565b95508019841693508086168417925050509392505050565b5f61418461417f61417a84612c78565b6136fb565b612c78565b9050919050565b5f819050919050565b61419d8361416a565b6141b16141a98261418b565b848454614119565b825550505050565b5f5f905090565b6141c86141b9565b6141d3818484614194565b505050565b5b818110156141f6576141eb5f826141c0565b6001810190506141d9565b5050565b601f82111561423b5761420c816140ec565b614215846140fe565b81016020851015614224578190505b614238614230856140fe565b8301826141d8565b50505b505050565b5f82821c905092915050565b5f61425b5f1984600802614240565b1980831691505092915050565b5f614273838361424c565b9150826002028217905092915050565b61428c82612b7d565b67ffffffffffffffff8111156142a5576142a4612e57565b5b6142af82546132cc565b6142ba8282856141fa565b5f60209050601f8311600181146142eb575f84156142d9578287015190505b6142e38582614268565b86555061434a565b601f1984166142f9866140ec565b5f5b82811015614320578489015182556001820191506020850194506020810190506142fb565b8683101561433d5784890151614339601f89168261424c565b8355505b6001600288020188555050505b505050505050565b5f6080820190506143655f830187612dfc565b6143726020830186612dcb565b61437f6040830185612dfc565b61438c6060830184612dfc565b95945050505050565b7f4e487b71000000000000000000000000000000000000000000000000000000005f52602160045260245ffd5b7f45434453413a20696e76616c6964207369676e617475726500000000000000005f82015250565b5f6143f6601883612b87565b9150614401826143c2565b602082019050919050565b5f6020820190508181035f830152614423816143ea565b9050919050565b7f45434453413a20696e76616c6964207369676e6174757265206c656e677468005f82015250565b5f61445e601f83612b87565b91506144698261442a565b602082019050919050565b5f6020820190508181035f83015261448b81614452565b9050919050565b7f45434453413a20696e76616c6964207369676e6174757265202773272076616c5f8201527f7565000000000000000000000000000000000000000000000000000000000000602082015250565b5f6144ec602283612b87565b91506144f782614492565b604082019050919050565b5f6020820190508181035f830152614519816144e0565b9050919050565b5f81519050919050565b5f81905092915050565b5f61453e82614520565b614548818561452a565b9350614558818560208601612b97565b80840191505092915050565b5f61456f8284614534565b915081905092915050565b7f416464726573733a2063616c6c20746f206e6f6e2d636f6e74726163740000005f82015250565b5f6145ae601d83612b87565b91506145b98261457a565b602082019050919050565b5f6020820190508181035f8301526145db816145a2565b905091905056fe416464726573733a206c6f772d6c6576656c2064656c65676174652063616c6c206661696c6564a2646970667358221220f568f5ad2c9369b55145310a12f8eca623f9464490af43efc86c967ea9836ba264736f6c634300081c003360a06040523073ffffffffffffffffffffffffffffffffffffffff1660809073ffffffffffffffffffffffffffffffffffffffff1681525061138860cd55348015610048575f5ffd5b5061005761005c60201b60201c565b6101ec565b5f60019054906101000a900460ff16156100ab576040517f08c379a00000000000000000000000000000000000000000000000000000000081526004016100a29061019a565b60405180910390fd5b60ff80165f5f9054906101000a900460ff1660ff16146101185760ff5f5f6101000a81548160ff021916908360ff1602179055507f7f26b83ff96e1f2b6a682f133852f6798a09c465da95921460cefb384740249860ff60405161010f91906101d3565b60405180910390a15b565b5f82825260208201905092915050565b7f496e697469616c697a61626c653a20636f6e747261637420697320696e6974695f8201527f616c697a696e6700000000000000000000000000000000000000000000000000602082015250565b5f61018460278361011a565b915061018f8261012a565b604082019050919050565b5f6020820190508181035f8301526101b181610178565b9050919050565b5f60ff82169050919050565b6101cd816101b8565b82525050565b5f6020820190506101e65f8301846101c4565b92915050565b6080516128cd6102205f395f8181610545015281816105d301528181610d0301528181610d910152610e4001526128cd5ff3fe60806040526004361061010c575f3560e01c806352d1902d11610094578063bd9d518b11610063578063bd9d518b14610341578063dac4e0081461037d578063efca2eed146103a5578063f2fde38b146103cf578063fe297d55146103f757610179565b806352d1902d146102ad578063715018a6146102d75780638da5cb5b146102ed578063b172b2221461031757610179565b80633cf17910116100db5780633cf179101461021f57806344e8225014610235578063485cc9551461023f5780634c68df67146102675780634f1ef2861461029157610179565b80630e53c3341461017d5780631129753f146101a5578063193a14d6146101cd5780633659cfe6146101f757610179565b36610179573460cb5f8282546101229190611939565b925050819055503373ffffffffffffffffffffffffffffffffffffffff167f10221063d064b7f08df50a7b688426682343e6067582ebc0802467b91b9ac7413460405161016f919061197b565b60405180910390a2005b5f5ffd5b348015610188575f5ffd5b506101a3600480360381019061019e91906119cf565b610421565b005b3480156101b0575f5ffd5b506101cb60048036038101906101c69190611a54565b6104af565b005b3480156101d8575f5ffd5b506101e161053d565b6040516101ee919061197b565b60405180910390f35b348015610202575f5ffd5b5061021d60048036038101906102189190611a54565b610543565b005b34801561022a575f5ffd5b506102336106c9565b005b61023d610b06565b005b34801561024a575f5ffd5b5061026560048036038101906102609190611a7f565b610b6e565b005b348015610272575f5ffd5b5061027b610cfb565b604051610288919061197b565b60405180910390f35b6102ab60048036038101906102a69190611bf9565b610d01565b005b3480156102b8575f5ffd5b506102c1610e3d565b6040516102ce9190611c6b565b60405180910390f35b3480156102e2575f5ffd5b506102eb610ef4565b005b3480156102f8575f5ffd5b50610301610f07565b60405161030e9190611c93565b60405180910390f35b348015610322575f5ffd5b5061032b610f2f565b6040516103389190611c93565b60405180910390f35b34801561034c575f5ffd5b5061036760048036038101906103629190611a54565b610f54565b604051610374919061197b565b60405180910390f35b348015610388575f5ffd5b506103a3600480360381019061039e9190611cac565b610f69565b005b3480156103b0575f5ffd5b506103b9611168565b6040516103c6919061197b565b60405180910390f35b3480156103da575f5ffd5b506103f560048036038101906103f09190611a54565b61116e565b005b348015610402575f5ffd5b5061040b6111f0565b6040516104189190611d45565b60405180910390f35b610429611215565b61271081111561046e576040517f08c379a000000000000000000000000000000000000000000000000000000000815260040161046590611db8565b60405180910390fd5b8060cd819055507f2654d799b66b699ec134ffbc0347b4da831defa83bd660ee4a743aa7c24fa1bf816040516104a4919061197b565b60405180910390a150565b6104b7611215565b8060ca5f6101000a81548173ffffffffffffffffffffffffffffffffffffffff021916908373ffffffffffffffffffffffffffffffffffffffff1602179055508073ffffffffffffffffffffffffffffffffffffffff167fe3cf2b71b55b62fc1a6c7b2f6ff944c1b70048908cff22f2e08d1144e7ca7edb60405160405180910390a250565b60cd5481565b7f000000000000000000000000000000000000000000000000000000000000000073ffffffffffffffffffffffffffffffffffffffff163073ffffffffffffffffffffffffffffffffffffffff16036105d1576040517f08c379a00000000000000000000000000000000000000000000000000000000081526004016105c890611e46565b60405180910390fd5b7f000000000000000000000000000000000000000000000000000000000000000073ffffffffffffffffffffffffffffffffffffffff16610610611293565b73ffffffffffffffffffffffffffffffffffffffff1614610666576040517f08c379a000000000000000000000000000000000000000000000000000000000815260040161065d90611ed4565b60405180910390fd5b61066f816112e6565b6106c6815f67ffffffffffffffff81111561068d5761068c611ad5565b5b6040519080825280601f01601f1916602001820160405280156106bf5781602001600182028036833780820191505090505b505f6112f1565b50565b5f60c95f9054906101000a900473ffffffffffffffffffffffffffffffffffffffff1673ffffffffffffffffffffffffffffffffffffffff166370a08231336040518263ffffffff1660e01b81526004016107249190611c93565b602060405180830381865afa15801561073f573d5f5f3e3d5ffd5b505050506040513d601f19601f820116820180604052508101906107639190611f06565b116107a3576040517f08c379a000000000000000000000000000000000000000000000000000000000815260040161079a90611f7b565b60405180910390fd5b5f60c95f9054906101000a900473ffffffffffffffffffffffffffffffffffffffff1673ffffffffffffffffffffffffffffffffffffffff166318160ddd6040518163ffffffff1660e01b8152600401602060405180830381865afa15801561080e573d5f5f3e3d5ffd5b505050506040513d601f19601f820116820180604052508101906108329190611f06565b90505f60c95f9054906101000a900473ffffffffffffffffffffffffffffffffffffffff1673ffffffffffffffffffffffffffffffffffffffff166370a08231336040518263ffffffff1660e01b815260040161088f9190611c93565b602060405180830381865afa1580156108aa573d5f5f3e3d5ffd5b505050506040513d601f19601f820116820180604052508101906108ce9190611f06565b90505f61271060cd5460cb546108e49190611f99565b6108ee9190612007565b90505f8383836108fe9190611f99565b6109089190612007565b905062278d0060ce5f3373ffffffffffffffffffffffffffffffffffffffff1673ffffffffffffffffffffffffffffffffffffffff1681526020019081526020015f20546109569190611939565b4211610997576040517f08c379a000000000000000000000000000000000000000000000000000000000815260040161098e90612081565b60405180910390fd5b4260ce5f3373ffffffffffffffffffffffffffffffffffffffff1673ffffffffffffffffffffffffffffffffffffffff1681526020019081526020015f20819055508060cc5f8282546109ea9190611939565b925050819055508060cb5f828254610a02919061209f565b925050819055505f3373ffffffffffffffffffffffffffffffffffffffff1682604051610a2e906120ff565b5f6040518083038185875af1925050503d805f8114610a68576040519150601f19603f3d011682016040523d82523d5f602084013e610a6d565b606091505b5050905080610ab1576040517f08c379a0000000000000000000000000000000000000000000000000000000008152600401610aa89061215d565b60405180910390fd5b3373ffffffffffffffffffffffffffffffffffffffff167fb17956903b0eeaf0b3d7594ff05a22faab59523d7c39363c95ca9dab6b249da483604051610af7919061197b565b60405180910390a25050505050565b3460cb5f828254610b179190611939565b925050819055503373ffffffffffffffffffffffffffffffffffffffff167f10221063d064b7f08df50a7b688426682343e6067582ebc0802467b91b9ac74134604051610b64919061197b565b60405180910390a2565b5f5f60019054906101000a900460ff16159050808015610b9e575060015f5f9054906101000a900460ff1660ff16105b80610bcb5750610bad3061145b565b158015610bca575060015f5f9054906101000a900460ff1660ff16145b5b610c0a576040517f08c379a0000000000000000000000000000000000000000000000000000000008152600401610c01906121eb565b60405180910390fd5b60015f5f6101000a81548160ff021916908360ff1602179055508015610c455760015f60016101000a81548160ff0219169083151502179055505b610c4d61147d565b610c56836114d5565b610c5e611598565b8160c95f6101000a81548173ffffffffffffffffffffffffffffffffffffffff021916908373ffffffffffffffffffffffffffffffffffffffff1602179055508015610cf6575f5f60016101000a81548160ff0219169083151502179055507f7f26b83ff96e1f2b6a682f133852f6798a09c465da95921460cefb38474024986001604051610ced919061224e565b60405180910390a15b505050565b60cb5481565b7f000000000000000000000000000000000000000000000000000000000000000073ffffffffffffffffffffffffffffffffffffffff163073ffffffffffffffffffffffffffffffffffffffff1603610d8f576040517f08c379a0000000000000000000000000000000000000000000000000000000008152600401610d8690611e46565b60405180910390fd5b7f000000000000000000000000000000000000000000000000000000000000000073ffffffffffffffffffffffffffffffffffffffff16610dce611293565b73ffffffffffffffffffffffffffffffffffffffff1614610e24576040517f08c379a0000000000000000000000000000000000000000000000000000000008152600401610e1b90611ed4565b60405180910390fd5b610e2d826112e6565b610e39828260016112f1565b5050565b5f7f000000000000000000000000000000000000000000000000000000000000000073ffffffffffffffffffffffffffffffffffffffff163073ffffffffffffffffffffffffffffffffffffffff1614610ecc576040517f08c379a0000000000000000000000000000000000000000000000000000000008152600401610ec3906122d7565b60405180910390fd5b7f360894a13ba1a3210667c828492db98dca3e2076cc3735a920a3ca505d382bbc5f1b905090565b610efc611215565b610f055f6114d5565b565b5f60335f9054906101000a900473ffffffffffffffffffffffffffffffffffffffff16905090565b60ca5f9054906101000a900473ffffffffffffffffffffffffffffffffffffffff1681565b60ce602052805f5260405f205f915090505481565b60ca5f9054906101000a900473ffffffffffffffffffffffffffffffffffffffff1673ffffffffffffffffffffffffffffffffffffffff163373ffffffffffffffffffffffffffffffffffffffff1614610ff8576040517f08c379a0000000000000000000000000000000000000000000000000000000008152600401610fef9061233f565b60405180910390fd5b60cb5482111561103d576040517f08c379a0000000000000000000000000000000000000000000000000000000008152600401611034906123a7565b60405180910390fd5b8160cb5f82825461104e919061209f565b925050819055508160cc5f8282546110669190611939565b925050819055505f8173ffffffffffffffffffffffffffffffffffffffff1683604051611092906120ff565b5f6040518083038185875af1925050503d805f81146110cc576040519150601f19603f3d011682016040523d82523d5f602084013e6110d1565b606091505b5050905080611115576040517f08c379a000000000000000000000000000000000000000000000000000000000815260040161110c9061215d565b60405180910390fd5b8173ffffffffffffffffffffffffffffffffffffffff167fb17956903b0eeaf0b3d7594ff05a22faab59523d7c39363c95ca9dab6b249da48460405161115b919061197b565b60405180910390a2505050565b60cc5481565b611176611215565b5f73ffffffffffffffffffffffffffffffffffffffff168173ffffffffffffffffffffffffffffffffffffffff16036111e4576040517f08c379a00000000000000000000000000000000000000000000000000000000081526004016111db90612435565b60405180910390fd5b6111ed816114d5565b50565b60c95f9054906101000a900473ffffffffffffffffffffffffffffffffffffffff1681565b61121d6115e8565b73ffffffffffffffffffffffffffffffffffffffff1661123b610f07565b73ffffffffffffffffffffffffffffffffffffffff1614611291576040517f08c379a00000000000000000000000000000000000000000000000000000000081526004016112889061249d565b60405180910390fd5b565b5f6112bf7f360894a13ba1a3210667c828492db98dca3e2076cc3735a920a3ca505d382bbc5f1b6115ef565b5f015f9054906101000a900473ffffffffffffffffffffffffffffffffffffffff16905090565b6112ee611215565b50565b61131c7f4910fdfa16fed3260ed0e7147f7cc6da11a60208b5b9406d12a635614ffd91435f1b6115f8565b5f015f9054906101000a900460ff161561133e5761133983611601565b611456565b8273ffffffffffffffffffffffffffffffffffffffff166352d1902d6040518163ffffffff1660e01b8152600401602060405180830381865afa9250505080156113a657506040513d601f19601f820116820180604052508101906113a391906124e5565b60015b6113e5576040517f08c379a00000000000000000000000000000000000000000000000000000000081526004016113dc90612580565b60405180910390fd5b7f360894a13ba1a3210667c828492db98dca3e2076cc3735a920a3ca505d382bbc5f1b8114611449576040517f08c379a00000000000000000000000000000000000000000000000000000000081526004016114409061260e565b60405180910390fd5b506114558383836116b7565b5b505050565b5f5f8273ffffffffffffffffffffffffffffffffffffffff163b119050919050565b5f60019054906101000a900460ff166114cb576040517f08c379a00000000000000000000000000000000000000000000000000000000081526004016114c29061269c565b60405180910390fd5b6114d36116e2565b565b5f60335f9054906101000a900473ffffffffffffffffffffffffffffffffffffffff1690508160335f6101000a81548173ffffffffffffffffffffffffffffffffffffffff021916908373ffffffffffffffffffffffffffffffffffffffff1602179055508173ffffffffffffffffffffffffffffffffffffffff168173ffffffffffffffffffffffffffffffffffffffff167f8be0079c531659141344cd1fd0a4f28419497f9722a3daafe3b4186f6b6457e060405160405180910390a35050565b5f60019054906101000a900460ff166115e6576040517f08c379a00000000000000000000000000000000000000000000000000000000081526004016115dd9061269c565b60405180910390fd5b565b5f33905090565b5f819050919050565b5f819050919050565b61160a8161145b565b611649576040517f08c379a00000000000000000000000000000000000000000000000000000000081526004016116409061272a565b60405180910390fd5b806116757f360894a13ba1a3210667c828492db98dca3e2076cc3735a920a3ca505d382bbc5f1b6115ef565b5f015f6101000a81548173ffffffffffffffffffffffffffffffffffffffff021916908373ffffffffffffffffffffffffffffffffffffffff16021790555050565b6116c083611742565b5f825111806116cc5750805b156116dd576116db8383611791565b505b505050565b5f60019054906101000a900460ff16611730576040517f08c379a00000000000000000000000000000000000000000000000000000000081526004016117279061269c565b60405180910390fd5b61174061173b6115e8565b6114d5565b565b61174b81611601565b8073ffffffffffffffffffffffffffffffffffffffff167fbc7cd75a20ee27fd9adebab32041f755214dbc6bffa90cc0225b39da2e5c2d3b60405160405180910390a250565b60606117b68383604051806060016040528060278152602001612871602791396117be565b905092915050565b60605f5f8573ffffffffffffffffffffffffffffffffffffffff16856040516117e79190612790565b5f60405180830381855af49150503d805f811461181f576040519150601f19603f3d011682016040523d82523d5f602084013e611824565b606091505b509150915061183586838387611840565b925050509392505050565b606083156118a1575f835103611899576118598561145b565b611898576040517f08c379a000000000000000000000000000000000000000000000000000000000815260040161188f906127f0565b60405180910390fd5b5b8290506118ac565b6118ab83836118b4565b5b949350505050565b5f825111156118c65781518083602001fd5b806040517f08c379a00000000000000000000000000000000000000000000000000000000081526004016118fa9190612850565b60405180910390fd5b5f819050919050565b7f4e487b71000000000000000000000000000000000000000000000000000000005f52601160045260245ffd5b5f61194382611903565b915061194e83611903565b92508282019050808211156119665761196561190c565b5b92915050565b61197581611903565b82525050565b5f60208201905061198e5f83018461196c565b92915050565b5f604051905090565b5f5ffd5b5f5ffd5b6119ae81611903565b81146119b8575f5ffd5b50565b5f813590506119c9816119a5565b92915050565b5f602082840312156119e4576119e361199d565b5b5f6119f1848285016119bb565b91505092915050565b5f73ffffffffffffffffffffffffffffffffffffffff82169050919050565b5f611a23826119fa565b9050919050565b611a3381611a19565b8114611a3d575f5ffd5b50565b5f81359050611a4e81611a2a565b92915050565b5f60208284031215611a6957611a6861199d565b5b5f611a7684828501611a40565b91505092915050565b5f5f60408385031215611a9557611a9461199d565b5b5f611aa285828601611a40565b9250506020611ab385828601611a40565b9150509250929050565b5f5ffd5b5f5ffd5b5f601f19601f8301169050919050565b7f4e487b71000000000000000000000000000000000000000000000000000000005f52604160045260245ffd5b611b0b82611ac5565b810181811067ffffffffffffffff82111715611b2a57611b29611ad5565b5b80604052505050565b5f611b3c611994565b9050611b488282611b02565b919050565b5f67ffffffffffffffff821115611b6757611b66611ad5565b5b611b7082611ac5565b9050602081019050919050565b828183375f83830152505050565b5f611b9d611b9884611b4d565b611b33565b905082815260208101848484011115611bb957611bb8611ac1565b5b611bc4848285611b7d565b509392505050565b5f82601f830112611be057611bdf611abd565b5b8135611bf0848260208601611b8b565b91505092915050565b5f5f60408385031215611c0f57611c0e61199d565b5b5f611c1c85828601611a40565b925050602083013567ffffffffffffffff811115611c3d57611c3c6119a1565b5b611c4985828601611bcc565b9150509250929050565b5f819050919050565b611c6581611c53565b82525050565b5f602082019050611c7e5f830184611c5c565b92915050565b611c8d81611a19565b82525050565b5f602082019050611ca65f830184611c84565b92915050565b5f5f60408385031215611cc257611cc161199d565b5b5f611ccf858286016119bb565b9250506020611ce085828601611a40565b9150509250929050565b5f819050919050565b5f611d0d611d08611d03846119fa565b611cea565b6119fa565b9050919050565b5f611d1e82611cf3565b9050919050565b5f611d2f82611d14565b9050919050565b611d3f81611d25565b82525050565b5f602082019050611d585f830184611d36565b92915050565b5f82825260208201905092915050565b7f526174696f206d757374206265203c3d203130303030000000000000000000005f82015250565b5f611da2601683611d5e565b9150611dad82611d6e565b602082019050919050565b5f6020820190508181035f830152611dcf81611d96565b9050919050565b7f46756e6374696f6e206d7573742062652063616c6c6564207468726f756768205f8201527f64656c656761746563616c6c0000000000000000000000000000000000000000602082015250565b5f611e30602c83611d5e565b9150611e3b82611dd6565b604082019050919050565b5f6020820190508181035f830152611e5d81611e24565b9050919050565b7f46756e6374696f6e206d7573742062652063616c6c6564207468726f756768205f8201527f6163746976652070726f78790000000000000000000000000000000000000000602082015250565b5f611ebe602c83611d5e565b9150611ec982611e64565b604082019050919050565b5f6020820190508181035f830152611eeb81611eb2565b9050919050565b5f81519050611f00816119a5565b92915050565b5f60208284031215611f1b57611f1a61199d565b5b5f611f2884828501611ef2565b91505092915050565b7f4e6f20506f696e74732062616c616e63650000000000000000000000000000005f82015250565b5f611f65601183611d5e565b9150611f7082611f31565b602082019050919050565b5f6020820190508181035f830152611f9281611f59565b9050919050565b5f611fa382611903565b9150611fae83611903565b9250828202611fbc81611903565b91508282048414831517611fd357611fd261190c565b5b5092915050565b7f4e487b71000000000000000000000000000000000000000000000000000000005f52601260045260245ffd5b5f61201182611903565b915061201c83611903565b92508261202c5761202b611fda565b5b828204905092915050565b7f43616e20636c61696d206f6e636520706572206d6f6e746800000000000000005f82015250565b5f61206b601883611d5e565b915061207682612037565b602082019050919050565b5f6020820190508181035f8301526120988161205f565b9050919050565b5f6120a982611903565b91506120b483611903565b92508282039050818111156120cc576120cb61190c565b5b92915050565b5f81905092915050565b50565b5f6120ea5f836120d2565b91506120f5826120dc565b5f82019050919050565b5f612109826120df565b9150819050919050565b7f5472616e73666572206661696c656400000000000000000000000000000000005f82015250565b5f612147600f83611d5e565b915061215282612113565b602082019050919050565b5f6020820190508181035f8301526121748161213b565b9050919050565b7f496e697469616c697a61626c653a20636f6e747261637420697320616c7265615f8201527f647920696e697469616c697a6564000000000000000000000000000000000000602082015250565b5f6121d5602e83611d5e565b91506121e08261217b565b604082019050919050565b5f6020820190508181035f830152612202816121c9565b9050919050565b5f819050919050565b5f60ff82169050919050565b5f61223861223361222e84612209565b611cea565b612212565b9050919050565b6122488161221e565b82525050565b5f6020820190506122615f83018461223f565b92915050565b7f555550535570677261646561626c653a206d757374206e6f742062652063616c5f8201527f6c6564207468726f7567682064656c656761746563616c6c0000000000000000602082015250565b5f6122c1603883611d5e565b91506122cc82612267565b604082019050919050565b5f6020820190508181035f8301526122ee816122b5565b9050919050565b7f4f6e6c7920676f7665726e616e636500000000000000000000000000000000005f82015250565b5f612329600f83611d5e565b9150612334826122f5565b602082019050919050565b5f6020820190508181035f8301526123568161231d565b9050919050565b7f496e73756666696369656e7420726573657276650000000000000000000000005f82015250565b5f612391601483611d5e565b915061239c8261235d565b602082019050919050565b5f6020820190508181035f8301526123be81612385565b9050919050565b7f4f776e61626c653a206e6577206f776e657220697320746865207a65726f20615f8201527f6464726573730000000000000000000000000000000000000000000000000000602082015250565b5f61241f602683611d5e565b915061242a826123c5565b604082019050919050565b5f6020820190508181035f83015261244c81612413565b9050919050565b7f4f776e61626c653a2063616c6c6572206973206e6f7420746865206f776e65725f82015250565b5f612487602083611d5e565b915061249282612453565b602082019050919050565b5f6020820190508181035f8301526124b48161247b565b9050919050565b6124c481611c53565b81146124ce575f5ffd5b50565b5f815190506124df816124bb565b92915050565b5f602082840312156124fa576124f961199d565b5b5f612507848285016124d1565b91505092915050565b7f45524331393637557067726164653a206e657720696d706c656d656e746174695f8201527f6f6e206973206e6f742055555053000000000000000000000000000000000000602082015250565b5f61256a602e83611d5e565b915061257582612510565b604082019050919050565b5f6020820190508181035f8301526125978161255e565b9050919050565b7f45524331393637557067726164653a20756e737570706f727465642070726f785f8201527f6961626c65555549440000000000000000000000000000000000000000000000602082015250565b5f6125f8602983611d5e565b91506126038261259e565b604082019050919050565b5f6020820190508181035f830152612625816125ec565b9050919050565b7f496e697469616c697a61626c653a20636f6e7472616374206973206e6f7420695f8201527f6e697469616c697a696e67000000000000000000000000000000000000000000602082015250565b5f612686602b83611d5e565b91506126918261262c565b604082019050919050565b5f6020820190508181035f8301526126b38161267a565b9050919050565b7f455243313936373a206e657720696d706c656d656e746174696f6e206973206e5f8201527f6f74206120636f6e747261637400000000000000000000000000000000000000602082015250565b5f612714602d83611d5e565b915061271f826126ba565b604082019050919050565b5f6020820190508181035f83015261274181612708565b9050919050565b5f81519050919050565b8281835e5f83830152505050565b5f61276a82612748565b61277481856120d2565b9350612784818560208601612752565b80840191505092915050565b5f61279b8284612760565b915081905092915050565b7f416464726573733a2063616c6c20746f206e6f6e2d636f6e74726163740000005f82015250565b5f6127da601d83611d5e565b91506127e5826127a6565b602082019050919050565b5f6020820190508181035f830152612807816127ce565b9050919050565b5f81519050919050565b5f6128228261280e565b61282c8185611d5e565b935061283c818560208601612752565b61284581611ac5565b840191505092915050565b5f6020820190508181035f8301526128688184612818565b90509291505056fe416464726573733a206c6f772d6c6576656c2064656c65676174652063616c6c206661696c6564a26469706673582212208e2079eb9d0617c6cb74aea1cf2d6d8b131a0e5e47b899df0db6bea93ea2419864736f6c634300081c003360a06040523073ffffffffffffffffffffffffffffffffffffffff1660809073ffffffffffffffffffffffffffffffffffffffff16815250348015610042575f5ffd5b5061005161005660201b60201c565b6101e6565b5f60019054906101000a900460ff16156100a5576040517f08c379a000000000000000000000000000000000000000000000000000000000815260040161009c90610194565b60405180910390fd5b60ff80165f5f9054906101000a900460ff1660ff16146101125760ff5f5f6101000a81548160ff021916908360ff1602179055507f7f26b83ff96e1f2b6a682f133852f6798a09c465da95921460cefb384740249860ff60405161010991906101cd565b60405180910390a15b565b5f82825260208201905092915050565b7f496e697469616c697a61626c653a20636f6e747261637420697320696e6974695f8201527f616c697a696e6700000000000000000000000000000000000000000000000000602082015250565b5f61017e602783610114565b915061018982610124565b604082019050919050565b5f6020820190508181035f8301526101ab81610172565b9050919050565b5f60ff82169050919050565b6101c7816101b2565b82525050565b5f6020820190506101e05f8301846101be565b92915050565b608051612f4761021a5f395f81816105060152818161059401528181610cb601528181610d440152610df30152612f475ff3fe608060405260043610610129575f3560e01c80638da5cb5b116100aa578063c0c53b8b1161006e578063c0c53b8b146103ab578063d2d7231f146103d3578063ef352bbe1461040f578063f2fde38b14610439578063fd0a755c14610461578063fe297d551461048b57610129565b80638da5cb5b146102df57806394555d1a146103095780639870d7fe14610331578063ac8a584a14610359578063be5304821461038157610129565b80634f1ef286116100f15780634f1ef2861461021f57806352d1902d1461023b5780635745ae2814610265578063627c34ad146102a1578063715018a6146102c957610129565b8063069dab8f1461012d57806313e7c9d81461016b5780633659cfe6146101a757806346971918146101cf5780634cb33d5b146101f7575b5f5ffd5b348015610138575f5ffd5b50610153600480360381019061014e9190611f05565b6104b5565b60405161016293929190611f62565b60405180910390f35b348015610176575f5ffd5b50610191600480360381019061018c9190611f05565b6104e7565b60405161019e9190611f97565b60405180910390f35b3480156101b2575f5ffd5b506101cd60048036038101906101c89190611f05565b610504565b005b3480156101da575f5ffd5b506101f560048036038101906101f09190611fda565b61068a565b005b348015610202575f5ffd5b5061021d60048036038101906102189190611f05565b610a76565b005b61023960048036038101906102349190612166565b610cb4565b005b348015610246575f5ffd5b5061024f610df0565b60405161025c91906121d8565b60405180910390f35b348015610270575f5ffd5b5061028b60048036038101906102869190611f05565b610ea7565b6040516102989190611f97565b60405180910390f35b3480156102ac575f5ffd5b506102c760048036038101906102c29190611f05565b610ec4565b005b3480156102d4575f5ffd5b506102dd61108b565b005b3480156102ea575f5ffd5b506102f361109e565b6040516103009190612200565b60405180910390f35b348015610314575f5ffd5b5061032f600480360381019061032a9190611f05565b6110c6565b005b34801561033c575f5ffd5b5061035760048036038101906103529190611f05565b61128d565b005b348015610364575f5ffd5b5061037f600480360381019061037a9190611f05565b611330565b005b34801561038c575f5ffd5b506103956113d2565b6040516103a29190612219565b60405180910390f35b3480156103b6575f5ffd5b506103d160048036038101906103cc919061226d565b6113d8565b005b3480156103de575f5ffd5b506103f960048036038101906103f491906122bd565b61163e565b6040516104069190612219565b60405180910390f35b34801561041a575f5ffd5b506104236116da565b6040516104309190612219565b60405180910390f35b348015610444575f5ffd5b5061045f600480360381019061045a9190611f05565b6116e0565b005b34801561046c575f5ffd5b50610475611762565b6040516104829190612343565b60405180910390f35b348015610496575f5ffd5b5061049f611787565b6040516104ac919061238d565b60405180910390f35b60ce602052805f5260405f205f91509050805f015f9054906101000a900460ff16908060010154908060020154905083565b60cd602052805f5260405f205f915054906101000a900460ff1681565b7f000000000000000000000000000000000000000000000000000000000000000073ffffffffffffffffffffffffffffffffffffffff163073ffffffffffffffffffffffffffffffffffffffff1603610592576040517f08c379a000000000000000000000000000000000000000000000000000000000815260040161058990612426565b60405180910390fd5b7f000000000000000000000000000000000000000000000000000000000000000073ffffffffffffffffffffffffffffffffffffffff166105d16117ac565b73ffffffffffffffffffffffffffffffffffffffff1614610627576040517f08c379a000000000000000000000000000000000000000000000000000000000815260040161061e906124b4565b60405180910390fd5b610630816117ff565b610687815f67ffffffffffffffff81111561064e5761064d612042565b5b6040519080825280601f01601f1916602001820160405280156106805781602001600182028036833780820191505090505b505f61180a565b50565b60cd5f3373ffffffffffffffffffffffffffffffffffffffff1673ffffffffffffffffffffffffffffffffffffffff1681526020019081526020015f205f9054906101000a900460ff168061071157506106e261109e565b73ffffffffffffffffffffffffffffffffffffffff163373ffffffffffffffffffffffffffffffffffffffff16145b610750576040517f08c379a00000000000000000000000000000000000000000000000000000000081526004016107479061251c565b60405180910390fd5b60ce5f8473ffffffffffffffffffffffffffffffffffffffff1673ffffffffffffffffffffffffffffffffffffffff1681526020019081526020015f205f015f9054906101000a900460ff166107db576040517f08c379a00000000000000000000000000000000000000000000000000000000081526004016107d290612584565b60405180910390fd5b6201518060ce5f8573ffffffffffffffffffffffffffffffffffffffff1673ffffffffffffffffffffffffffffffffffffffff1681526020019081526020015f206002015461082a91906125cf565b421161086b576040517f08c379a00000000000000000000000000000000000000000000000000000000081526004016108629061264c565b60405180910390fd5b60c95f9054906101000a900473ffffffffffffffffffffffffffffffffffffffff1673ffffffffffffffffffffffffffffffffffffffff166340c10f1984846040518363ffffffff1660e01b81526004016108c792919061266a565b5f604051808303815f87803b1580156108de575f5ffd5b505af11580156108f0573d5f5f3e3d5ffd5b505050505f8111156109865760ca5f9054906101000a900473ffffffffffffffffffffffffffffffffffffffff1673ffffffffffffffffffffffffffffffffffffffff1663dac4e00882856040518363ffffffff1660e01b8152600401610958929190612691565b5f604051808303815f87803b15801561096f575f5ffd5b505af1158015610981573d5f5f3e3d5ffd5b505050505b8160ce5f8573ffffffffffffffffffffffffffffffffffffffff1673ffffffffffffffffffffffffffffffffffffffff1681526020019081526020015f206001015f8282546109d591906125cf565b925050819055504260ce5f8573ffffffffffffffffffffffffffffffffffffffff1673ffffffffffffffffffffffffffffffffffffffff1681526020019081526020015f20600201819055508273ffffffffffffffffffffffffffffffffffffffff167f3626666c231adad7b37ba00edbc842b5c6ec283c7700ee28a4540048d4ad23088383604051610a699291906126b8565b60405180910390a2505050565b60cd5f3373ffffffffffffffffffffffffffffffffffffffff1673ffffffffffffffffffffffffffffffffffffffff1681526020019081526020015f205f9054906101000a900460ff1680610afd5750610ace61109e565b73ffffffffffffffffffffffffffffffffffffffff163373ffffffffffffffffffffffffffffffffffffffff16145b610b3c576040517f08c379a0000000000000000000000000000000000000000000000000000000008152600401610b339061251c565b60405180910390fd5b60ce5f8273ffffffffffffffffffffffffffffffffffffffff1673ffffffffffffffffffffffffffffffffffffffff1681526020019081526020015f205f015f9054906101000a900460ff1615610bc8576040517f08c379a0000000000000000000000000000000000000000000000000000000008152600401610bbf90612729565b60405180910390fd5b60405180606001604052806001151581526020015f81526020015f81525060ce5f8373ffffffffffffffffffffffffffffffffffffffff1673ffffffffffffffffffffffffffffffffffffffff1681526020019081526020015f205f820151815f015f6101000a81548160ff021916908315150217905550602082015181600101556040820151816002015590505060cc5f815480929190610c6990612747565b91905055508073ffffffffffffffffffffffffffffffffffffffff167fa8476a100dfe10a5a1eaf141fb52ce03e930b3592d93f086ea603b0f9152649a60405160405180910390a250565b7f000000000000000000000000000000000000000000000000000000000000000073ffffffffffffffffffffffffffffffffffffffff163073ffffffffffffffffffffffffffffffffffffffff1603610d42576040517f08c379a0000000000000000000000000000000000000000000000000000000008152600401610d3990612426565b60405180910390fd5b7f000000000000000000000000000000000000000000000000000000000000000073ffffffffffffffffffffffffffffffffffffffff16610d816117ac565b73ffffffffffffffffffffffffffffffffffffffff1614610dd7576040517f08c379a0000000000000000000000000000000000000000000000000000000008152600401610dce906124b4565b60405180910390fd5b610de0826117ff565b610dec8282600161180a565b5050565b5f7f000000000000000000000000000000000000000000000000000000000000000073ffffffffffffffffffffffffffffffffffffffff163073ffffffffffffffffffffffffffffffffffffffff1614610e7f576040517f08c379a0000000000000000000000000000000000000000000000000000000008152600401610e76906127fe565b60405180910390fd5b7f360894a13ba1a3210667c828492db98dca3e2076cc3735a920a3ca505d382bbc5f1b905090565b60cf602052805f5260405f205f915054906101000a900460ff1681565b60cd5f3373ffffffffffffffffffffffffffffffffffffffff1673ffffffffffffffffffffffffffffffffffffffff1681526020019081526020015f205f9054906101000a900460ff1680610f4b5750610f1c61109e565b73ffffffffffffffffffffffffffffffffffffffff163373ffffffffffffffffffffffffffffffffffffffff16145b610f8a576040517f08c379a0000000000000000000000000000000000000000000000000000000008152600401610f819061251c565b60405180910390fd5b60cf5f8273ffffffffffffffffffffffffffffffffffffffff1673ffffffffffffffffffffffffffffffffffffffff1681526020019081526020015f205f9054906101000a900460ff1615611088575f60cf5f8373ffffffffffffffffffffffffffffffffffffffff1673ffffffffffffffffffffffffffffffffffffffff1681526020019081526020015f205f6101000a81548160ff02191690831515021790555060cb5f81548092919061103f9061281c565b91905055508073ffffffffffffffffffffffffffffffffffffffff167f363a8f89c594989191b48e234d2d120becdcdcfb1a55430ebe087df465ecee7960405160405180910390a25b50565b611093611974565b61109c5f6119f2565b565b5f60335f9054906101000a900473ffffffffffffffffffffffffffffffffffffffff16905090565b60cd5f3373ffffffffffffffffffffffffffffffffffffffff1673ffffffffffffffffffffffffffffffffffffffff1681526020019081526020015f205f9054906101000a900460ff168061114d575061111e61109e565b73ffffffffffffffffffffffffffffffffffffffff163373ffffffffffffffffffffffffffffffffffffffff16145b61118c576040517f08c379a00000000000000000000000000000000000000000000000000000000081526004016111839061251c565b60405180910390fd5b60cf5f8273ffffffffffffffffffffffffffffffffffffffff1673ffffffffffffffffffffffffffffffffffffffff1681526020019081526020015f205f9054906101000a900460ff1661128a57600160cf5f8373ffffffffffffffffffffffffffffffffffffffff1673ffffffffffffffffffffffffffffffffffffffff1681526020019081526020015f205f6101000a81548160ff02191690831515021790555060cb5f81548092919061124190612747565b91905055508073ffffffffffffffffffffffffffffffffffffffff167fc97dd170c66ffbaf6bbd161106e7414cd1b75c1f50f9cd74947e4cf45678b82f60405160405180910390a25b50565b611295611974565b600160cd5f8373ffffffffffffffffffffffffffffffffffffffff1673ffffffffffffffffffffffffffffffffffffffff1681526020019081526020015f205f6101000a81548160ff0219169083151502179055508073ffffffffffffffffffffffffffffffffffffffff167fac6fa858e9350a46cec16539926e0fde25b7629f84b5a72bffaae4df888ae86d60405160405180910390a250565b611338611974565b5f60cd5f8373ffffffffffffffffffffffffffffffffffffffff1673ffffffffffffffffffffffffffffffffffffffff1681526020019081526020015f205f6101000a81548160ff0219169083151502179055508073ffffffffffffffffffffffffffffffffffffffff167f80c0b871b97b595b16a7741c1b06fed0c6f6f558639f18ccbce50724325dc40d60405160405180910390a250565b60cc5481565b5f5f60019054906101000a900460ff16159050808015611408575060015f5f9054906101000a900460ff1660ff16105b80611435575061141730611ab5565b158015611434575060015f5f9054906101000a900460ff1660ff16145b5b611474576040517f08c379a000000000000000000000000000000000000000000000000000000000815260040161146b906128b3565b60405180910390fd5b60015f5f6101000a81548160ff021916908360ff16021790555080156114af5760015f60016101000a81548160ff0219169083151502179055505b6114b7611ad7565b6114c0846119f2565b6114c8611b2f565b8260c95f6101000a81548173ffffffffffffffffffffffffffffffffffffffff021916908373ffffffffffffffffffffffffffffffffffffffff1602179055508160ca5f6101000a81548173ffffffffffffffffffffffffffffffffffffffff021916908373ffffffffffffffffffffffffffffffffffffffff160217905550600160cd5f8673ffffffffffffffffffffffffffffffffffffffff1673ffffffffffffffffffffffffffffffffffffffff1681526020019081526020015f205f6101000a81548160ff0219169083151502179055508373ffffffffffffffffffffffffffffffffffffffff167fac6fa858e9350a46cec16539926e0fde25b7629f84b5a72bffaae4df888ae86d60405160405180910390a28015611638575f5f60016101000a81548160ff0219169083151502179055507f7f26b83ff96e1f2b6a682f133852f6798a09c465da95921460cefb3847402498600160405161162f9190612916565b60405180910390a15b50505050565b5f6064821115611683576040517f08c379a000000000000000000000000000000000000000000000000000000000815260040161167a90612979565b60405180910390fd5b5f68056bc75e2d6310000090505f6001606460cb546116a291906129c4565b6116ac91906125cf565b905060648482846116bd91906129f4565b6116c791906129f4565b6116d191906129c4565b92505050919050565b60cb5481565b6116e8611974565b5f73ffffffffffffffffffffffffffffffffffffffff168173ffffffffffffffffffffffffffffffffffffffff1603611756576040517f08c379a000000000000000000000000000000000000000000000000000000000815260040161174d90612aa5565b60405180910390fd5b61175f816119f2565b50565b60ca5f9054906101000a900473ffffffffffffffffffffffffffffffffffffffff1681565b60c95f9054906101000a900473ffffffffffffffffffffffffffffffffffffffff1681565b5f6117d87f360894a13ba1a3210667c828492db98dca3e2076cc3735a920a3ca505d382bbc5f1b611b7f565b5f015f9054906101000a900473ffffffffffffffffffffffffffffffffffffffff16905090565b611807611974565b50565b6118357f4910fdfa16fed3260ed0e7147f7cc6da11a60208b5b9406d12a635614ffd91435f1b611b88565b5f015f9054906101000a900460ff16156118575761185283611b91565b61196f565b8273ffffffffffffffffffffffffffffffffffffffff166352d1902d6040518163ffffffff1660e01b8152600401602060405180830381865afa9250505080156118bf57506040513d601f19601f820116820180604052508101906118bc9190612aed565b60015b6118fe576040517f08c379a00000000000000000000000000000000000000000000000000000000081526004016118f590612b88565b60405180910390fd5b7f360894a13ba1a3210667c828492db98dca3e2076cc3735a920a3ca505d382bbc5f1b8114611962576040517f08c379a000000000000000000000000000000000000000000000000000000000815260040161195990612c16565b60405180910390fd5b5061196e838383611c47565b5b505050565b61197c611c72565b73ffffffffffffffffffffffffffffffffffffffff1661199a61109e565b73ffffffffffffffffffffffffffffffffffffffff16146119f0576040517f08c379a00000000000000000000000000000000000000000000000000000000081526004016119e790612c7e565b60405180910390fd5b565b5f60335f9054906101000a900473ffffffffffffffffffffffffffffffffffffffff1690508160335f6101000a81548173ffffffffffffffffffffffffffffffffffffffff021916908373ffffffffffffffffffffffffffffffffffffffff1602179055508173ffffffffffffffffffffffffffffffffffffffff168173ffffffffffffffffffffffffffffffffffffffff167f8be0079c531659141344cd1fd0a4f28419497f9722a3daafe3b4186f6b6457e060405160405180910390a35050565b5f5f8273ffffffffffffffffffffffffffffffffffffffff163b119050919050565b5f60019054906101000a900460ff16611b25576040517f08c379a0000000000000000000000000000000000000000000000000000000008152600401611b1c90612d0c565b60405180910390fd5b611b2d611c79565b565b5f60019054906101000a900460ff16611b7d576040517f08c379a0000000000000000000000000000000000000000000000000000000008152600401611b7490612d0c565b60405180910390fd5b565b5f819050919050565b5f819050919050565b611b9a81611ab5565b611bd9576040517f08c379a0000000000000000000000000000000000000000000000000000000008152600401611bd090612d9a565b60405180910390fd5b80611c057f360894a13ba1a3210667c828492db98dca3e2076cc3735a920a3ca505d382bbc5f1b611b7f565b5f015f6101000a81548173ffffffffffffffffffffffffffffffffffffffff021916908373ffffffffffffffffffffffffffffffffffffffff16021790555050565b611c5083611cd9565b5f82511180611c5c5750805b15611c6d57611c6b8383611d28565b505b505050565b5f33905090565b5f60019054906101000a900460ff16611cc7576040517f08c379a0000000000000000000000000000000000000000000000000000000008152600401611cbe90612d0c565b60405180910390fd5b611cd7611cd2611c72565b6119f2565b565b611ce281611b91565b8073ffffffffffffffffffffffffffffffffffffffff167fbc7cd75a20ee27fd9adebab32041f755214dbc6bffa90cc0225b39da2e5c2d3b60405160405180910390a250565b6060611d4d8383604051806060016040528060278152602001612eeb60279139611d55565b905092915050565b60605f5f8573ffffffffffffffffffffffffffffffffffffffff1685604051611d7e9190612e0a565b5f60405180830381855af49150503d805f8114611db6576040519150601f19603f3d011682016040523d82523d5f602084013e611dbb565b606091505b5091509150611dcc86838387611dd7565b925050509392505050565b60608315611e38575f835103611e3057611df085611ab5565b611e2f576040517f08c379a0000000000000000000000000000000000000000000000000000000008152600401611e2690612e6a565b60405180910390fd5b5b829050611e43565b611e428383611e4b565b5b949350505050565b5f82511115611e5d5781518083602001fd5b806040517f08c379a0000000000000000000000000000000000000000000000000000000008152600401611e919190612eca565b60405180910390fd5b5f604051905090565b5f5ffd5b5f5ffd5b5f73ffffffffffffffffffffffffffffffffffffffff82169050919050565b5f611ed482611eab565b9050919050565b611ee481611eca565b8114611eee575f5ffd5b50565b5f81359050611eff81611edb565b92915050565b5f60208284031215611f1a57611f19611ea3565b5b5f611f2784828501611ef1565b91505092915050565b5f8115159050919050565b611f4481611f30565b82525050565b5f819050919050565b611f5c81611f4a565b82525050565b5f606082019050611f755f830186611f3b565b611f826020830185611f53565b611f8f6040830184611f53565b949350505050565b5f602082019050611faa5f830184611f3b565b92915050565b611fb981611f4a565b8114611fc3575f5ffd5b50565b5f81359050611fd481611fb0565b92915050565b5f5f5f60608486031215611ff157611ff0611ea3565b5b5f611ffe86828701611ef1565b935050602061200f86828701611fc6565b925050604061202086828701611fc6565b9150509250925092565b5f5ffd5b5f5ffd5b5f601f19601f8301169050919050565b7f4e487b71000000000000000000000000000000000000000000000000000000005f52604160045260245ffd5b61207882612032565b810181811067ffffffffffffffff8211171561209757612096612042565b5b80604052505050565b5f6120a9611e9a565b90506120b5828261206f565b919050565b5f67ffffffffffffffff8211156120d4576120d3612042565b5b6120dd82612032565b9050602081019050919050565b828183375f83830152505050565b5f61210a612105846120ba565b6120a0565b9050828152602081018484840111156121265761212561202e565b5b6121318482856120ea565b509392505050565b5f82601f83011261214d5761214c61202a565b5b813561215d8482602086016120f8565b91505092915050565b5f5f6040838503121561217c5761217b611ea3565b5b5f61218985828601611ef1565b925050602083013567ffffffffffffffff8111156121aa576121a9611ea7565b5b6121b685828601612139565b9150509250929050565b5f819050919050565b6121d2816121c0565b82525050565b5f6020820190506121eb5f8301846121c9565b92915050565b6121fa81611eca565b82525050565b5f6020820190506122135f8301846121f1565b92915050565b5f60208201905061222c5f830184611f53565b92915050565b5f61223c82611eab565b9050919050565b61224c81612232565b8114612256575f5ffd5b50565b5f8135905061226781612243565b92915050565b5f5f5f6060848603121561228457612283611ea3565b5b5f61229186828701611ef1565b93505060206122a286828701611ef1565b92505060406122b386828701612259565b9150509250925092565b5f602082840312156122d2576122d1611ea3565b5b5f6122df84828501611fc6565b91505092915050565b5f819050919050565b5f61230b61230661230184611eab565b6122e8565b611eab565b9050919050565b5f61231c826122f1565b9050919050565b5f61232d82612312565b9050919050565b61233d81612323565b82525050565b5f6020820190506123565f830184612334565b92915050565b5f612366826122f1565b9050919050565b5f6123778261235c565b9050919050565b6123878161236d565b82525050565b5f6020820190506123a05f83018461237e565b92915050565b5f82825260208201905092915050565b7f46756e6374696f6e206d7573742062652063616c6c6564207468726f756768205f8201527f64656c656761746563616c6c0000000000000000000000000000000000000000602082015250565b5f612410602c836123a6565b915061241b826123b6565b604082019050919050565b5f6020820190508181035f83015261243d81612404565b9050919050565b7f46756e6374696f6e206d7573742062652063616c6c6564207468726f756768205f8201527f6163746976652070726f78790000000000000000000000000000000000000000602082015250565b5f61249e602c836123a6565b91506124a982612444565b604082019050919050565b5f6020820190508181035f8301526124cb81612492565b9050919050565b7f4e6f7420617574686f72697a65640000000000000000000000000000000000005f82015250565b5f612506600e836123a6565b9150612511826124d2565b602082019050919050565b5f6020820190508181035f830152612533816124fa565b9050919050565b7f417274697374206e6f74207265676973746572656400000000000000000000005f82015250565b5f61256e6015836123a6565b91506125798261253a565b602082019050919050565b5f6020820190508181035f83015261259b81612562565b9050919050565b7f4e487b71000000000000000000000000000000000000000000000000000000005f52601160045260245ffd5b5f6125d982611f4a565b91506125e483611f4a565b92508282019050808211156125fc576125fb6125a2565b5b92915050565b7f546f6f206672657175656e7400000000000000000000000000000000000000005f82015250565b5f612636600c836123a6565b915061264182612602565b602082019050919050565b5f6020820190508181035f8301526126638161262a565b9050919050565b5f60408201905061267d5f8301856121f1565b61268a6020830184611f53565b9392505050565b5f6040820190506126a45f830185611f53565b6126b160208301846121f1565b9392505050565b5f6040820190506126cb5f830185611f53565b6126d86020830184611f53565b9392505050565b7f416c7265616479207265676973746572656400000000000000000000000000005f82015250565b5f6127136012836123a6565b915061271e826126df565b602082019050919050565b5f6020820190508181035f83015261274081612707565b9050919050565b5f61275182611f4a565b91507fffffffffffffffffffffffffffffffffffffffffffffffffffffffffffffffff8203612783576127826125a2565b5b600182019050919050565b7f555550535570677261646561626c653a206d757374206e6f742062652063616c5f8201527f6c6564207468726f7567682064656c656761746563616c6c0000000000000000602082015250565b5f6127e86038836123a6565b91506127f38261278e565b604082019050919050565b5f6020820190508181035f830152612815816127dc565b9050919050565b5f61282682611f4a565b91505f8203612838576128376125a2565b5b600182039050919050565b7f496e697469616c697a61626c653a20636f6e747261637420697320616c7265615f8201527f647920696e697469616c697a6564000000000000000000000000000000000000602082015250565b5f61289d602e836123a6565b91506128a882612843565b604082019050919050565b5f6020820190508181035f8301526128ca81612891565b9050919050565b5f819050919050565b5f60ff82169050919050565b5f6129006128fb6128f6846128d1565b6122e8565b6128da565b9050919050565b612910816128e6565b82525050565b5f6020820190506129295f830184612907565b92915050565b7f53636f7265206d757374206265203c3d203130300000000000000000000000005f82015250565b5f6129636014836123a6565b915061296e8261292f565b602082019050919050565b5f6020820190508181035f83015261299081612957565b9050919050565b7f4e487b71000000000000000000000000000000000000000000000000000000005f52601260045260245ffd5b5f6129ce82611f4a565b91506129d983611f4a565b9250826129e9576129e8612997565b5b828204905092915050565b5f6129fe82611f4a565b9150612a0983611f4a565b9250828202612a1781611f4a565b91508282048414831517612a2e57612a2d6125a2565b5b5092915050565b7f4f776e61626c653a206e6577206f776e657220697320746865207a65726f20615f8201527f6464726573730000000000000000000000000000000000000000000000000000602082015250565b5f612a8f6026836123a6565b9150612a9a82612a35565b604082019050919050565b5f6020820190508181035f830152612abc81612a83565b9050919050565b612acc816121c0565b8114612ad6575f5ffd5b50565b5f81519050612ae781612ac3565b92915050565b5f60208284031215612b0257612b01611ea3565b5b5f612b0f84828501612ad9565b91505092915050565b7f45524331393637557067726164653a206e657720696d706c656d656e746174695f8201527f6f6e206973206e6f742055555053000000000000000000000000000000000000602082015250565b5f612b72602e836123a6565b9150612b7d82612b18565b604082019050919050565b5f6020820190508181035f830152612b9f81612b66565b9050919050565b7f45524331393637557067726164653a20756e737570706f727465642070726f785f8201527f6961626c65555549440000000000000000000000000000000000000000000000602082015250565b5f612c006029836123a6565b9150612c0b82612ba6565b604082019050919050565b5f6020820190508181035f830152612c2d81612bf4565b9050919050565b7f4f776e61626c653a2063616c6c6572206973206e6f7420746865206f776e65725f82015250565b5f612c686020836123a6565b9150612c7382612c34565b602082019050919050565b5f6020820190508181035f830152612c9581612c5c565b9050919050565b7f496e697469616c697a61626c653a20636f6e7472616374206973206e6f7420695f8201527f6e697469616c697a696e67000000000000000000000000000000000000000000602082015250565b5f612cf6602b836123a6565b9150612d0182612c9c565b604082019050919050565b5f6020820190508181035f830152612d2381612cea565b9050919050565b7f455243313936373a206e657720696d706c656d656e746174696f6e206973206e5f8201527f6f74206120636f6e747261637400000000000000000000000000000000000000602082015250565b5f612d84602d836123a6565b9150612d8f82612d2a565b604082019050919050565b5f6020820190508181035f830152612db181612d78565b9050919050565b5f81519050919050565b5f81905092915050565b8281835e5f83830152505050565b5f612de482612db8565b612dee8185612dc2565b9350612dfe818560208601612dcc565b80840191505092915050565b5f612e158284612dda565b915081905092915050565b7f416464726573733a2063616c6c20746f206e6f6e2d636f6e74726163740000005f82015250565b5f612e54601d836123a6565b9150612e5f82612e20565b602082019050919050565b5f6020820190508181035f830152612e8181612e48565b9050919050565b5f81519050919050565b5f612e9c82612e88565b612ea681856123a6565b9350612eb6818560208601612dcc565b612ebf81612032565b840191505092915050565b5f6020820190508181035f830152612ee28184612e92565b90509291505056fe416464726573733a206c6f772d6c6576656c2064656c65676174652063616c6c206661696c6564a264697066735822122089c0d4747b7f32cea102e01602c3e1339791795cd89bba9069d45f2dc5810ccf64736f6c634300081c0033","linkReferences":{}},"methodIdentifiers":{"deployEcosystem()":"711e6d08","governanceImplementation()":"149fbe5b","owner()":"8da5cb5b","renounceOwnership()":"715018a6","tokenImplementation()":"2f3a3d5d","transferOwnership(address)":"f2fde38b","treasuryImplementation()":"1d32138f"},"id":41}